{
  "_format": "hh-sol-artifact-1",
  "contractName": "ProcurementApproval",
  "sourceName": "contracts/ProcurementApproval.sol",
  "abi": [
    {
      "inputs": [
        {
          "internalType": "address[]",
          "name": "_approvers",
          "type": "address[]"
        }
      ],
      "stateMutability": "nonpayable",
      "type": "constructor"
    },
    {
      "anonymous": false,
      "inputs": [
        {
          "indexed": false,
          "internalType": "uint256",
          "name": "id",
          "type": "uint256"
        },
        {
          "indexed": false,
          "internalType": "address",
          "name": "approver",
          "type": "address"
        }
      ],
      "name": "ContractApproved",
      "type": "event"
    },
    {
      "anonymous": false,
      "inputs": [
        {
          "indexed": false,
          "internalType": "uint256",
          "name": "id",
          "type": "uint256"
        },
        {
          "indexed": false,
          "internalType": "string",
          "name": "title",
          "type": "string"
        },
        {
          "indexed": false,
          "internalType": "address",
          "name": "creator",
          "type": "address"
        }
      ],
      "name": "ContractCreated",
      "type": "event"
    },
    {
      "anonymous": false,
      "inputs": [
        {
          "indexed": false,
          "internalType": "uint256",
          "name": "id",
          "type": "uint256"
        }
      ],
      "name": "ContractFullyApproved",
      "type": "event"
    },
    {
      "anonymous": false,
      "inputs": [
        {
          "indexed": false,
          "internalType": "uint256",
          "name": "id",
          "type": "uint256"
        },
        {
          "indexed": false,
          "internalType": "uint256",
          "name": "newValue",
          "type": "uint256"
        },
        {
          "indexed": false,
          "internalType": "address",
          "name": "modifiedBy",
          "type": "address"
        }
      ],
      "name": "ContractModified",
      "type": "event"
    },
    {
      "anonymous": false,
      "inputs": [
        {
          "indexed": false,
          "internalType": "uint256",
          "name": "contractId",
          "type": "uint256"
        },
        {
          "indexed": false,
          "internalType": "uint256",
          "name": "newValue",
          "type": "uint256"
        },
        {
          "indexed": false,
          "internalType": "address",
          "name": "appliedBy",
          "type": "address"
        }
      ],
      "name": "ModificationApplied",
      "type": "event"
    },
    {
      "anonymous": false,
      "inputs": [
        {
          "indexed": false,
          "internalType": "uint256",
          "name": "contractId",
          "type": "uint256"
        },
        {
          "indexed": false,
          "internalType": "address",
          "name": "rejectedBy",
          "type": "address"
        }
      ],
      "name": "ModificationRejected",
      "type": "event"
    },
    {
      "anonymous": false,
      "inputs": [
        {
          "indexed": false,
          "internalType": "uint256",
          "name": "contractId",
          "type": "uint256"
        },
        {
          "indexed": false,
          "internalType": "uint256",
          "name": "newValue",
          "type": "uint256"
        },
        {
          "indexed": false,
          "internalType": "address",
          "name": "requestedBy",
          "type": "address"
        }
      ],
      "name": "ModificationRequested",
      "type": "event"
    },
    {
      "anonymous": false,
      "inputs": [
        {
          "indexed": false,
          "internalType": "uint256",
          "name": "contractId",
          "type": "uint256"
        },
        {
          "indexed": false,
          "internalType": "address",
          "name": "reviewer",
          "type": "address"
        },
        {
          "indexed": false,
          "internalType": "bool",
          "name": "approved",
          "type": "bool"
        }
      ],
      "name": "ModificationReviewed",
      "type": "event"
    },
    {
      "anonymous": false,
      "inputs": [
        {
          "indexed": true,
          "internalType": "address",
          "name": "by",
          "type": "address"
        },
        {
          "indexed": true,
          "internalType": "uint256",
          "name": "contractId",
          "type": "uint256"
        },
        {
          "indexed": false,
          "internalType": "string",
          "name": "reason",
          "type": "string"
        }
      ],
      "name": "UnauthorizedModificationAttempt",
      "type": "event"
    },
    {
      "inputs": [],
      "name": "MAX_MODIFICATION_VALUE_INCREASE_PERCENT",
      "outputs": [
        {
          "internalType": "uint256",
          "name": "",
          "type": "uint256"
        }
      ],
      "stateMutability": "view",
      "type": "function"
    },
    {
      "inputs": [],
      "name": "MAX_TIME_EXTENSION_DAYS",
      "outputs": [
        {
          "internalType": "uint256",
          "name": "",
          "type": "uint256"
        }
      ],
      "stateMutability": "view",
      "type": "function"
    },
    {
      "inputs": [],
      "name": "MAX_VALUE_INCREASE_PERCENT",
      "outputs": [
        {
          "internalType": "uint256",
          "name": "",
          "type": "uint256"
        }
      ],
      "stateMutability": "view",
      "type": "function"
    },
    {
      "inputs": [
        {
          "internalType": "uint256",
          "name": "_id",
          "type": "uint256"
        }
      ],
      "name": "approveContract",
      "outputs": [],
      "stateMutability": "nonpayable",
      "type": "function"
    },
    {
      "inputs": [
        {
          "internalType": "uint256",
          "name": "",
          "type": "uint256"
        },
        {
          "internalType": "address",
          "name": "",
          "type": "address"
        }
      ],
      "name": "approvedBy",
      "outputs": [
        {
          "internalType": "bool",
          "name": "",
          "type": "bool"
        }
      ],
      "stateMutability": "view",
      "type": "function"
    },
    {
      "inputs": [
        {
          "internalType": "uint256",
          "name": "",
          "type": "uint256"
        }
      ],
      "name": "approvers",
      "outputs": [
        {
          "internalType": "address",
          "name": "",
          "type": "address"
        }
      ],
      "stateMutability": "view",
      "type": "function"
    },
    {
      "inputs": [
        {
          "internalType": "address",
          "name": "_addr",
          "type": "address"
        },
        {
          "internalType": "enum ProcurementApproval.Role",
          "name": "_role",
          "type": "uint8"
        }
      ],
      "name": "assignRole",
      "outputs": [],
      "stateMutability": "nonpayable",
      "type": "function"
    },
    {
      "inputs": [],
      "name": "contractCounter",
      "outputs": [
        {
          "internalType": "uint256",
          "name": "",
          "type": "uint256"
        }
      ],
      "stateMutability": "view",
      "type": "function"
    },
    {
      "inputs": [
        {
          "internalType": "string",
          "name": "_title",
          "type": "string"
        },
        {
          "internalType": "string",
          "name": "_description",
          "type": "string"
        },
        {
          "internalType": "string",
          "name": "_supplierName",
          "type": "string"
        },
        {
          "internalType": "uint256",
          "name": "_value",
          "type": "uint256"
        },
        {
          "internalType": "string",
          "name": "_fileHash",
          "type": "string"
        },
        {
          "internalType": "uint256",
          "name": "_deliveryDate",
          "type": "uint256"
        }
      ],
      "name": "createContract",
      "outputs": [
        {
          "internalType": "uint256",
          "name": "",
          "type": "uint256"
        }
      ],
      "stateMutability": "nonpayable",
      "type": "function"
    },
    {
      "inputs": [],
      "name": "getAllContracts",
      "outputs": [
        {
          "components": [
            {
              "internalType": "uint256",
              "name": "id",
              "type": "uint256"
            },
            {
              "internalType": "string",
              "name": "title",
              "type": "string"
            },
            {
              "internalType": "string",
              "name": "description",
              "type": "string"
            },
            {
              "internalType": "string",
              "name": "supplierName",
              "type": "string"
            },
            {
              "internalType": "address",
              "name": "creator",
              "type": "address"
            },
            {
              "internalType": "uint256",
              "name": "value",
              "type": "uint256"
            },
            {
              "internalType": "string",
              "name": "fileHash",
              "type": "string"
            },
            {
              "internalType": "uint256",
              "name": "approvals",
              "type": "uint256"
            },
            {
              "internalType": "bool",
              "name": "isApproved",
              "type": "bool"
            },
            {
              "internalType": "uint256",
              "name": "lastModified",
              "type": "uint256"
            },
            {
              "internalType": "uint256",
              "name": "deliveryDate",
              "type": "uint256"
            }
          ],
          "internalType": "struct ProcurementApproval.ProcurementContract[]",
          "name": "",
          "type": "tuple[]"
        }
      ],
      "stateMutability": "view",
      "type": "function"
    },
    {
      "inputs": [
        {
          "internalType": "uint256",
          "name": "_id",
          "type": "uint256"
        }
      ],
      "name": "getContract",
      "outputs": [
        {
          "internalType": "uint256",
          "name": "id",
          "type": "uint256"
        },
        {
          "internalType": "string",
          "name": "title",
          "type": "string"
        },
        {
          "internalType": "string",
          "name": "description",
          "type": "string"
        },
        {
          "internalType": "string",
          "name": "supplierName",
          "type": "string"
        },
        {
          "internalType": "address",
          "name": "creator",
          "type": "address"
        },
        {
          "internalType": "uint256",
          "name": "value",
          "type": "uint256"
        },
        {
          "internalType": "string",
          "name": "fileHash",
          "type": "string"
        },
        {
          "internalType": "uint256",
          "name": "approvals",
          "type": "uint256"
        },
        {
          "internalType": "bool",
          "name": "isApproved",
          "type": "bool"
        },
        {
          "internalType": "uint256",
          "name": "lastModified",
          "type": "uint256"
        }
      ],
      "stateMutability": "view",
      "type": "function"
    },
    {
      "inputs": [
        {
          "internalType": "uint256",
          "name": "_id",
          "type": "uint256"
        }
      ],
      "name": "getDeliveryDate",
      "outputs": [
        {
          "internalType": "uint256",
          "name": "",
          "type": "uint256"
        }
      ],
      "stateMutability": "view",
      "type": "function"
    },
    {
      "inputs": [
        {
          "internalType": "uint256",
          "name": "_id",
          "type": "uint256"
        },
        {
          "internalType": "uint256",
          "name": "_newValue",
          "type": "uint256"
        }
      ],
      "name": "modifyContractValue",
      "outputs": [],
      "stateMutability": "nonpayable",
      "type": "function"
    },
    {
      "inputs": [],
      "name": "owner",
      "outputs": [
        {
          "internalType": "address",
          "name": "",
          "type": "address"
        }
      ],
      "stateMutability": "view",
      "type": "function"
    },
    {
      "inputs": [
        {
          "internalType": "uint256",
          "name": "_contractId",
          "type": "uint256"
        }
      ],
      "name": "rejectModificationRequest",
      "outputs": [],
      "stateMutability": "nonpayable",
      "type": "function"
    },
    {
      "inputs": [
        {
          "internalType": "uint256",
          "name": "_contractId",
          "type": "uint256"
        },
        {
          "internalType": "bool",
          "name": "approve",
          "type": "bool"
        }
      ],
      "name": "reviewModificationRequest",
      "outputs": [],
      "stateMutability": "nonpayable",
      "type": "function"
    },
    {
      "inputs": [
        {
          "internalType": "uint256",
          "name": "",
          "type": "uint256"
        },
        {
          "internalType": "address",
          "name": "",
          "type": "address"
        }
      ],
      "name": "reviewedBy",
      "outputs": [
        {
          "internalType": "bool",
          "name": "",
          "type": "bool"
        }
      ],
      "stateMutability": "view",
      "type": "function"
    },
    {
      "inputs": [
        {
          "internalType": "address",
          "name": "",
          "type": "address"
        }
      ],
      "name": "roles",
      "outputs": [
        {
          "internalType": "enum ProcurementApproval.Role",
          "name": "",
          "type": "uint8"
        }
      ],
      "stateMutability": "view",
      "type": "function"
    },
    {
      "inputs": [
        {
          "internalType": "uint256",
          "name": "_contractId",
          "type": "uint256"
        },
        {
          "internalType": "string",
          "name": "_newDescription",
          "type": "string"
        },
        {
          "internalType": "uint256",
          "name": "_newValue",
          "type": "uint256"
        },
        {
          "internalType": "uint256",
          "name": "_newDeliveryDate",
          "type": "uint256"
        }
      ],
      "name": "submitModificationRequest",
      "outputs": [],
      "stateMutability": "nonpayable",
      "type": "function"
    }
  ],
  "bytecode": "0x60806040523480156200001157600080fd5b50604051620043aa380380620043aa833981810160405281019062000037919062000449565b336000806101000a81548173ffffffffffffffffffffffffffffffffffffffff021916908373ffffffffffffffffffffffffffffffffffffffff16021790555060018060003373ffffffffffffffffffffffffffffffffffffffff1673ffffffffffffffffffffffffffffffffffffffff16815260200190815260200160002060006101000a81548160ff02191690836003811115620000dc57620000db6200049a565b5b02179055508060089080519060200190620000f9929190620001ad565b5060005b8151811015620001a557600260016000848481518110620001235762000122620004c9565b5b602002602001015173ffffffffffffffffffffffffffffffffffffffff1673ffffffffffffffffffffffffffffffffffffffff16815260200190815260200160002060006101000a81548160ff021916908360038111156200018a57620001896200049a565b5b021790555080806200019c9062000531565b915050620000fd565b50506200057e565b82805482825590600052602060002090810192821562000229579160200282015b82811115620002285782518260006101000a81548173ffffffffffffffffffffffffffffffffffffffff021916908373ffffffffffffffffffffffffffffffffffffffff16021790555091602001919060010190620001ce565b5b5090506200023891906200023c565b5090565b5b80821115620002575760008160009055506001016200023d565b5090565b6000604051905090565b600080fd5b600080fd5b600080fd5b6000601f19601f8301169050919050565b7f4e487b7100000000000000000000000000000000000000000000000000000000600052604160045260246000fd5b620002bf8262000274565b810181811067ffffffffffffffff82111715620002e157620002e062000285565b5b80604052505050565b6000620002f66200025b565b9050620003048282620002b4565b919050565b600067ffffffffffffffff82111562000327576200032662000285565b5b602082029050602081019050919050565b600080fd5b600073ffffffffffffffffffffffffffffffffffffffff82169050919050565b60006200036a826200033d565b9050919050565b6200037c816200035d565b81146200038857600080fd5b50565b6000815190506200039c8162000371565b92915050565b6000620003b9620003b38462000309565b620002ea565b90508083825260208201905060208402830185811115620003df57620003de62000338565b5b835b818110156200040c5780620003f788826200038b565b845260208401935050602081019050620003e1565b5050509392505050565b600082601f8301126200042e576200042d6200026f565b5b815162000440848260208601620003a2565b91505092915050565b60006020828403121562000462576200046162000265565b5b600082015167ffffffffffffffff8111156200048357620004826200026a565b5b620004918482850162000416565b91505092915050565b7f4e487b7100000000000000000000000000000000000000000000000000000000600052602160045260246000fd5b7f4e487b7100000000000000000000000000000000000000000000000000000000600052603260045260246000fd5b7f4e487b7100000000000000000000000000000000000000000000000000000000600052601160045260246000fd5b6000819050919050565b60006200053e8262000527565b91507fffffffffffffffffffffffffffffffffffffffffffffffffffffffffffffffff8203620005735762000572620004f8565b5b600182019050919050565b613e1c806200058e6000396000f3fe608060405234801561001057600080fd5b50600436106101215760003560e01c80636783dff9116100ad578063993746421161007157806399374642146103235780639e3c725214610353578063d3650fb81461036f578063f73604c71461039f578063f9d52bed146103bd57610121565b80636783dff9146102505780636ebc8c861461026c57806385667f1c146102a55780638da5cb5b146102d557806398a6dedb146102f357610121565b80633cedaa20116100f45780633cedaa20146101b0578063530ea55a146101cc57806362c35c01146101fc578063630a195b14610218578063650ed9b51461023457610121565b806303992ee714610126578063067bd3b41461015657806318d3ce9614610174578063238e5b8514610192575b600080fd5b610140600480360381019061013b91906124d9565b6103db565b60405161014d9190612534565b60405180910390f35b61015e61040a565b60405161016b919061255e565b60405180910390f35b61017c610410565b60405161018991906127fc565b60405180910390f35b61019a6107cb565b6040516101a7919061255e565b60405180910390f35b6101ca60048036038101906101c59190612953565b6107d0565b005b6101e660048036038101906101e191906129d6565b610cc0565b6040516101f3919061255e565b60405180910390f35b610216600480360381019061021191906129d6565b610d30565b005b610232600480360381019061022d9190612a28565b611069565b005b61024e60048036038101906102499190612a68565b611162565b005b61026a600480360381019061026591906129d6565b6113e2565b005b610286600480360381019061028191906129d6565b611781565b60405161029c9a99989796959493929190612b01565b60405180910390f35b6102bf60048036038101906102ba91906124d9565b611aa6565b6040516102cc9190612534565b60405180910390f35b6102dd611ad5565b6040516102ea9190612bb9565b60405180910390f35b61030d60048036038101906103089190612bd4565b611af9565b60405161031a919061255e565b60405180910390f35b61033d60048036038101906103389190612cd1565b611e8f565b60405161034a9190612d75565b60405180910390f35b61036d60048036038101906103689190612dbc565b611eaf565b005b610389600480360381019061038491906129d6565b612298565b6040516103969190612bb9565b60405180910390f35b6103a76122d7565b6040516103b4919061255e565b60405180910390f35b6103c56122dc565b6040516103d2919061255e565b60405180910390f35b60076020528160005260406000206020528060005260406000206000915091509054906101000a900460ff1681565b60025481565b6060600060025467ffffffffffffffff8111156104305761042f612828565b5b60405190808252806020026020018201604052801561046957816020015b6104566123bf565b81526020019060019003908161044e5790505b5090506000600190505b60025481116107c3576003600082815260200190815260200160002060405180610160016040529081600082015481526020016001820180546104b590612e2b565b80601f01602080910402602001604051908101604052809291908181526020018280546104e190612e2b565b801561052e5780601f106105035761010080835404028352916020019161052e565b820191906000526020600020905b81548152906001019060200180831161051157829003601f168201915b5050505050815260200160028201805461054790612e2b565b80601f016020809104026020016040519081016040528092919081815260200182805461057390612e2b565b80156105c05780601f10610595576101008083540402835291602001916105c0565b820191906000526020600020905b8154815290600101906020018083116105a357829003601f168201915b505050505081526020016003820180546105d990612e2b565b80601f016020809104026020016040519081016040528092919081815260200182805461060590612e2b565b80156106525780601f1061062757610100808354040283529160200191610652565b820191906000526020600020905b81548152906001019060200180831161063557829003601f168201915b505050505081526020016004820160009054906101000a900473ffffffffffffffffffffffffffffffffffffffff1673ffffffffffffffffffffffffffffffffffffffff1673ffffffffffffffffffffffffffffffffffffffff168152602001600582015481526020016006820180546106cb90612e2b565b80601f01602080910402602001604051908101604052809291908181526020018280546106f790612e2b565b80156107445780601f1061071957610100808354040283529160200191610744565b820191906000526020600020905b81548152906001019060200180831161072757829003601f168201915b50505050508152602001600782015481526020016008820160009054906101000a900460ff1615151515815260200160098201548152602001600a82015481525050826001836107949190612e8b565b815181106107a5576107a4612ebf565b5b602002602001018190525080806107bb90612eee565b915050610473565b508091505090565b601981565b600160038111156107e4576107e3612cfe565b5b600160003373ffffffffffffffffffffffffffffffffffffffff1673ffffffffffffffffffffffffffffffffffffffff16815260200190815260200160002060009054906101000a900460ff16600381111561084357610842612cfe565b5b14610883576040517f08c379a000000000000000000000000000000000000000000000000000000000815260040161087a90612fa8565b60405180910390fd5b60008411801561089557506002548411155b6108d4576040517f08c379a00000000000000000000000000000000000000000000000000000000081526004016108cb90613014565b60405180910390fd5b6005600085815260200190815260200160002060009054906101000a900460ff1615610935576040517f08c379a000000000000000000000000000000000000000000000000000000000815260040161092c90613080565b60405180910390fd5b6000600360008681526020019081526020016000209050600060646019836005015461096191906130a0565b61096b9190613111565b826005015461097a9190613142565b905080841115610a0c57853373ffffffffffffffffffffffffffffffffffffffff167f576067e83f0214a6d12f8b14509bf9a711a4b5e8a0b4d131e20d034146c5d9406040516109c9906131e8565b60405180910390a36040517f08c379a0000000000000000000000000000000000000000000000000000000008152600401610a0390613254565b60405180910390fd5b62015180601e610a1c91906130a0565b82600a0154610a2b9190613142565b831115610aba57853373ffffffffffffffffffffffffffffffffffffffff167f576067e83f0214a6d12f8b14509bf9a711a4b5e8a0b4d131e20d034146c5d940604051610a77906132e6565b60405180910390a36040517f08c379a0000000000000000000000000000000000000000000000000000000008152600401610ab190613378565b60405180910390fd5b60005b600880549050811015610b8457600060076000898152602001908152602001600020600060088481548110610af557610af4612ebf565b5b9060005260206000200160009054906101000a900473ffffffffffffffffffffffffffffffffffffffff1673ffffffffffffffffffffffffffffffffffffffff1673ffffffffffffffffffffffffffffffffffffffff16815260200190815260200160002060006101000a81548160ff0219169083151502179055508080610b7c90612eee565b915050610abd565b50600060046000888152602001908152602001600020905086816000018190555085816001019081610bb69190613544565b50848160020181905550838160030181905550338160040160006101000a81548173ffffffffffffffffffffffffffffffffffffffff021916908373ffffffffffffffffffffffffffffffffffffffff16021790555060008160040160146101000a81548160ff02191690831515021790555060008160040160156101000a81548160ff0219169083151502179055506000816005018190555060016005600089815260200190815260200160002060006101000a81548160ff0219169083151502179055507f717e0db543c76152346fcc3ab6910a281d12bcd0e9b0957223580e81be029ffe878633604051610caf93929190613616565b60405180910390a150505050505050565b60008082118015610cd357506002548211155b610d12576040517f08c379a0000000000000000000000000000000000000000000000000000000008152600401610d0990613014565b60405180910390fd5b60036000838152602001908152602001600020600a01549050919050565b60026003811115610d4457610d43612cfe565b5b600160003373ffffffffffffffffffffffffffffffffffffffff1673ffffffffffffffffffffffffffffffffffffffff16815260200190815260200160002060009054906101000a900460ff166003811115610da357610da2612cfe565b5b14610de3576040517f08c379a0000000000000000000000000000000000000000000000000000000008152600401610dda90613699565b60405180910390fd5b600081118015610df557506002548111155b610e34576040517f08c379a0000000000000000000000000000000000000000000000000000000008152600401610e2b90613014565b60405180910390fd5b60006003600083815260200190815260200160002090508060080160009054906101000a900460ff1615610e9d576040517f08c379a0000000000000000000000000000000000000000000000000000000008152600401610e9490613705565b60405180910390fd5b6006600083815260200190815260200160002060003373ffffffffffffffffffffffffffffffffffffffff1673ffffffffffffffffffffffffffffffffffffffff16815260200190815260200160002060009054906101000a900460ff1615610f3b576040517f08c379a0000000000000000000000000000000000000000000000000000000008152600401610f3290613771565b60405180910390fd5b60016006600084815260200190815260200160002060003373ffffffffffffffffffffffffffffffffffffffff1673ffffffffffffffffffffffffffffffffffffffff16815260200190815260200160002060006101000a81548160ff021916908315150217905550806007016000815480929190610fb990612eee565b91905055504281600901819055507f9a2dd59e3f91eee224a4cde5bedb4195d0a6efef40e136fd4f945d91b45a69e08233604051610ff8929190613791565b60405180910390a16008805490508160070154106110655760018160080160006101000a81548160ff0219169083151502179055507fd5557efea53b6a3fcd0a5cc0c1c846f8dd7c5c45b86fef3086802ece46a9bec78260405161105c919061255e565b60405180910390a15b5050565b60008054906101000a900473ffffffffffffffffffffffffffffffffffffffff1673ffffffffffffffffffffffffffffffffffffffff163373ffffffffffffffffffffffffffffffffffffffff16146110f7576040517f08c379a00000000000000000000000000000000000000000000000000000000081526004016110ee90613806565b60405180910390fd5b80600160008473ffffffffffffffffffffffffffffffffffffffff1673ffffffffffffffffffffffffffffffffffffffff16815260200190815260200160002060006101000a81548160ff0219169083600381111561115957611158612cfe565b5b02179055505050565b6001600381111561117657611175612cfe565b5b600160003373ffffffffffffffffffffffffffffffffffffffff1673ffffffffffffffffffffffffffffffffffffffff16815260200190815260200160002060009054906101000a900460ff1660038111156111d5576111d4612cfe565b5b14611215576040517f08c379a000000000000000000000000000000000000000000000000000000000815260040161120c90612fa8565b60405180910390fd5b60008211801561122757506002548211155b611266576040517f08c379a000000000000000000000000000000000000000000000000000000000815260040161125d90613014565b60405180910390fd5b60006003600084815260200190815260200160002090508060080160009054906101000a900460ff16156112cf576040517f08c379a00000000000000000000000000000000000000000000000000000000081526004016112c690613872565b60405180910390fd5b60006064600a83600501546112e491906130a0565b6112ee9190613111565b82600501546112fd9190613142565b90508083111561138f57833373ffffffffffffffffffffffffffffffffffffffff167f576067e83f0214a6d12f8b14509bf9a711a4b5e8a0b4d131e20d034146c5d94060405161134c906138de565b60405180910390a36040517f08c379a0000000000000000000000000000000000000000000000000000000008152600401611386906138de565b60405180910390fd5b8282600501819055504282600901819055507f5d269508dd2331f686991c0451aa12ac85618322cc4af4ed81afe62313e548f48484336040516113d493929190613616565b60405180910390a150505050565b600260038111156113f6576113f5612cfe565b5b600160003373ffffffffffffffffffffffffffffffffffffffff1673ffffffffffffffffffffffffffffffffffffffff16815260200190815260200160002060009054906101000a900460ff16600381111561145557611454612cfe565b5b14611495576040517f08c379a000000000000000000000000000000000000000000000000000000000815260040161148c90613699565b60405180910390fd5b6000811180156114a757506002548111155b6114e6576040517f08c379a00000000000000000000000000000000000000000000000000000000081526004016114dd90613014565b60405180910390fd5b6005600082815260200190815260200160002060009054906101000a900460ff16611546576040517f08c379a000000000000000000000000000000000000000000000000000000000815260040161153d9061394a565b60405180910390fd5b6007600082815260200190815260200160002060003373ffffffffffffffffffffffffffffffffffffffff1673ffffffffffffffffffffffffffffffffffffffff16815260200190815260200160002060009054906101000a900460ff16156115e4576040517f08c379a00000000000000000000000000000000000000000000000000000000081526004016115db906139b6565b60405180910390fd5b60016007600083815260200190815260200160002060003373ffffffffffffffffffffffffffffffffffffffff1673ffffffffffffffffffffffffffffffffffffffff16815260200190815260200160002060006101000a81548160ff02191690831515021790555060006004600083815260200190815260200160002090507f61f5cc44874187ca08ac991bd5f77753975740aea2737aa7a31fe5722f1249c582336000604051611698939291906139d6565b60405180910390a160006116ab836122e1565b90506000600880549050905080600284600501546116c991906130a0565b111580156116d657508082145b1561177b5760006005600086815260200190815260200160002060006101000a81548160ff02191690831515021790555060018360040160146101000a81548160ff02191690831515021790555060008360040160156101000a81548160ff0219169083151502179055507f2d8ffb7051deb57e6343abeb392fdfc2c403c703c718dd23ceedf87a1a18936f8433604051611772929190613791565b60405180910390a15b50505050565b6000606080606060008060606000806000808b1180156117a357506002548b11155b6117e2576040517f08c379a00000000000000000000000000000000000000000000000000000000081526004016117d990613014565b60405180910390fd5b6000600360008d8152602001908152602001600020905080600001548160010182600201836003018460040160009054906101000a900473ffffffffffffffffffffffffffffffffffffffff1685600501548660060187600701548860080160009054906101000a900460ff16896009015488805461186090612e2b565b80601f016020809104026020016040519081016040528092919081815260200182805461188c90612e2b565b80156118d95780601f106118ae576101008083540402835291602001916118d9565b820191906000526020600020905b8154815290600101906020018083116118bc57829003601f168201915b505050505098508780546118ec90612e2b565b80601f016020809104026020016040519081016040528092919081815260200182805461191890612e2b565b80156119655780601f1061193a57610100808354040283529160200191611965565b820191906000526020600020905b81548152906001019060200180831161194857829003601f168201915b5050505050975086805461197890612e2b565b80601f01602080910402602001604051908101604052809291908181526020018280546119a490612e2b565b80156119f15780601f106119c6576101008083540402835291602001916119f1565b820191906000526020600020905b8154815290600101906020018083116119d457829003601f168201915b50505050509650838054611a0490612e2b565b80601f0160208091040260200160405190810160405280929190818152602001828054611a3090612e2b565b8015611a7d5780601f10611a5257610100808354040283529160200191611a7d565b820191906000526020600020905b815481529060010190602001808311611a6057829003601f168201915b505050505093509a509a509a509a509a509a509a509a509a509a50509193959799509193959799565b60066020528160005260406000206020528060005260406000206000915091509054906101000a900460ff1681565b60008054906101000a900473ffffffffffffffffffffffffffffffffffffffff1681565b600060016003811115611b0f57611b0e612cfe565b5b600160003373ffffffffffffffffffffffffffffffffffffffff1673ffffffffffffffffffffffffffffffffffffffff16815260200190815260200160002060009054906101000a900460ff166003811115611b6e57611b6d612cfe565b5b14611bae576040517f08c379a0000000000000000000000000000000000000000000000000000000008152600401611ba590612fa8565b60405180910390fd5b6000875111611bf2576040517f08c379a0000000000000000000000000000000000000000000000000000000008152600401611be990613a59565b60405180910390fd5b6000865111611c36576040517f08c379a0000000000000000000000000000000000000000000000000000000008152600401611c2d90613ac5565b60405180910390fd5b6000855111611c7a576040517f08c379a0000000000000000000000000000000000000000000000000000000008152600401611c7190613b31565b60405180910390fd5b60008411611cbd576040517f08c379a0000000000000000000000000000000000000000000000000000000008152600401611cb490613b9d565b60405180910390fd5b6000835111611d01576040517f08c379a0000000000000000000000000000000000000000000000000000000008152600401611cf890613c09565b60405180910390fd5b428211611d43576040517f08c379a0000000000000000000000000000000000000000000000000000000008152600401611d3a90613c75565b60405180910390fd5b60026000815480929190611d5690612eee565b919050555060006003600060025481526020019081526020016000209050600254816000018190555087816001019081611d909190613544565b5086816002019081611da29190613544565b5085816003019081611db49190613544565b50338160040160006101000a81548173ffffffffffffffffffffffffffffffffffffffff021916908373ffffffffffffffffffffffffffffffffffffffff16021790555084816005018190555083816006019081611e129190613544565b5060008160080160006101000a81548160ff0219169083151502179055504281600901819055508281600a01819055507fdc2d392c6b95a9fbdfb129fe615d86a06fa7054018b2e633a2aad3cc47c381de6002548933604051611e7793929190613c95565b60405180910390a16002549150509695505050505050565b60016020528060005260406000206000915054906101000a900460ff1681565b60026003811115611ec357611ec2612cfe565b5b600160003373ffffffffffffffffffffffffffffffffffffffff1673ffffffffffffffffffffffffffffffffffffffff16815260200190815260200160002060009054906101000a900460ff166003811115611f2257611f21612cfe565b5b14611f62576040517f08c379a0000000000000000000000000000000000000000000000000000000008152600401611f5990613699565b60405180910390fd5b600082118015611f7457506002548211155b611fb3576040517f08c379a0000000000000000000000000000000000000000000000000000000008152600401611faa90613014565b60405180910390fd5b6005600083815260200190815260200160002060009054906101000a900460ff16612013576040517f08c379a000000000000000000000000000000000000000000000000000000000815260040161200a9061394a565b60405180910390fd5b6007600083815260200190815260200160002060003373ffffffffffffffffffffffffffffffffffffffff1673ffffffffffffffffffffffffffffffffffffffff16815260200190815260200160002060009054906101000a900460ff16156120b1576040517f08c379a00000000000000000000000000000000000000000000000000000000081526004016120a8906139b6565b60405180910390fd5b60016007600084815260200190815260200160002060003373ffffffffffffffffffffffffffffffffffffffff1673ffffffffffffffffffffffffffffffffffffffff16815260200190815260200160002060006101000a81548160ff021916908315150217905550600060046000848152602001908152602001600020905081156121525780600501600081548092919061214c90612eee565b91905055505b7f61f5cc44874187ca08ac991bd5f77753975740aea2737aa7a31fe5722f1249c5833384604051612185939291906139d6565b60405180910390a16008805490508160050154106122935760018160040160146101000a81548160ff02191690831515021790555060018160040160156101000a81548160ff0219169083151502179055506000600360008581526020019081526020016000209050816001018160020190816122029190613cfe565b5081600201548160050181905550816003015481600a018190555042816009018190555060006005600086815260200190815260200160002060006101000a81548160ff0219169083151502179055507f1c9baca28300ec4686b3977a37589e5e8b3a21ccbe7416f8cab8c213a91eb8088483600201543360405161228993929190613616565b60405180910390a1505b505050565b600881815481106122a857600080fd5b906000526020600020016000915054906101000a900473ffffffffffffffffffffffffffffffffffffffff1681565b601e81565b600a81565b600080600090505b6008805490508110156123b9576007600084815260200190815260200160002060006008838154811061231f5761231e612ebf565b5b9060005260206000200160009054906101000a900473ffffffffffffffffffffffffffffffffffffffff1673ffffffffffffffffffffffffffffffffffffffff1673ffffffffffffffffffffffffffffffffffffffff16815260200190815260200160002060009054906101000a900460ff16156123a65781806123a290612eee565b9250505b80806123b190612eee565b9150506122e9565b50919050565b60405180610160016040528060008152602001606081526020016060815260200160608152602001600073ffffffffffffffffffffffffffffffffffffffff16815260200160008152602001606081526020016000815260200160001515815260200160008152602001600081525090565b6000604051905090565b600080fd5b600080fd5b6000819050919050565b61245881612445565b811461246357600080fd5b50565b6000813590506124758161244f565b92915050565b600073ffffffffffffffffffffffffffffffffffffffff82169050919050565b60006124a68261247b565b9050919050565b6124b68161249b565b81146124c157600080fd5b50565b6000813590506124d3816124ad565b92915050565b600080604083850312156124f0576124ef61243b565b5b60006124fe85828601612466565b925050602061250f858286016124c4565b9150509250929050565b60008115159050919050565b61252e81612519565b82525050565b60006020820190506125496000830184612525565b92915050565b61255881612445565b82525050565b6000602082019050612573600083018461254f565b92915050565b600081519050919050565b600082825260208201905092915050565b6000819050602082019050919050565b6125ae81612445565b82525050565b600081519050919050565b600082825260208201905092915050565b60005b838110156125ee5780820151818401526020810190506125d3565b60008484015250505050565b6000601f19601f8301169050919050565b6000612616826125b4565b61262081856125bf565b93506126308185602086016125d0565b612639816125fa565b840191505092915050565b61264d8161249b565b82525050565b61265c81612519565b82525050565b60006101608301600083015161267b60008601826125a5565b5060208301518482036020860152612693828261260b565b915050604083015184820360408601526126ad828261260b565b915050606083015184820360608601526126c7828261260b565b91505060808301516126dc6080860182612644565b5060a08301516126ef60a08601826125a5565b5060c083015184820360c0860152612707828261260b565b91505060e083015161271c60e08601826125a5565b50610100830151612731610100860182612653565b506101208301516127466101208601826125a5565b5061014083015161275b6101408601826125a5565b508091505092915050565b60006127728383612662565b905092915050565b6000602082019050919050565b600061279282612579565b61279c8185612584565b9350836020820285016127ae85612595565b8060005b858110156127ea57848403895281516127cb8582612766565b94506127d68361277a565b925060208a019950506001810190506127b2565b50829750879550505050505092915050565b600060208201905081810360008301526128168184612787565b905092915050565b600080fd5b600080fd5b7f4e487b7100000000000000000000000000000000000000000000000000000000600052604160045260246000fd5b612860826125fa565b810181811067ffffffffffffffff8211171561287f5761287e612828565b5b80604052505050565b6000612892612431565b905061289e8282612857565b919050565b600067ffffffffffffffff8211156128be576128bd612828565b5b6128c7826125fa565b9050602081019050919050565b82818337600083830152505050565b60006128f66128f1846128a3565b612888565b90508281526020810184848401111561291257612911612823565b5b61291d8482856128d4565b509392505050565b600082601f83011261293a5761293961281e565b5b813561294a8482602086016128e3565b91505092915050565b6000806000806080858703121561296d5761296c61243b565b5b600061297b87828801612466565b945050602085013567ffffffffffffffff81111561299c5761299b612440565b5b6129a887828801612925565b93505060406129b987828801612466565b92505060606129ca87828801612466565b91505092959194509250565b6000602082840312156129ec576129eb61243b565b5b60006129fa84828501612466565b91505092915050565b60048110612a1057600080fd5b50565b600081359050612a2281612a03565b92915050565b60008060408385031215612a3f57612a3e61243b565b5b6000612a4d858286016124c4565b9250506020612a5e85828601612a13565b9150509250929050565b60008060408385031215612a7f57612a7e61243b565b5b6000612a8d85828601612466565b9250506020612a9e85828601612466565b9150509250929050565b600082825260208201905092915050565b6000612ac4826125b4565b612ace8185612aa8565b9350612ade8185602086016125d0565b612ae7816125fa565b840191505092915050565b612afb8161249b565b82525050565b600061014082019050612b17600083018d61254f565b8181036020830152612b29818c612ab9565b90508181036040830152612b3d818b612ab9565b90508181036060830152612b51818a612ab9565b9050612b606080830189612af2565b612b6d60a083018861254f565b81810360c0830152612b7f8187612ab9565b9050612b8e60e083018661254f565b612b9c610100830185612525565b612baa61012083018461254f565b9b9a5050505050505050505050565b6000602082019050612bce6000830184612af2565b92915050565b60008060008060008060c08789031215612bf157612bf061243b565b5b600087013567ffffffffffffffff811115612c0f57612c0e612440565b5b612c1b89828a01612925565b965050602087013567ffffffffffffffff811115612c3c57612c3b612440565b5b612c4889828a01612925565b955050604087013567ffffffffffffffff811115612c6957612c68612440565b5b612c7589828a01612925565b9450506060612c8689828a01612466565b935050608087013567ffffffffffffffff811115612ca757612ca6612440565b5b612cb389828a01612925565b92505060a0612cc489828a01612466565b9150509295509295509295565b600060208284031215612ce757612ce661243b565b5b6000612cf5848285016124c4565b91505092915050565b7f4e487b7100000000000000000000000000000000000000000000000000000000600052602160045260246000fd5b60048110612d3e57612d3d612cfe565b5b50565b6000819050612d4f82612d2d565b919050565b6000612d5f82612d41565b9050919050565b612d6f81612d54565b82525050565b6000602082019050612d8a6000830184612d66565b92915050565b612d9981612519565b8114612da457600080fd5b50565b600081359050612db681612d90565b92915050565b60008060408385031215612dd357612dd261243b565b5b6000612de185828601612466565b9250506020612df285828601612da7565b9150509250929050565b7f4e487b7100000000000000000000000000000000000000000000000000000000600052602260045260246000fd5b60006002820490506001821680612e4357607f821691505b602082108103612e5657612e55612dfc565b5b50919050565b7f4e487b7100000000000000000000000000000000000000000000000000000000600052601160045260246000fd5b6000612e9682612445565b9150612ea183612445565b9250828203905081811115612eb957612eb8612e5c565b5b92915050565b7f4e487b7100000000000000000000000000000000000000000000000000000000600052603260045260246000fd5b6000612ef982612445565b91507fffffffffffffffffffffffffffffffffffffffffffffffffffffffffffffffff8203612f2b57612f2a612e5c565b5b600182019050919050565b7f4f6e6c792070726f637572656d656e74206f6666696365727320616c6c6f776560008201527f6400000000000000000000000000000000000000000000000000000000000000602082015250565b6000612f92602183612aa8565b9150612f9d82612f36565b604082019050919050565b60006020820190508181036000830152612fc181612f85565b9050919050565b7f436f6e747261637420646f6573206e6f74206578697374000000000000000000600082015250565b6000612ffe601783612aa8565b915061300982612fc8565b602082019050919050565b6000602082019050818103600083015261302d81612ff1565b9050919050565b7f50656e64696e67206d6f64696669636174696f6e206578697374730000000000600082015250565b600061306a601b83612aa8565b915061307582613034565b602082019050919050565b600060208201905081810360008301526130998161305d565b9050919050565b60006130ab82612445565b91506130b683612445565b92508282026130c481612445565b915082820484148315176130db576130da612e5c565b5b5092915050565b7f4e487b7100000000000000000000000000000000000000000000000000000000600052601260045260246000fd5b600061311c82612445565b915061312783612445565b925082613137576131366130e2565b5b828204905092915050565b600061314d82612445565b915061315883612445565b92508282019050808211156131705761316f612e5c565b5b92915050565b7f4d6f64696669636174696f6e20726571756573742076616c756520696e63726560008201527f617365206578636565647320323525206c696d69740000000000000000000000602082015250565b60006131d2603583612aa8565b91506131dd82613176565b604082019050919050565b60006020820190508181036000830152613201816131c5565b9050919050565b7f56616c756520696e637265617365206578636565647320323525206c696d6974600082015250565b600061323e602083612aa8565b915061324982613208565b602082019050919050565b6000602082019050818103600083015261326d81613231565b9050919050565b7f4d6f64696669636174696f6e20726571756573742064656c697665727920646160008201527f746520657874656e73696f6e2065786365656473203330206461797300000000602082015250565b60006132d0603c83612aa8565b91506132db82613274565b604082019050919050565b600060208201905081810360008301526132ff816132c3565b9050919050565b7f44656c6976657279206461746520657874656e73696f6e20657863656564732060008201527f3330206461797300000000000000000000000000000000000000000000000000602082015250565b6000613362602783612aa8565b915061336d82613306565b604082019050919050565b6000602082019050818103600083015261339181613355565b9050919050565b60008190508160005260206000209050919050565b60006020601f8301049050919050565b600082821b905092915050565b6000600883026133fa7fffffffffffffffffffffffffffffffffffffffffffffffffffffffffffffffff826133bd565b61340486836133bd565b95508019841693508086168417925050509392505050565b6000819050919050565b600061344161343c61343784612445565b61341c565b612445565b9050919050565b6000819050919050565b61345b83613426565b61346f61346782613448565b8484546133ca565b825550505050565b600090565b613484613477565b61348f818484613452565b505050565b5b818110156134b3576134a860008261347c565b600181019050613495565b5050565b601f8211156134f8576134c981613398565b6134d2846133ad565b810160208510156134e1578190505b6134f56134ed856133ad565b830182613494565b50505b505050565b600082821c905092915050565b600061351b600019846008026134fd565b1980831691505092915050565b6000613534838361350a565b9150826002028217905092915050565b61354d826125b4565b67ffffffffffffffff81111561356657613565612828565b5b6135708254612e2b565b61357b8282856134b7565b600060209050601f8311600181146135ae576000841561359c578287015190505b6135a68582613528565b86555061360e565b601f1984166135bc86613398565b60005b828110156135e4578489015182556001820191506020850194506020810190506135bf565b8683101561360157848901516135fd601f89168261350a565b8355505b6001600288020188555050505b505050505050565b600060608201905061362b600083018661254f565b613638602083018561254f565b6136456040830184612af2565b949350505050565b7f4f6e6c7920617070726f7665727320616c6c6f77656400000000000000000000600082015250565b6000613683601683612aa8565b915061368e8261364d565b602082019050919050565b600060208201905081810360008301526136b281613676565b9050919050565b7f416c72656164792066756c6c7920617070726f76656400000000000000000000600082015250565b60006136ef601683612aa8565b91506136fa826136b9565b602082019050919050565b6000602082019050818103600083015261371e816136e2565b9050919050565b7f416c726561647920617070726f76656420627920796f75000000000000000000600082015250565b600061375b601783612aa8565b915061376682613725565b602082019050919050565b6000602082019050818103600083015261378a8161374e565b9050919050565b60006040820190506137a6600083018561254f565b6137b36020830184612af2565b9392505050565b7f4f6e6c79206f776e657220616c6c6f7765640000000000000000000000000000600082015250565b60006137f0601283612aa8565b91506137fb826137ba565b602082019050919050565b6000602082019050818103600083015261381f816137e3565b9050919050565b7f43616e6e6f74206d6f6469667920617070726f76656420636f6e747261637400600082015250565b600061385c601f83612aa8565b915061386782613826565b602082019050919050565b6000602082019050818103600083015261388b8161384f565b9050919050565b7f56616c756520696e637265617365206578636565647320313025206c696d6974600082015250565b60006138c8602083612aa8565b91506138d382613892565b602082019050919050565b600060208201905081810360008301526138f7816138bb565b9050919050565b7f4e6f2070656e64696e67206d6f64696669636174696f6e000000000000000000600082015250565b6000613934601783612aa8565b915061393f826138fe565b602082019050919050565b6000602082019050818103600083015261396381613927565b9050919050565b7f416c726561647920726576696577656400000000000000000000000000000000600082015250565b60006139a0601083612aa8565b91506139ab8261396a565b602082019050919050565b600060208201905081810360008301526139cf81613993565b9050919050565b60006060820190506139eb600083018661254f565b6139f86020830185612af2565b613a056040830184612525565b949350505050565b7f5469746c65207265717569726564000000000000000000000000000000000000600082015250565b6000613a43600e83612aa8565b9150613a4e82613a0d565b602082019050919050565b60006020820190508181036000830152613a7281613a36565b9050919050565b7f4465736372697074696f6e207265717569726564000000000000000000000000600082015250565b6000613aaf601483612aa8565b9150613aba82613a79565b602082019050919050565b60006020820190508181036000830152613ade81613aa2565b9050919050565b7f537570706c696572206e616d6520726571756972656400000000000000000000600082015250565b6000613b1b601683612aa8565b9150613b2682613ae5565b602082019050919050565b60006020820190508181036000830152613b4a81613b0e565b9050919050565b7f56616c7565206d757374206265203e2030000000000000000000000000000000600082015250565b6000613b87601183612aa8565b9150613b9282613b51565b602082019050919050565b60006020820190508181036000830152613bb681613b7a565b9050919050565b7f46696c6520686173682072657175697265640000000000000000000000000000600082015250565b6000613bf3601283612aa8565b9150613bfe82613bbd565b602082019050919050565b60006020820190508181036000830152613c2281613be6565b9050919050565b7f44656c69766572792064617465206d7573742062652066757475726500000000600082015250565b6000613c5f601c83612aa8565b9150613c6a82613c29565b602082019050919050565b60006020820190508181036000830152613c8e81613c52565b9050919050565b6000606082019050613caa600083018661254f565b8181036020830152613cbc8185612ab9565b9050613ccb6040830184612af2565b949350505050565b600081549050613ce281612e2b565b9050919050565b60008190508160005260206000209050919050565b818103613d0c575050613de4565b613d1582613cd3565b67ffffffffffffffff811115613d2e57613d2d612828565b5b613d388254612e2b565b613d438282856134b7565b6000601f831160018114613d725760008415613d60578287015490505b613d6a8582613528565b865550613ddd565b601f198416613d8087613ce9565b9650613d8b86613398565b60005b82811015613db357848901548255600182019150600185019450602081019050613d8e565b86831015613dd05784890154613dcc601f89168261350a565b8355505b6001600288020188555050505b5050505050505b56fea26469706673582212206337cf6d78ddcb6701836b66ecac85373a776800428abfb29070851efc89b92364736f6c63430008140033",
  "linkReferences": {},
  "deployedLinkReferences": {}
}