{
  "_format": "hh-sol-artifact-1",
  "contractName": "ProcurementApproval",
  "sourceName": "contracts/ProcurementApproval.sol",
  "abi": [
    {
      "inputs": [
        {
          "internalType": "address[]",
          "name": "_approvers",
          "type": "address[]"
        }
      ],
      "stateMutability": "nonpayable",
      "type": "constructor"
    },
    {
      "anonymous": false,
      "inputs": [
        {
          "indexed": false,
          "internalType": "uint256",
          "name": "contractId",
          "type": "uint256"
        },
        {
          "indexed": false,
          "internalType": "string",
          "name": "title",
          "type": "string"
        },
        {
          "indexed": false,
          "internalType": "address",
          "name": "creator",
          "type": "address"
        }
      ],
      "name": "ContractCreated",
      "type": "event"
    },
    {
      "anonymous": false,
      "inputs": [
        {
          "indexed": false,
          "internalType": "uint256",
          "name": "contractId",
          "type": "uint256"
        },
        {
          "indexed": false,
          "internalType": "uint256",
          "name": "newValue",
          "type": "uint256"
        },
        {
          "indexed": false,
          "internalType": "address",
          "name": "modifiedBy",
          "type": "address"
        }
      ],
      "name": "ContractModified",
      "type": "event"
    },
    {
      "anonymous": false,
      "inputs": [
        {
          "indexed": false,
          "internalType": "uint256",
          "name": "contractId",
          "type": "uint256"
        },
        {
          "indexed": false,
          "internalType": "uint256",
          "name": "newValue",
          "type": "uint256"
        },
        {
          "indexed": false,
          "internalType": "address",
          "name": "appliedBy",
          "type": "address"
        }
      ],
      "name": "ModificationApplied",
      "type": "event"
    },
    {
      "anonymous": false,
      "inputs": [
        {
          "indexed": false,
          "internalType": "uint256",
          "name": "contractId",
          "type": "uint256"
        },
        {
          "indexed": false,
          "internalType": "uint256",
          "name": "proposedValue",
          "type": "uint256"
        },
        {
          "indexed": false,
          "internalType": "address",
          "name": "submittedBy",
          "type": "address"
        }
      ],
      "name": "ModificationRequested",
      "type": "event"
    },
    {
      "anonymous": false,
      "inputs": [
        {
          "indexed": false,
          "internalType": "uint256",
          "name": "contractId",
          "type": "uint256"
        },
        {
          "indexed": false,
          "internalType": "address",
          "name": "reviewedBy",
          "type": "address"
        },
        {
          "indexed": false,
          "internalType": "bool",
          "name": "approved",
          "type": "bool"
        }
      ],
      "name": "ModificationReviewed",
      "type": "event"
    },
    {
      "inputs": [
        {
          "internalType": "uint256",
          "name": "_id",
          "type": "uint256"
        }
      ],
      "name": "approveContract",
      "outputs": [],
      "stateMutability": "nonpayable",
      "type": "function"
    },
    {
      "inputs": [
        {
          "internalType": "uint256",
          "name": "",
          "type": "uint256"
        },
        {
          "internalType": "address",
          "name": "",
          "type": "address"
        }
      ],
      "name": "approvedBy",
      "outputs": [
        {
          "internalType": "bool",
          "name": "",
          "type": "bool"
        }
      ],
      "stateMutability": "view",
      "type": "function"
    },
    {
      "inputs": [
        {
          "internalType": "uint256",
          "name": "",
          "type": "uint256"
        }
      ],
      "name": "approvers",
      "outputs": [
        {
          "internalType": "address",
          "name": "",
          "type": "address"
        }
      ],
      "stateMutability": "view",
      "type": "function"
    },
    {
      "inputs": [],
      "name": "contractCounter",
      "outputs": [
        {
          "internalType": "uint256",
          "name": "",
          "type": "uint256"
        }
      ],
      "stateMutability": "view",
      "type": "function"
    },
    {
      "inputs": [
        {
          "internalType": "string",
          "name": "_title",
          "type": "string"
        },
        {
          "internalType": "string",
          "name": "_description",
          "type": "string"
        },
        {
          "internalType": "uint256",
          "name": "_value",
          "type": "uint256"
        },
        {
          "internalType": "string",
          "name": "_fileHash",
          "type": "string"
        }
      ],
      "name": "createContract",
      "outputs": [
        {
          "internalType": "uint256",
          "name": "",
          "type": "uint256"
        }
      ],
      "stateMutability": "nonpayable",
      "type": "function"
    },
    {
      "inputs": [],
      "name": "getAllContracts",
      "outputs": [
        {
          "components": [
            {
              "internalType": "uint256",
              "name": "id",
              "type": "uint256"
            },
            {
              "internalType": "string",
              "name": "title",
              "type": "string"
            },
            {
              "internalType": "string",
              "name": "description",
              "type": "string"
            },
            {
              "internalType": "address",
              "name": "creator",
              "type": "address"
            },
            {
              "internalType": "uint256",
              "name": "value",
              "type": "uint256"
            },
            {
              "internalType": "string",
              "name": "fileHash",
              "type": "string"
            },
            {
              "internalType": "uint256",
              "name": "approvals",
              "type": "uint256"
            },
            {
              "internalType": "bool",
              "name": "isApproved",
              "type": "bool"
            },
            {
              "internalType": "uint256",
              "name": "lastModified",
              "type": "uint256"
            }
          ],
          "internalType": "struct ProcurementApproval.ProcurementContract[]",
          "name": "",
          "type": "tuple[]"
        }
      ],
      "stateMutability": "view",
      "type": "function"
    },
    {
      "inputs": [],
      "name": "getApprovers",
      "outputs": [
        {
          "internalType": "address[]",
          "name": "",
          "type": "address[]"
        }
      ],
      "stateMutability": "view",
      "type": "function"
    },
    {
      "inputs": [
        {
          "internalType": "uint256",
          "name": "_id",
          "type": "uint256"
        }
      ],
      "name": "getContract",
      "outputs": [
        {
          "internalType": "uint256",
          "name": "id",
          "type": "uint256"
        },
        {
          "internalType": "string",
          "name": "title",
          "type": "string"
        },
        {
          "internalType": "string",
          "name": "description",
          "type": "string"
        },
        {
          "internalType": "address",
          "name": "creator",
          "type": "address"
        },
        {
          "internalType": "uint256",
          "name": "value",
          "type": "uint256"
        },
        {
          "internalType": "string",
          "name": "fileHash",
          "type": "string"
        },
        {
          "internalType": "uint256",
          "name": "approvals",
          "type": "uint256"
        },
        {
          "internalType": "bool",
          "name": "isApproved",
          "type": "bool"
        },
        {
          "internalType": "uint256",
          "name": "lastModified",
          "type": "uint256"
        }
      ],
      "stateMutability": "view",
      "type": "function"
    },
    {
      "inputs": [
        {
          "internalType": "address",
          "name": "user",
          "type": "address"
        }
      ],
      "name": "getUserRole",
      "outputs": [
        {
          "internalType": "string",
          "name": "",
          "type": "string"
        }
      ],
      "stateMutability": "view",
      "type": "function"
    },
    {
      "inputs": [
        {
          "internalType": "uint256",
          "name": "_id",
          "type": "uint256"
        },
        {
          "internalType": "address",
          "name": "_user",
          "type": "address"
        }
      ],
      "name": "hasApproved",
      "outputs": [
        {
          "internalType": "bool",
          "name": "",
          "type": "bool"
        }
      ],
      "stateMutability": "view",
      "type": "function"
    },
    {
      "inputs": [
        {
          "internalType": "uint256",
          "name": "_id",
          "type": "uint256"
        },
        {
          "internalType": "uint256",
          "name": "_newValue",
          "type": "uint256"
        }
      ],
      "name": "modifyContractValue",
      "outputs": [],
      "stateMutability": "nonpayable",
      "type": "function"
    },
    {
      "inputs": [],
      "name": "owner",
      "outputs": [
        {
          "internalType": "address",
          "name": "",
          "type": "address"
        }
      ],
      "stateMutability": "view",
      "type": "function"
    },
    {
      "inputs": [
        {
          "internalType": "uint256",
          "name": "_contractId",
          "type": "uint256"
        },
        {
          "internalType": "bool",
          "name": "approve",
          "type": "bool"
        }
      ],
      "name": "reviewModificationRequest",
      "outputs": [],
      "stateMutability": "nonpayable",
      "type": "function"
    },
    {
      "inputs": [
        {
          "internalType": "uint256",
          "name": "",
          "type": "uint256"
        },
        {
          "internalType": "address",
          "name": "",
          "type": "address"
        }
      ],
      "name": "reviewedBy",
      "outputs": [
        {
          "internalType": "bool",
          "name": "",
          "type": "bool"
        }
      ],
      "stateMutability": "view",
      "type": "function"
    },
    {
      "inputs": [
        {
          "internalType": "address",
          "name": "",
          "type": "address"
        }
      ],
      "name": "roles",
      "outputs": [
        {
          "internalType": "enum ProcurementApproval.Role",
          "name": "",
          "type": "uint8"
        }
      ],
      "stateMutability": "view",
      "type": "function"
    },
    {
      "inputs": [
        {
          "internalType": "address",
          "name": "user",
          "type": "address"
        },
        {
          "internalType": "string",
          "name": "role",
          "type": "string"
        }
      ],
      "name": "setUserRole",
      "outputs": [],
      "stateMutability": "nonpayable",
      "type": "function"
    },
    {
      "inputs": [
        {
          "internalType": "uint256",
          "name": "_contractId",
          "type": "uint256"
        },
        {
          "internalType": "string",
          "name": "_newDescription",
          "type": "string"
        },
        {
          "internalType": "uint256",
          "name": "_newValue",
          "type": "uint256"
        }
      ],
      "name": "submitModificationRequest",
      "outputs": [],
      "stateMutability": "nonpayable",
      "type": "function"
    }
  ],
  "bytecode": "0x60806040523480156200001157600080fd5b50604051620039e1380380620039e1833981810160405281019062000037919062000449565b336000806101000a81548173ffffffffffffffffffffffffffffffffffffffff021916908373ffffffffffffffffffffffffffffffffffffffff16021790555060018060003373ffffffffffffffffffffffffffffffffffffffff1673ffffffffffffffffffffffffffffffffffffffff16815260200190815260200160002060006101000a81548160ff02191690836003811115620000dc57620000db6200049a565b5b02179055508060089080519060200190620000f9929190620001ad565b5060005b8151811015620001a557600260016000848481518110620001235762000122620004c9565b5b602002602001015173ffffffffffffffffffffffffffffffffffffffff1673ffffffffffffffffffffffffffffffffffffffff16815260200190815260200160002060006101000a81548160ff021916908360038111156200018a57620001896200049a565b5b021790555080806200019c9062000531565b915050620000fd565b50506200057e565b82805482825590600052602060002090810192821562000229579160200282015b82811115620002285782518260006101000a81548173ffffffffffffffffffffffffffffffffffffffff021916908373ffffffffffffffffffffffffffffffffffffffff16021790555091602001919060010190620001ce565b5b5090506200023891906200023c565b5090565b5b80821115620002575760008160009055506001016200023d565b5090565b6000604051905090565b600080fd5b600080fd5b600080fd5b6000601f19601f8301169050919050565b7f4e487b7100000000000000000000000000000000000000000000000000000000600052604160045260246000fd5b620002bf8262000274565b810181811067ffffffffffffffff82111715620002e157620002e062000285565b5b80604052505050565b6000620002f66200025b565b9050620003048282620002b4565b919050565b600067ffffffffffffffff82111562000327576200032662000285565b5b602082029050602081019050919050565b600080fd5b600073ffffffffffffffffffffffffffffffffffffffff82169050919050565b60006200036a826200033d565b9050919050565b6200037c816200035d565b81146200038857600080fd5b50565b6000815190506200039c8162000371565b92915050565b6000620003b9620003b38462000309565b620002ea565b90508083825260208201905060208402830185811115620003df57620003de62000338565b5b835b818110156200040c5780620003f788826200038b565b845260208401935050602081019050620003e1565b5050509392505050565b600082601f8301126200042e576200042d6200026f565b5b815162000440848260208601620003a2565b91505092915050565b60006020828403121562000462576200046162000265565b5b600082015167ffffffffffffffff8111156200048357620004826200026a565b5b620004918482850162000416565b91505092915050565b7f4e487b7100000000000000000000000000000000000000000000000000000000600052602160045260246000fd5b7f4e487b7100000000000000000000000000000000000000000000000000000000600052603260045260246000fd5b7f4e487b7100000000000000000000000000000000000000000000000000000000600052601160045260246000fd5b6000819050919050565b60006200053e8262000527565b91507fffffffffffffffffffffffffffffffffffffffffffffffffffffffffffffffff8203620005735762000572620004f8565b5b600182019050919050565b613453806200058e6000396000f3fe608060405234801561001057600080fd5b506004361061010b5760003560e01c80636cb3e8ef116100a257806385667f1c1161007157806385667f1c146102d25780638da5cb5b1461030257806399374642146103205780639e3c725214610350578063d3650fb81461036c5761010b565b80636cb3e8ef146102445780636ebc8c8614610262578063724de9791461029a57806383331a13146102b65761010b565b8063254e5e22116100de578063254e5e22146101ac57806327820851146101dc57806362c35c011461020c578063650ed9b5146102285761010b565b806303992ee714610110578063067bd3b41461014057806318d3ce961461015e5780632358d5a81461017c575b600080fd5b61012a60048036038101906101259190611ddb565b61039c565b6040516101379190611e36565b60405180910390f35b6101486103cb565b6040516101559190611e60565b60405180910390f35b6101666103d1565b60405161017391906120cd565b60405180910390f35b61019660048036038101906101919190611ddb565b6106f0565b6040516101a39190611e36565b60405180910390f35b6101c660048036038101906101c19190612224565b610758565b6040516101d39190611e60565b60405180910390f35b6101f660048036038101906101f191906122df565b61093c565b6040516102039190612356565b60405180910390f35b61022660048036038101906102219190612378565b610b9a565b005b610242600480360381019061023d91906123a5565b610e12565b005b61024c610fdf565b6040516102599190612494565b60405180910390f35b61027c60048036038101906102779190612378565b61106d565b604051610291999897969594939291906124c5565b60405180910390f35b6102b460048036038101906102af9190612567565b6112ad565b005b6102d060048036038101906102cb91906125c3565b611591565b005b6102ec60048036038101906102e79190611ddb565b611892565b6040516102f99190611e36565b60405180910390f35b61030a6118c1565b6040516103179190612632565b60405180910390f35b61033a600480360381019061033591906122df565b6118e5565b60405161034791906126c4565b60405180910390f35b61036a6004803603810190610365919061270b565b611905565b005b61038660048036038101906103819190612378565b611c90565b6040516103939190612632565b60405180910390f35b60076020528160005260406000206020528060005260406000206000915091509054906101000a900460ff1681565b60025481565b6060600060025467ffffffffffffffff8111156103f1576103f06120f9565b5b60405190808252806020026020018201604052801561042a57816020015b610417611ccf565b81526020019060019003908161040f5790505b5090506000600190505b60025481116106e8576003600082815260200190815260200160002060405180610120016040529081600082015481526020016001820180546104769061277a565b80601f01602080910402602001604051908101604052809291908181526020018280546104a29061277a565b80156104ef5780601f106104c4576101008083540402835291602001916104ef565b820191906000526020600020905b8154815290600101906020018083116104d257829003601f168201915b505050505081526020016002820180546105089061277a565b80601f01602080910402602001604051908101604052809291908181526020018280546105349061277a565b80156105815780601f1061055657610100808354040283529160200191610581565b820191906000526020600020905b81548152906001019060200180831161056457829003601f168201915b505050505081526020016003820160009054906101000a900473ffffffffffffffffffffffffffffffffffffffff1673ffffffffffffffffffffffffffffffffffffffff1673ffffffffffffffffffffffffffffffffffffffff168152602001600482015481526020016005820180546105fa9061277a565b80601f01602080910402602001604051908101604052809291908181526020018280546106269061277a565b80156106735780601f1061064857610100808354040283529160200191610673565b820191906000526020600020905b81548152906001019060200180831161065657829003601f168201915b50505050508152602001600682015481526020016007820160009054906101000a900460ff16151515158152602001600882015481525050826001836106b991906127da565b815181106106ca576106c961280e565b5b602002602001018190525080806106e09061283d565b915050610434565b508091505090565b60006006600084815260200190815260200160002060008373ffffffffffffffffffffffffffffffffffffffff1673ffffffffffffffffffffffffffffffffffffffff16815260200190815260200160002060009054906101000a900460ff16905092915050565b60006001600381111561076e5761076d61264d565b5b600160003373ffffffffffffffffffffffffffffffffffffffff1673ffffffffffffffffffffffffffffffffffffffff16815260200190815260200160002060009054906101000a900460ff1660038111156107cd576107cc61264d565b5b1461080d576040517f08c379a0000000000000000000000000000000000000000000000000000000008152600401610804906128f7565b60405180910390fd5b600260008154809291906108209061283d565b91905055506000600360006002548152602001908152602001600020905060025481600001819055508581600101908161085a9190612ac3565b508481600201908161086c9190612ac3565b50338160030160006101000a81548173ffffffffffffffffffffffffffffffffffffffff021916908373ffffffffffffffffffffffffffffffffffffffff160217905550838160040181905550828160050190816108ca9190612ac3565b5060008160070160006101000a81548160ff0219169083151502179055504281600801819055507fdc2d392c6b95a9fbdfb129fe615d86a06fa7054018b2e633a2aad3cc47c381de600254873360405161092693929190612b95565b60405180910390a1600254915050949350505050565b6060600160038111156109525761095161264d565b5b600160008473ffffffffffffffffffffffffffffffffffffffff1673ffffffffffffffffffffffffffffffffffffffff16815260200190815260200160002060009054906101000a900460ff1660038111156109b1576109b061264d565b5b036109f3576040518060400160405280600b81526020017f50524f435552454d454e540000000000000000000000000000000000000000008152509050610b95565b60026003811115610a0757610a0661264d565b5b600160008473ffffffffffffffffffffffffffffffffffffffff1673ffffffffffffffffffffffffffffffffffffffff16815260200190815260200160002060009054906101000a900460ff166003811115610a6657610a6561264d565b5b03610aa8576040518060400160405280600881526020017f415050524f5645520000000000000000000000000000000000000000000000008152509050610b95565b600380811115610abb57610aba61264d565b5b600160008473ffffffffffffffffffffffffffffffffffffffff1673ffffffffffffffffffffffffffffffffffffffff16815260200190815260200160002060009054906101000a900460ff166003811115610b1a57610b1961264d565b5b03610b5c576040518060400160405280600781526020017f41554449544f52000000000000000000000000000000000000000000000000008152509050610b95565b6040518060400160405280600481526020017f4e4f4e450000000000000000000000000000000000000000000000000000000081525090505b919050565b60026003811115610bae57610bad61264d565b5b600160003373ffffffffffffffffffffffffffffffffffffffff1673ffffffffffffffffffffffffffffffffffffffff16815260200190815260200160002060009054906101000a900460ff166003811115610c0d57610c0c61264d565b5b14610c4d576040517f08c379a0000000000000000000000000000000000000000000000000000000008152600401610c4490612c45565b60405180910390fd5b60006003600083815260200190815260200160002090508060070160009054906101000a900460ff1615610cb6576040517f08c379a0000000000000000000000000000000000000000000000000000000008152600401610cad90612cb1565b60405180910390fd5b6006600083815260200190815260200160002060003373ffffffffffffffffffffffffffffffffffffffff1673ffffffffffffffffffffffffffffffffffffffff16815260200190815260200160002060009054906101000a900460ff1615610d54576040517f08c379a0000000000000000000000000000000000000000000000000000000008152600401610d4b90612d43565b60405180910390fd5b60016006600084815260200190815260200160002060003373ffffffffffffffffffffffffffffffffffffffff1673ffffffffffffffffffffffffffffffffffffffff16815260200190815260200160002060006101000a81548160ff021916908315150217905550806006016000815480929190610dd29061283d565b9190505550428160080181905550600880549050816006015410610e0e5760018160070160006101000a81548160ff0219169083151502179055505b5050565b60016003811115610e2657610e2561264d565b5b600160003373ffffffffffffffffffffffffffffffffffffffff1673ffffffffffffffffffffffffffffffffffffffff16815260200190815260200160002060009054906101000a900460ff166003811115610e8557610e8461264d565b5b14610ec5576040517f08c379a0000000000000000000000000000000000000000000000000000000008152600401610ebc906128f7565b60405180910390fd5b60006003600084815260200190815260200160002090508060070160009054906101000a900460ff1615610f2e576040517f08c379a0000000000000000000000000000000000000000000000000000000008152600401610f2590612dd5565b60405180910390fd5b6064606e8260040154610f419190612df5565b610f4b9190612e66565b821115610f8d576040517f08c379a0000000000000000000000000000000000000000000000000000000008152600401610f8490612f09565b60405180910390fd5b8181600401819055504281600801819055507f5d269508dd2331f686991c0451aa12ac85618322cc4af4ed81afe62313e548f4838333604051610fd293929190612f29565b60405180910390a1505050565b6060600880548060200260200160405190810160405280929190818152602001828054801561106357602002820191906000526020600020905b8160009054906101000a900473ffffffffffffffffffffffffffffffffffffffff1673ffffffffffffffffffffffffffffffffffffffff1681526020019060010190808311611019575b5050505050905090565b60006060806000806060600080600080600360008c81526020019081526020016000209050806000015481600101826002018360030160009054906101000a900473ffffffffffffffffffffffffffffffffffffffff1684600401548560050186600601548760070160009054906101000a900460ff1688600801548780546110f59061277a565b80601f01602080910402602001604051908101604052809291908181526020018280546111219061277a565b801561116e5780601f106111435761010080835404028352916020019161116e565b820191906000526020600020905b81548152906001019060200180831161115157829003601f168201915b505050505097508680546111819061277a565b80601f01602080910402602001604051908101604052809291908181526020018280546111ad9061277a565b80156111fa5780601f106111cf576101008083540402835291602001916111fa565b820191906000526020600020905b8154815290600101906020018083116111dd57829003601f168201915b5050505050965083805461120d9061277a565b80601f01602080910402602001604051908101604052809291908181526020018280546112399061277a565b80156112865780601f1061125b57610100808354040283529160200191611286565b820191906000526020600020905b81548152906001019060200180831161126957829003601f168201915b50505050509350995099509950995099509950995099509950509193959799909294969850565b60008054906101000a900473ffffffffffffffffffffffffffffffffffffffff1673ffffffffffffffffffffffffffffffffffffffff163373ffffffffffffffffffffffffffffffffffffffff161461133b576040517f08c379a000000000000000000000000000000000000000000000000000000000815260040161133290612fd2565b60405180910390fd5b60008160405160200161134e919061302e565b6040516020818303038152906040528051906020012090507fefbe400860bb353135b2bd4b0bcac4e794c215c4ac9aa97695e206ca2de918fa81036113f95760018060008573ffffffffffffffffffffffffffffffffffffffff1673ffffffffffffffffffffffffffffffffffffffff16815260200190815260200160002060006101000a81548160ff021916908360038111156113ef576113ee61264d565b5b021790555061158c565b7f5ff1fb0ce9089603e6e193667ed17164e0360a6148f4a39fc194055588948a31810361148d576002600160008573ffffffffffffffffffffffffffffffffffffffff1673ffffffffffffffffffffffffffffffffffffffff16815260200190815260200160002060006101000a81548160ff021916908360038111156114835761148261264d565b5b021790555061158b565b7fd8994f6d76f930dc5ea8c60e38e6334a87bb8539cc3082ac6828681c33316e3d8103611521576003600160008573ffffffffffffffffffffffffffffffffffffffff1673ffffffffffffffffffffffffffffffffffffffff16815260200190815260200160002060006101000a81548160ff021916908360038111156115175761151661264d565b5b021790555061158a565b6000600160008573ffffffffffffffffffffffffffffffffffffffff1673ffffffffffffffffffffffffffffffffffffffff16815260200190815260200160002060006101000a81548160ff021916908360038111156115845761158361264d565b5b02179055505b5b5b505050565b600160038111156115a5576115a461264d565b5b600160003373ffffffffffffffffffffffffffffffffffffffff1673ffffffffffffffffffffffffffffffffffffffff16815260200190815260200160002060009054906101000a900460ff1660038111156116045761160361264d565b5b14611644576040517f08c379a000000000000000000000000000000000000000000000000000000000815260040161163b906128f7565b60405180910390fd5b6005600084815260200190815260200160002060009054906101000a900460ff16156116a5576040517f08c379a000000000000000000000000000000000000000000000000000000000815260040161169c906130b7565b60405180910390fd5b60006003600085815260200190815260200160002090506000816000015403611703576040517f08c379a00000000000000000000000000000000000000000000000000000000081526004016116fa90613123565b60405180910390fd5b6064607d82600401546117169190612df5565b6117209190612e66565b821115611762576040517f08c379a0000000000000000000000000000000000000000000000000000000008152600401611759906131b5565b60405180910390fd5b6000600460008681526020019081526020016000209050848160000181905550838160010190816117939190612ac3565b50828160020181905550338160030160006101000a81548173ffffffffffffffffffffffffffffffffffffffff021916908373ffffffffffffffffffffffffffffffffffffffff16021790555060008160030160146101000a81548160ff02191690831515021790555060008160030160156101000a81548160ff0219169083151502179055506000816004018190555060016005600087815260200190815260200160002060006101000a81548160ff0219169083151502179055507f717e0db543c76152346fcc3ab6910a281d12bcd0e9b0957223580e81be029ffe85843360405161188393929190612f29565b60405180910390a15050505050565b60066020528160005260406000206020528060005260406000206000915091509054906101000a900460ff1681565b60008054906101000a900473ffffffffffffffffffffffffffffffffffffffff1681565b60016020528060005260406000206000915054906101000a900460ff1681565b600260038111156119195761191861264d565b5b600160003373ffffffffffffffffffffffffffffffffffffffff1673ffffffffffffffffffffffffffffffffffffffff16815260200190815260200160002060009054906101000a900460ff1660038111156119785761197761264d565b5b146119b8576040517f08c379a00000000000000000000000000000000000000000000000000000000081526004016119af90612c45565b60405180910390fd5b60006004600084815260200190815260200160002090506005600084815260200190815260200160002060009054906101000a900460ff16611a2f576040517f08c379a0000000000000000000000000000000000000000000000000000000008152600401611a2690613221565b60405180910390fd5b6007600084815260200190815260200160002060003373ffffffffffffffffffffffffffffffffffffffff1673ffffffffffffffffffffffffffffffffffffffff16815260200190815260200160002060009054906101000a900460ff1615611acd576040517f08c379a0000000000000000000000000000000000000000000000000000000008152600401611ac4906132b3565b60405180910390fd5b60016007600085815260200190815260200160002060003373ffffffffffffffffffffffffffffffffffffffff1673ffffffffffffffffffffffffffffffffffffffff16815260200190815260200160002060006101000a81548160ff0219169083151502179055508115611b5757806004016000815480929190611b519061283d565b91905055505b600880549050816004015410611c505760018160030160146101000a81548160ff02191690831515021790555060018160030160156101000a81548160ff021916908315150217905550600060036000858152602001908152602001600020905081600101816002019081611bcc91906132fe565b508160020154816004018190555042816008018190555060006005600086815260200190815260200160002060006101000a81548160ff0219169083151502179055507f1c9baca28300ec4686b3977a37589e5e8b3a21ccbe7416f8cab8c213a91eb80884836002015433604051611c4693929190612f29565b60405180910390a1505b7f61f5cc44874187ca08ac991bd5f77753975740aea2737aa7a31fe5722f1249c5833384604051611c83939291906133e6565b60405180910390a1505050565b60088181548110611ca057600080fd5b906000526020600020016000915054906101000a900473ffffffffffffffffffffffffffffffffffffffff1681565b604051806101200160405280600081526020016060815260200160608152602001600073ffffffffffffffffffffffffffffffffffffffff168152602001600081526020016060815260200160008152602001600015158152602001600081525090565b6000604051905090565b600080fd5b600080fd5b6000819050919050565b611d5a81611d47565b8114611d6557600080fd5b50565b600081359050611d7781611d51565b92915050565b600073ffffffffffffffffffffffffffffffffffffffff82169050919050565b6000611da882611d7d565b9050919050565b611db881611d9d565b8114611dc357600080fd5b50565b600081359050611dd581611daf565b92915050565b60008060408385031215611df257611df1611d3d565b5b6000611e0085828601611d68565b9250506020611e1185828601611dc6565b9150509250929050565b60008115159050919050565b611e3081611e1b565b82525050565b6000602082019050611e4b6000830184611e27565b92915050565b611e5a81611d47565b82525050565b6000602082019050611e756000830184611e51565b92915050565b600081519050919050565b600082825260208201905092915050565b6000819050602082019050919050565b611eb081611d47565b82525050565b600081519050919050565b600082825260208201905092915050565b60005b83811015611ef0578082015181840152602081019050611ed5565b60008484015250505050565b6000601f19601f8301169050919050565b6000611f1882611eb6565b611f228185611ec1565b9350611f32818560208601611ed2565b611f3b81611efc565b840191505092915050565b611f4f81611d9d565b82525050565b611f5e81611e1b565b82525050565b600061012083016000830151611f7d6000860182611ea7565b5060208301518482036020860152611f958282611f0d565b91505060408301518482036040860152611faf8282611f0d565b9150506060830151611fc46060860182611f46565b506080830151611fd76080860182611ea7565b5060a083015184820360a0860152611fef8282611f0d565b91505060c083015161200460c0860182611ea7565b5060e083015161201760e0860182611f55565b5061010083015161202c610100860182611ea7565b508091505092915050565b60006120438383611f64565b905092915050565b6000602082019050919050565b600061206382611e7b565b61206d8185611e86565b93508360208202850161207f85611e97565b8060005b858110156120bb578484038952815161209c8582612037565b94506120a78361204b565b925060208a01995050600181019050612083565b50829750879550505050505092915050565b600060208201905081810360008301526120e78184612058565b905092915050565b600080fd5b600080fd5b7f4e487b7100000000000000000000000000000000000000000000000000000000600052604160045260246000fd5b61213182611efc565b810181811067ffffffffffffffff821117156121505761214f6120f9565b5b80604052505050565b6000612163611d33565b905061216f8282612128565b919050565b600067ffffffffffffffff82111561218f5761218e6120f9565b5b61219882611efc565b9050602081019050919050565b82818337600083830152505050565b60006121c76121c284612174565b612159565b9050828152602081018484840111156121e3576121e26120f4565b5b6121ee8482856121a5565b509392505050565b600082601f83011261220b5761220a6120ef565b5b813561221b8482602086016121b4565b91505092915050565b6000806000806080858703121561223e5761223d611d3d565b5b600085013567ffffffffffffffff81111561225c5761225b611d42565b5b612268878288016121f6565b945050602085013567ffffffffffffffff81111561228957612288611d42565b5b612295878288016121f6565b93505060406122a687828801611d68565b925050606085013567ffffffffffffffff8111156122c7576122c6611d42565b5b6122d3878288016121f6565b91505092959194509250565b6000602082840312156122f5576122f4611d3d565b5b600061230384828501611dc6565b91505092915050565b600082825260208201905092915050565b600061232882611eb6565b612332818561230c565b9350612342818560208601611ed2565b61234b81611efc565b840191505092915050565b60006020820190508181036000830152612370818461231d565b905092915050565b60006020828403121561238e5761238d611d3d565b5b600061239c84828501611d68565b91505092915050565b600080604083850312156123bc576123bb611d3d565b5b60006123ca85828601611d68565b92505060206123db85828601611d68565b9150509250929050565b600081519050919050565b600082825260208201905092915050565b6000819050602082019050919050565b600061241d8383611f46565b60208301905092915050565b6000602082019050919050565b6000612441826123e5565b61244b81856123f0565b935061245683612401565b8060005b8381101561248757815161246e8882612411565b975061247983612429565b92505060018101905061245a565b5085935050505092915050565b600060208201905081810360008301526124ae8184612436565b905092915050565b6124bf81611d9d565b82525050565b6000610120820190506124db600083018c611e51565b81810360208301526124ed818b61231d565b90508181036040830152612501818a61231d565b905061251060608301896124b6565b61251d6080830188611e51565b81810360a083015261252f818761231d565b905061253e60c0830186611e51565b61254b60e0830185611e27565b612559610100830184611e51565b9a9950505050505050505050565b6000806040838503121561257e5761257d611d3d565b5b600061258c85828601611dc6565b925050602083013567ffffffffffffffff8111156125ad576125ac611d42565b5b6125b9858286016121f6565b9150509250929050565b6000806000606084860312156125dc576125db611d3d565b5b60006125ea86828701611d68565b935050602084013567ffffffffffffffff81111561260b5761260a611d42565b5b612617868287016121f6565b925050604061262886828701611d68565b9150509250925092565b600060208201905061264760008301846124b6565b92915050565b7f4e487b7100000000000000000000000000000000000000000000000000000000600052602160045260246000fd5b6004811061268d5761268c61264d565b5b50565b600081905061269e8261267c565b919050565b60006126ae82612690565b9050919050565b6126be816126a3565b82525050565b60006020820190506126d960008301846126b5565b92915050565b6126e881611e1b565b81146126f357600080fd5b50565b600081359050612705816126df565b92915050565b6000806040838503121561272257612721611d3d565b5b600061273085828601611d68565b9250506020612741858286016126f6565b9150509250929050565b7f4e487b7100000000000000000000000000000000000000000000000000000000600052602260045260246000fd5b6000600282049050600182168061279257607f821691505b6020821081036127a5576127a461274b565b5b50919050565b7f4e487b7100000000000000000000000000000000000000000000000000000000600052601160045260246000fd5b60006127e582611d47565b91506127f083611d47565b9250828203905081811115612808576128076127ab565b5b92915050565b7f4e487b7100000000000000000000000000000000000000000000000000000000600052603260045260246000fd5b600061284882611d47565b91507fffffffffffffffffffffffffffffffffffffffffffffffffffffffffffffffff820361287a576128796127ab565b5b600182019050919050565b7f4f6e6c792070726f637572656d656e74206f666669636572732063616e20706560008201527f72666f726d207468697320616374696f6e2e0000000000000000000000000000602082015250565b60006128e160328361230c565b91506128ec82612885565b604082019050919050565b60006020820190508181036000830152612910816128d4565b9050919050565b60008190508160005260206000209050919050565b60006020601f8301049050919050565b600082821b905092915050565b6000600883026129797fffffffffffffffffffffffffffffffffffffffffffffffffffffffffffffffff8261293c565b612983868361293c565b95508019841693508086168417925050509392505050565b6000819050919050565b60006129c06129bb6129b684611d47565b61299b565b611d47565b9050919050565b6000819050919050565b6129da836129a5565b6129ee6129e6826129c7565b848454612949565b825550505050565b600090565b612a036129f6565b612a0e8184846129d1565b505050565b5b81811015612a3257612a276000826129fb565b600181019050612a14565b5050565b601f821115612a7757612a4881612917565b612a518461292c565b81016020851015612a60578190505b612a74612a6c8561292c565b830182612a13565b50505b505050565b600082821c905092915050565b6000612a9a60001984600802612a7c565b1980831691505092915050565b6000612ab38383612a89565b9150826002028217905092915050565b612acc82611eb6565b67ffffffffffffffff811115612ae557612ae46120f9565b5b612aef825461277a565b612afa828285612a36565b600060209050601f831160018114612b2d5760008415612b1b578287015190505b612b258582612aa7565b865550612b8d565b601f198416612b3b86612917565b60005b82811015612b6357848901518255600182019150602085019450602081019050612b3e565b86831015612b805784890151612b7c601f891682612a89565b8355505b6001600288020188555050505b505050505050565b6000606082019050612baa6000830186611e51565b8181036020830152612bbc818561231d565b9050612bcb60408301846124b6565b949350505050565b7f4f6e6c7920617070726f766572732063616e20706572666f726d20746869732060008201527f616374696f6e2e00000000000000000000000000000000000000000000000000602082015250565b6000612c2f60278361230c565b9150612c3a82612bd3565b604082019050919050565b60006020820190508181036000830152612c5e81612c22565b9050919050565b7f436f6e747261637420616c72656164792066756c6c7920617070726f7665642e600082015250565b6000612c9b60208361230c565b9150612ca682612c65565b602082019050919050565b60006020820190508181036000830152612cca81612c8e565b9050919050565b7f596f75206861766520616c726561647920617070726f7665642074686973206360008201527f6f6e74726163742e000000000000000000000000000000000000000000000000602082015250565b6000612d2d60288361230c565b9150612d3882612cd1565b604082019050919050565b60006020820190508181036000830152612d5c81612d20565b9050919050565b7f417070726f76656420636f6e7472616374732063616e6e6f74206265206d6f6460008201527f69666965642e0000000000000000000000000000000000000000000000000000602082015250565b6000612dbf60268361230c565b9150612dca82612d63565b604082019050919050565b60006020820190508181036000830152612dee81612db2565b9050919050565b6000612e0082611d47565b9150612e0b83611d47565b9250828202612e1981611d47565b91508282048414831517612e3057612e2f6127ab565b5b5092915050565b7f4e487b7100000000000000000000000000000000000000000000000000000000600052601260045260246000fd5b6000612e7182611d47565b9150612e7c83611d47565b925082612e8c57612e8b612e37565b5b828204905092915050565b7f56616c756520696e637265617365206578636565647320616c6c6f776564207460008201527f68726573686f6c642028313025292e0000000000000000000000000000000000602082015250565b6000612ef3602f8361230c565b9150612efe82612e97565b604082019050919050565b60006020820190508181036000830152612f2281612ee6565b9050919050565b6000606082019050612f3e6000830186611e51565b612f4b6020830185611e51565b612f5860408301846124b6565b949350505050565b7f4f6e6c79206f776e65722063616e20706572666f726d2074686973206163746960008201527f6f6e2e0000000000000000000000000000000000000000000000000000000000602082015250565b6000612fbc60238361230c565b9150612fc782612f60565b604082019050919050565b60006020820190508181036000830152612feb81612faf565b9050919050565b600081905092915050565b600061300882611eb6565b6130128185612ff2565b9350613022818560208601611ed2565b80840191505092915050565b600061303a8284612ffd565b915081905092915050565b7f50656e64696e67206d6f64696669636174696f6e20616c72656164792065786960008201527f7374732e00000000000000000000000000000000000000000000000000000000602082015250565b60006130a160248361230c565b91506130ac82613045565b604082019050919050565b600060208201905081810360008301526130d081613094565b9050919050565b7f436f6e747261637420646f6573206e6f742065786973742e0000000000000000600082015250565b600061310d60188361230c565b9150613118826130d7565b602082019050919050565b6000602082019050818103600083015261313c81613100565b9050919050565b7f4e65772076616c756520657863656564732032352520616c6c6f776564206c6960008201527f6d69742e00000000000000000000000000000000000000000000000000000000602082015250565b600061319f60248361230c565b91506131aa82613143565b604082019050919050565b600060208201905081810360008301526131ce81613192565b9050919050565b7f4e6f2070656e64696e67206d6f64696669636174696f6e2e0000000000000000600082015250565b600061320b60188361230c565b9150613216826131d5565b602082019050919050565b6000602082019050818103600083015261323a816131fe565b9050919050565b7f416c7265616479207265766965776564206279207468697320617070726f766560008201527f722e000000000000000000000000000000000000000000000000000000000000602082015250565b600061329d60228361230c565b91506132a882613241565b604082019050919050565b600060208201905081810360008301526132cc81613290565b9050919050565b6000815490506132e28161277a565b9050919050565b60008190508160005260206000209050919050565b81810361330c5750506133e4565b613315826132d3565b67ffffffffffffffff81111561332e5761332d6120f9565b5b613338825461277a565b613343828285612a36565b6000601f8311600181146133725760008415613360578287015490505b61336a8582612aa7565b8655506133dd565b601f198416613380876132e9565b965061338b86612917565b60005b828110156133b35784890154825560018201915060018501945060208101905061338e565b868310156133d057848901546133cc601f891682612a89565b8355505b6001600288020188555050505b5050505050505b565b60006060820190506133fb6000830186611e51565b61340860208301856124b6565b6134156040830184611e27565b94935050505056fea264697066735822122088578e42617c461085d72d4474cc023e0431841c5e370db29bb0930f04d0896664736f6c63430008140033",
  "linkReferences": {},
  "deployedLinkReferences": {}
}