{
  "_format": "hh-sol-artifact-1",
  "contractName": "ProcurementApproval",
  "sourceName": "contracts/ProcurementApproval.sol",
  "abi": [
    {
      "inputs": [
        {
          "internalType": "address[]",
          "name": "_approvers",
          "type": "address[]"
        },
        {
          "internalType": "address[]",
          "name": "_auditors",
          "type": "address[]"
        }
      ],
      "stateMutability": "nonpayable",
      "type": "constructor"
    },
    {
      "anonymous": false,
      "inputs": [
        {
          "indexed": false,
          "internalType": "uint256",
          "name": "id",
          "type": "uint256"
        },
        {
          "indexed": true,
          "internalType": "address",
          "name": "approver",
          "type": "address"
        }
      ],
      "name": "ContractApproved",
      "type": "event"
    },
    {
      "anonymous": false,
      "inputs": [
        {
          "indexed": false,
          "internalType": "uint256",
          "name": "id",
          "type": "uint256"
        },
        {
          "indexed": false,
          "internalType": "string",
          "name": "title",
          "type": "string"
        },
        {
          "indexed": true,
          "internalType": "address",
          "name": "creator",
          "type": "address"
        }
      ],
      "name": "ContractCreated",
      "type": "event"
    },
    {
      "anonymous": false,
      "inputs": [
        {
          "indexed": false,
          "internalType": "uint256",
          "name": "id",
          "type": "uint256"
        }
      ],
      "name": "ContractFullyApproved",
      "type": "event"
    },
    {
      "anonymous": false,
      "inputs": [
        {
          "indexed": false,
          "internalType": "uint256",
          "name": "id",
          "type": "uint256"
        },
        {
          "indexed": false,
          "internalType": "uint256",
          "name": "newValue",
          "type": "uint256"
        },
        {
          "indexed": true,
          "internalType": "address",
          "name": "modifiedBy",
          "type": "address"
        }
      ],
      "name": "ContractModified",
      "type": "event"
    },
    {
      "anonymous": false,
      "inputs": [
        {
          "indexed": false,
          "internalType": "uint256",
          "name": "contractId",
          "type": "uint256"
        },
        {
          "indexed": false,
          "internalType": "uint256",
          "name": "newValue",
          "type": "uint256"
        },
        {
          "indexed": true,
          "internalType": "address",
          "name": "appliedBy",
          "type": "address"
        }
      ],
      "name": "ModificationApplied",
      "type": "event"
    },
    {
      "anonymous": false,
      "inputs": [
        {
          "indexed": false,
          "internalType": "uint256",
          "name": "contractId",
          "type": "uint256"
        },
        {
          "indexed": true,
          "internalType": "address",
          "name": "rejectedBy",
          "type": "address"
        }
      ],
      "name": "ModificationRejected",
      "type": "event"
    },
    {
      "anonymous": false,
      "inputs": [
        {
          "indexed": false,
          "internalType": "uint256",
          "name": "contractId",
          "type": "uint256"
        },
        {
          "indexed": false,
          "internalType": "uint256",
          "name": "newValue",
          "type": "uint256"
        },
        {
          "indexed": true,
          "internalType": "address",
          "name": "requestedBy",
          "type": "address"
        }
      ],
      "name": "ModificationRequested",
      "type": "event"
    },
    {
      "anonymous": false,
      "inputs": [
        {
          "indexed": false,
          "internalType": "uint256",
          "name": "contractId",
          "type": "uint256"
        },
        {
          "indexed": true,
          "internalType": "address",
          "name": "reviewer",
          "type": "address"
        },
        {
          "indexed": false,
          "internalType": "bool",
          "name": "approved",
          "type": "bool"
        }
      ],
      "name": "ModificationReviewed",
      "type": "event"
    },
    {
      "inputs": [],
      "name": "MAX_MODIFICATION_VALUE_INCREASE_PERCENT",
      "outputs": [
        {
          "internalType": "uint256",
          "name": "",
          "type": "uint256"
        }
      ],
      "stateMutability": "view",
      "type": "function"
    },
    {
      "inputs": [],
      "name": "MAX_TIME_EXTENSION_DAYS",
      "outputs": [
        {
          "internalType": "uint256",
          "name": "",
          "type": "uint256"
        }
      ],
      "stateMutability": "view",
      "type": "function"
    },
    {
      "inputs": [],
      "name": "MAX_VALUE_INCREASE_PERCENT",
      "outputs": [
        {
          "internalType": "uint256",
          "name": "",
          "type": "uint256"
        }
      ],
      "stateMutability": "view",
      "type": "function"
    },
    {
      "inputs": [
        {
          "internalType": "uint256",
          "name": "_id",
          "type": "uint256"
        }
      ],
      "name": "approveContract",
      "outputs": [],
      "stateMutability": "nonpayable",
      "type": "function"
    },
    {
      "inputs": [
        {
          "internalType": "uint256",
          "name": "",
          "type": "uint256"
        },
        {
          "internalType": "address",
          "name": "",
          "type": "address"
        }
      ],
      "name": "approvedBy",
      "outputs": [
        {
          "internalType": "bool",
          "name": "",
          "type": "bool"
        }
      ],
      "stateMutability": "view",
      "type": "function"
    },
    {
      "inputs": [
        {
          "internalType": "uint256",
          "name": "",
          "type": "uint256"
        }
      ],
      "name": "approvers",
      "outputs": [
        {
          "internalType": "address",
          "name": "",
          "type": "address"
        }
      ],
      "stateMutability": "view",
      "type": "function"
    },
    {
      "inputs": [],
      "name": "contractCounter",
      "outputs": [
        {
          "internalType": "uint256",
          "name": "",
          "type": "uint256"
        }
      ],
      "stateMutability": "view",
      "type": "function"
    },
    {
      "inputs": [
        {
          "internalType": "string",
          "name": "_title",
          "type": "string"
        },
        {
          "internalType": "string",
          "name": "_description",
          "type": "string"
        },
        {
          "internalType": "string",
          "name": "_supplierName",
          "type": "string"
        },
        {
          "internalType": "uint256",
          "name": "_value",
          "type": "uint256"
        },
        {
          "internalType": "string",
          "name": "_fileHash",
          "type": "string"
        },
        {
          "internalType": "uint256",
          "name": "_deliveryDate",
          "type": "uint256"
        }
      ],
      "name": "createContract",
      "outputs": [
        {
          "internalType": "uint256",
          "name": "",
          "type": "uint256"
        }
      ],
      "stateMutability": "nonpayable",
      "type": "function"
    },
    {
      "inputs": [],
      "name": "getAllContracts",
      "outputs": [
        {
          "components": [
            {
              "internalType": "uint256",
              "name": "id",
              "type": "uint256"
            },
            {
              "internalType": "string",
              "name": "title",
              "type": "string"
            },
            {
              "internalType": "string",
              "name": "description",
              "type": "string"
            },
            {
              "internalType": "string",
              "name": "supplierName",
              "type": "string"
            },
            {
              "internalType": "address",
              "name": "creator",
              "type": "address"
            },
            {
              "internalType": "uint256",
              "name": "value",
              "type": "uint256"
            },
            {
              "internalType": "string",
              "name": "fileHash",
              "type": "string"
            },
            {
              "internalType": "uint256",
              "name": "approvals",
              "type": "uint256"
            },
            {
              "internalType": "bool",
              "name": "isApproved",
              "type": "bool"
            },
            {
              "internalType": "uint256",
              "name": "lastModified",
              "type": "uint256"
            },
            {
              "internalType": "uint256",
              "name": "deliveryDate",
              "type": "uint256"
            }
          ],
          "internalType": "struct ProcurementApproval.ProcurementContract[]",
          "name": "",
          "type": "tuple[]"
        }
      ],
      "stateMutability": "view",
      "type": "function"
    },
    {
      "inputs": [
        {
          "internalType": "uint256",
          "name": "_contractId",
          "type": "uint256"
        }
      ],
      "name": "getAuditLogs",
      "outputs": [
        {
          "components": [
            {
              "internalType": "uint256",
              "name": "timestamp",
              "type": "uint256"
            },
            {
              "internalType": "string",
              "name": "action",
              "type": "string"
            },
            {
              "internalType": "address",
              "name": "actor",
              "type": "address"
            },
            {
              "internalType": "string",
              "name": "notes",
              "type": "string"
            }
          ],
          "internalType": "struct ProcurementApproval.AuditLog[]",
          "name": "",
          "type": "tuple[]"
        }
      ],
      "stateMutability": "view",
      "type": "function"
    },
    {
      "inputs": [
        {
          "internalType": "uint256",
          "name": "_id",
          "type": "uint256"
        }
      ],
      "name": "getContract",
      "outputs": [
        {
          "internalType": "uint256",
          "name": "",
          "type": "uint256"
        },
        {
          "internalType": "string",
          "name": "",
          "type": "string"
        },
        {
          "internalType": "string",
          "name": "",
          "type": "string"
        },
        {
          "internalType": "string",
          "name": "",
          "type": "string"
        },
        {
          "internalType": "address",
          "name": "",
          "type": "address"
        },
        {
          "internalType": "uint256",
          "name": "",
          "type": "uint256"
        },
        {
          "internalType": "string",
          "name": "",
          "type": "string"
        },
        {
          "internalType": "uint256",
          "name": "",
          "type": "uint256"
        },
        {
          "internalType": "bool",
          "name": "",
          "type": "bool"
        },
        {
          "internalType": "uint256",
          "name": "",
          "type": "uint256"
        }
      ],
      "stateMutability": "view",
      "type": "function"
    },
    {
      "inputs": [
        {
          "internalType": "address",
          "name": "_user",
          "type": "address"
        }
      ],
      "name": "getUserRole",
      "outputs": [
        {
          "internalType": "enum ProcurementApproval.Role",
          "name": "",
          "type": "uint8"
        }
      ],
      "stateMutability": "view",
      "type": "function"
    },
    {
      "inputs": [
        {
          "internalType": "uint256",
          "name": "_contractId",
          "type": "uint256"
        },
        {
          "internalType": "address",
          "name": "_user",
          "type": "address"
        }
      ],
      "name": "hasApproved",
      "outputs": [
        {
          "internalType": "bool",
          "name": "",
          "type": "bool"
        }
      ],
      "stateMutability": "view",
      "type": "function"
    },
    {
      "inputs": [
        {
          "internalType": "uint256",
          "name": "_contractId",
          "type": "uint256"
        }
      ],
      "name": "hasModificationRequest",
      "outputs": [
        {
          "internalType": "bool",
          "name": "",
          "type": "bool"
        }
      ],
      "stateMutability": "view",
      "type": "function"
    },
    {
      "inputs": [
        {
          "internalType": "uint256",
          "name": "_contractId",
          "type": "uint256"
        },
        {
          "internalType": "address",
          "name": "_user",
          "type": "address"
        }
      ],
      "name": "hasReviewed",
      "outputs": [
        {
          "internalType": "bool",
          "name": "",
          "type": "bool"
        }
      ],
      "stateMutability": "view",
      "type": "function"
    },
    {
      "inputs": [
        {
          "internalType": "uint256",
          "name": "_contractId",
          "type": "uint256"
        }
      ],
      "name": "isModificationPending",
      "outputs": [
        {
          "internalType": "bool",
          "name": "",
          "type": "bool"
        }
      ],
      "stateMutability": "view",
      "type": "function"
    },
    {
      "inputs": [
        {
          "internalType": "uint256",
          "name": "_id",
          "type": "uint256"
        },
        {
          "internalType": "uint256",
          "name": "_newValue",
          "type": "uint256"
        }
      ],
      "name": "modifyContractValue",
      "outputs": [],
      "stateMutability": "nonpayable",
      "type": "function"
    },
    {
      "inputs": [],
      "name": "owner",
      "outputs": [
        {
          "internalType": "address",
          "name": "",
          "type": "address"
        }
      ],
      "stateMutability": "view",
      "type": "function"
    },
    {
      "inputs": [
        {
          "internalType": "uint256",
          "name": "_contractId",
          "type": "uint256"
        },
        {
          "internalType": "bool",
          "name": "approve",
          "type": "bool"
        }
      ],
      "name": "reviewModificationRequest",
      "outputs": [],
      "stateMutability": "nonpayable",
      "type": "function"
    },
    {
      "inputs": [
        {
          "internalType": "uint256",
          "name": "",
          "type": "uint256"
        },
        {
          "internalType": "address",
          "name": "",
          "type": "address"
        }
      ],
      "name": "reviewedBy",
      "outputs": [
        {
          "internalType": "bool",
          "name": "",
          "type": "bool"
        }
      ],
      "stateMutability": "view",
      "type": "function"
    },
    {
      "inputs": [
        {
          "internalType": "address",
          "name": "",
          "type": "address"
        }
      ],
      "name": "roles",
      "outputs": [
        {
          "internalType": "enum ProcurementApproval.Role",
          "name": "",
          "type": "uint8"
        }
      ],
      "stateMutability": "view",
      "type": "function"
    },
    {
      "inputs": [
        {
          "internalType": "uint256",
          "name": "_contractId",
          "type": "uint256"
        },
        {
          "internalType": "string",
          "name": "_newDescription",
          "type": "string"
        },
        {
          "internalType": "uint256",
          "name": "_newValue",
          "type": "uint256"
        },
        {
          "internalType": "uint256",
          "name": "_newDeliveryDate",
          "type": "uint256"
        }
      ],
      "name": "submitModificationRequest",
      "outputs": [],
      "stateMutability": "nonpayable",
      "type": "function"
    }
  ],
  "bytecode": "0x60a06040523480156200001157600080fd5b5060405162004b8138038062004b818339818101604052810190620000379190620006d0565b3373ffffffffffffffffffffffffffffffffffffffff1660808173ffffffffffffffffffffffffffffffffffffffff16815250506000600381111562000082576200008162000755565b5b6000803373ffffffffffffffffffffffffffffffffffffffff1673ffffffffffffffffffffffffffffffffffffffff16815260200190815260200160002060009054906101000a900460ff166003811115620000e357620000e262000755565b5b03620001545760016000803373ffffffffffffffffffffffffffffffffffffffff1673ffffffffffffffffffffffffffffffffffffffff16815260200190815260200160002060006101000a81548160ff021916908360038111156200014e576200014d62000755565b5b02179055505b60005b825181101562000356576000600381111562000178576200017762000755565b5b60008085848151811062000191576200019062000784565b5b602002602001015173ffffffffffffffffffffffffffffffffffffffff1673ffffffffffffffffffffffffffffffffffffffff16815260200190815260200160002060009054906101000a900460ff166003811115620001f657620001f562000755565b5b1462000239576040517f08c379a0000000000000000000000000000000000000000000000000000000008152600401620002309062000814565b60405180910390fd5b600260008085848151811062000254576200025362000784565b5b602002602001015173ffffffffffffffffffffffffffffffffffffffff1673ffffffffffffffffffffffffffffffffffffffff16815260200190815260200160002060006101000a81548160ff02191690836003811115620002bb57620002ba62000755565b5b02179055506002838281518110620002d857620002d762000784565b5b60200260200101519080600181540180825580915050600190039060005260206000200160009091909190916101000a81548173ffffffffffffffffffffffffffffffffffffffff021916908373ffffffffffffffffffffffffffffffffffffffff16021790555080806200034d906200086f565b91505062000157565b5060005b8151811015620004d957600060038111156200037b576200037a62000755565b5b60008084848151811062000394576200039362000784565b5b602002602001015173ffffffffffffffffffffffffffffffffffffffff1673ffffffffffffffffffffffffffffffffffffffff16815260200190815260200160002060009054906101000a900460ff166003811115620003f957620003f862000755565b5b146200043c576040517f08c379a000000000000000000000000000000000000000000000000000000000815260040162000433906200090c565b60405180910390fd5b600360008084848151811062000457576200045662000784565b5b602002602001015173ffffffffffffffffffffffffffffffffffffffff1673ffffffffffffffffffffffffffffffffffffffff16815260200190815260200160002060006101000a81548160ff02191690836003811115620004be57620004bd62000755565b5b02179055508080620004d0906200086f565b9150506200035a565b5050506200092e565b6000604051905090565b600080fd5b600080fd5b600080fd5b6000601f19601f8301169050919050565b7f4e487b7100000000000000000000000000000000000000000000000000000000600052604160045260246000fd5b6200054682620004fb565b810181811067ffffffffffffffff821117156200056857620005676200050c565b5b80604052505050565b60006200057d620004e2565b90506200058b82826200053b565b919050565b600067ffffffffffffffff821115620005ae57620005ad6200050c565b5b602082029050602081019050919050565b600080fd5b600073ffffffffffffffffffffffffffffffffffffffff82169050919050565b6000620005f182620005c4565b9050919050565b6200060381620005e4565b81146200060f57600080fd5b50565b6000815190506200062381620005f8565b92915050565b6000620006406200063a8462000590565b62000571565b90508083825260208201905060208402830185811115620006665762000665620005bf565b5b835b818110156200069357806200067e888262000612565b84526020840193505060208101905062000668565b5050509392505050565b600082601f830112620006b557620006b4620004f6565b5b8151620006c784826020860162000629565b91505092915050565b60008060408385031215620006ea57620006e9620004ec565b5b600083015167ffffffffffffffff8111156200070b576200070a620004f1565b5b62000719858286016200069d565b925050602083015167ffffffffffffffff8111156200073d576200073c620004f1565b5b6200074b858286016200069d565b9150509250929050565b7f4e487b7100000000000000000000000000000000000000000000000000000000600052602160045260246000fd5b7f4e487b7100000000000000000000000000000000000000000000000000000000600052603260045260246000fd5b600082825260208201905092915050565b7f417070726f76657220616c72656164792061737369676e656400000000000000600082015250565b6000620007fc601983620007b3565b91506200080982620007c4565b602082019050919050565b600060208201905081810360008301526200082f81620007ed565b9050919050565b7f4e487b7100000000000000000000000000000000000000000000000000000000600052601160045260246000fd5b6000819050919050565b60006200087c8262000865565b91507fffffffffffffffffffffffffffffffffffffffffffffffffffffffffffffffff8203620008b157620008b062000836565b5b600182019050919050565b7f41756469746f7220616c72656164792061737369676e65640000000000000000600082015250565b6000620008f4601883620007b3565b91506200090182620008bc565b602082019050919050565b600060208201905081810360008301526200092781620008e5565b9050919050565b6080516142376200094a6000396000611bb301526142376000f3fe608060405234801561001057600080fd5b50600436106101425760003560e01c80637c7198cc116100b857806398a6dedb1161007c57806398a6dedb146103cc57806399374642146103fc5780639e3c72521461042c578063d3650fb814610448578063f73604c714610478578063f9d52bed1461049657610142565b80637c7198cc146102ee57806384abd9c31461031e57806385667f1c1461034e5780638da5cb5b1461037e5780639724eee51461039c57610142565b8063238e5b851161010a578063238e5b851461021357806327820851146102315780633cedaa201461026157806362c35c011461027d578063650ed9b5146102995780636ebc8c86146102b557610142565b806301b1d3241461014757806303992ee714610177578063067bd3b4146101a757806318d3ce96146101c55780632358d5a8146101e3575b600080fd5b610161600480360381019061015c9190612924565b6104b4565b60405161016e9190612b5d565b60405180910390f35b610191600480360381019061018c9190612bab565b61075b565b60405161019e9190612c06565b60405180910390f35b6101af61078a565b6040516101bc9190612c30565b60405180910390f35b6101cd610790565b6040516101da9190612e20565b60405180910390f35b6101fd60048036038101906101f89190612bab565b610b4b565b60405161020a9190612c06565b60405180910390f35b61021b610bb3565b6040516102289190612c30565b60405180910390f35b61024b60048036038101906102469190612e42565b610bb8565b6040516102589190612ee6565b60405180910390f35b61027b60048036038101906102769190613036565b610c0d565b005b61029760048036038101906102929190612924565b61111a565b005b6102b360048036038101906102ae91906130b9565b611509565b005b6102cf60048036038101906102ca9190612924565b6117c8565b6040516102e59a99989796959493929190613152565b60405180910390f35b61030860048036038101906103039190612bab565b611af0565b6040516103159190612c06565b60405180910390f35b61033860048036038101906103339190612924565b611b58565b6040516103459190612c06565b60405180910390f35b61036860048036038101906103639190612bab565b611b82565b6040516103759190612c06565b60405180910390f35b610386611bb1565b604051610393919061320a565b60405180910390f35b6103b660048036038101906103b19190612924565b611bd5565b6040516103c39190612c06565b60405180910390f35b6103e660048036038101906103e19190613225565b611bff565b6040516103f39190612c30565b60405180910390f35b61041660048036038101906104119190612e42565b611fcf565b6040516104239190612ee6565b60405180910390f35b6104466004803603810190610441919061334e565b611fef565b005b610462600480360381019061045d9190612924565b612649565b60405161046f919061320a565b60405180910390f35b610480612688565b60405161048d9190612c30565b60405180910390f35b61049e61268d565b6040516104ab9190612c30565b60405180910390f35b60606003808111156104c9576104c8612e6f565b5b6000803373ffffffffffffffffffffffffffffffffffffffff1673ffffffffffffffffffffffffffffffffffffffff16815260200190815260200160002060009054906101000a900460ff16600381111561052757610526612e6f565b5b14610567576040517f08c379a000000000000000000000000000000000000000000000000000000000815260040161055e906133da565b60405180910390fd5b60086000838152602001908152602001600020805480602002602001604051908101604052809291908181526020016000905b828210156107505783829060005260206000209060040201604051806080016040529081600082015481526020016001820180546105d790613429565b80601f016020809104026020016040519081016040528092919081815260200182805461060390613429565b80156106505780601f1061062557610100808354040283529160200191610650565b820191906000526020600020905b81548152906001019060200180831161063357829003601f168201915b505050505081526020016002820160009054906101000a900473ffffffffffffffffffffffffffffffffffffffff1673ffffffffffffffffffffffffffffffffffffffff1673ffffffffffffffffffffffffffffffffffffffff1681526020016003820180546106bf90613429565b80601f01602080910402602001604051908101604052809291908181526020018280546106eb90613429565b80156107385780601f1061070d57610100808354040283529160200191610738565b820191906000526020600020905b81548152906001019060200180831161071b57829003601f168201915b5050505050815250508152602001906001019061059a565b505050509050919050565b60076020528160005260406000206020528060005260406000206000915091509054906101000a900460ff1681565b60015481565b6060600060015467ffffffffffffffff8111156107b0576107af612f0b565b5b6040519080825280602002602001820160405280156107e957816020015b6107d6612868565b8152602001906001900390816107ce5790505b5090506000600190505b6001548111610b435760036000828152602001908152602001600020604051806101600160405290816000820154815260200160018201805461083590613429565b80601f016020809104026020016040519081016040528092919081815260200182805461086190613429565b80156108ae5780601f10610883576101008083540402835291602001916108ae565b820191906000526020600020905b81548152906001019060200180831161089157829003601f168201915b505050505081526020016002820180546108c790613429565b80601f01602080910402602001604051908101604052809291908181526020018280546108f390613429565b80156109405780601f1061091557610100808354040283529160200191610940565b820191906000526020600020905b81548152906001019060200180831161092357829003601f168201915b5050505050815260200160038201805461095990613429565b80601f016020809104026020016040519081016040528092919081815260200182805461098590613429565b80156109d25780601f106109a7576101008083540402835291602001916109d2565b820191906000526020600020905b8154815290600101906020018083116109b557829003601f168201915b505050505081526020016004820160009054906101000a900473ffffffffffffffffffffffffffffffffffffffff1673ffffffffffffffffffffffffffffffffffffffff1673ffffffffffffffffffffffffffffffffffffffff16815260200160058201548152602001600682018054610a4b90613429565b80601f0160208091040260200160405190810160405280929190818152602001828054610a7790613429565b8015610ac45780601f10610a9957610100808354040283529160200191610ac4565b820191906000526020600020905b815481529060010190602001808311610aa757829003601f168201915b50505050508152602001600782015481526020016008820160009054906101000a900460ff1615151515815260200160098201548152602001600a8201548152505082600183610b149190613489565b81518110610b2557610b246134bd565b5b60200260200101819052508080610b3b906134ec565b9150506107f3565b508091505090565b60006006600084815260200190815260200160002060008373ffffffffffffffffffffffffffffffffffffffff1673ffffffffffffffffffffffffffffffffffffffff16815260200190815260200160002060009054906101000a900460ff16905092915050565b601981565b60008060008373ffffffffffffffffffffffffffffffffffffffff1673ffffffffffffffffffffffffffffffffffffffff16815260200190815260200160002060009054906101000a900460ff169050919050565b60016003811115610c2157610c20612e6f565b5b6000803373ffffffffffffffffffffffffffffffffffffffff1673ffffffffffffffffffffffffffffffffffffffff16815260200190815260200160002060009054906101000a900460ff166003811115610c7f57610c7e612e6f565b5b14610cbf576040517f08c379a0000000000000000000000000000000000000000000000000000000008152600401610cb6906135a6565b60405180910390fd5b83600081118015610cd257506001548111155b610d11576040517f08c379a0000000000000000000000000000000000000000000000000000000008152600401610d0890613612565b60405180910390fd5b6005600086815260200190815260200160002060009054906101000a900460ff1615610d72576040517f08c379a0000000000000000000000000000000000000000000000000000000008152600401610d699061367e565b60405180910390fd5b6000600360008781526020019081526020016000209050606460198260050154610d9c919061369e565b610da6919061370f565b8160050154610db59190613740565b841115610df7576040517f08c379a0000000000000000000000000000000000000000000000000000000008152600401610dee906137c0565b60405180910390fd5b62015180601e610e07919061369e565b81600a0154610e169190613740565b831115610e58576040517f08c379a0000000000000000000000000000000000000000000000000000000008152600401610e4f90613852565b60405180910390fd5b60005b600280549050811015610f2257600060076000898152602001908152602001600020600060028481548110610e9357610e926134bd565b5b9060005260206000200160009054906101000a900473ffffffffffffffffffffffffffffffffffffffff1673ffffffffffffffffffffffffffffffffffffffff1673ffffffffffffffffffffffffffffffffffffffff16815260200190815260200160002060006101000a81548160ff0219169083151502179055508080610f1a906134ec565b915050610e5b565b506040518061010001604052808781526020018681526020018581526020018481526020013373ffffffffffffffffffffffffffffffffffffffff168152602001600015158152602001600015158152602001600081525060046000888152602001908152602001600020600082015181600001556020820151816001019081610fac9190613a1e565b50604082015181600201556060820151816003015560808201518160040160006101000a81548173ffffffffffffffffffffffffffffffffffffffff021916908373ffffffffffffffffffffffffffffffffffffffff16021790555060a08201518160040160146101000a81548160ff02191690831515021790555060c08201518160040160156101000a81548160ff02191690831515021790555060e0820151816005015590505060016005600088815260200190815260200160002060006101000a81548160ff0219169083151502179055503373ffffffffffffffffffffffffffffffffffffffff167f717e0db543c76152346fcc3ab6910a281d12bcd0e9b0957223580e81be029ffe87866040516110c9929190613af0565b60405180910390a2611112866040518060400160405280601681526020017f4d6f64696669636174696f6e20526571756573746564000000000000000000008152503388612692565b505050505050565b6002600381111561112e5761112d612e6f565b5b6000803373ffffffffffffffffffffffffffffffffffffffff1673ffffffffffffffffffffffffffffffffffffffff16815260200190815260200160002060009054906101000a900460ff16600381111561118c5761118b612e6f565b5b146111cc576040517f08c379a00000000000000000000000000000000000000000000000000000000081526004016111c390613b65565b60405180910390fd5b806000811180156111df57506001548111155b61121e576040517f08c379a000000000000000000000000000000000000000000000000000000000815260040161121590613612565b60405180910390fd5b60006003600084815260200190815260200160002090508060080160009054906101000a900460ff1615611287576040517f08c379a000000000000000000000000000000000000000000000000000000000815260040161127e90613bd1565b60405180910390fd5b6006600084815260200190815260200160002060003373ffffffffffffffffffffffffffffffffffffffff1673ffffffffffffffffffffffffffffffffffffffff16815260200190815260200160002060009054906101000a900460ff1615611325576040517f08c379a000000000000000000000000000000000000000000000000000000000815260040161131c90613c3d565b60405180910390fd5b60016006600085815260200190815260200160002060003373ffffffffffffffffffffffffffffffffffffffff1673ffffffffffffffffffffffffffffffffffffffff16815260200190815260200160002060006101000a81548160ff0219169083151502179055508060070160008154809291906113a3906134ec565b91905055504281600901819055503373ffffffffffffffffffffffffffffffffffffffff167f9a2dd59e3f91eee224a4cde5bedb4195d0a6efef40e136fd4f945d91b45a69e0846040516113f79190612c30565b60405180910390a261144f836040518060400160405280601181526020017f436f6e747261637420417070726f7665640000000000000000000000000000008152503360405180602001604052806000815250612692565b6002805490508160070154106115045760018160080160006101000a81548160ff0219169083151502179055507fd5557efea53b6a3fcd0a5cc0c1c846f8dd7c5c45b86fef3086802ece46a9bec7836040516114ab9190612c30565b60405180910390a1611503836040518060400160405280601781526020017f436f6e74726163742046756c6c7920417070726f7665640000000000000000008152503360405180602001604052806000815250612692565b5b505050565b6001600381111561151d5761151c612e6f565b5b6000803373ffffffffffffffffffffffffffffffffffffffff1673ffffffffffffffffffffffffffffffffffffffff16815260200190815260200160002060009054906101000a900460ff16600381111561157b5761157a612e6f565b5b146115bb576040517f08c379a00000000000000000000000000000000000000000000000000000000081526004016115b2906135a6565b60405180910390fd5b816000811180156115ce57506001548111155b61160d576040517f08c379a000000000000000000000000000000000000000000000000000000000815260040161160490613612565b60405180910390fd5b60006003600085815260200190815260200160002090508060080160009054906101000a900460ff1615611676576040517f08c379a000000000000000000000000000000000000000000000000000000000815260040161166d90613ca9565b60405180910390fd5b60006064600a836005015461168b919061369e565b611695919061370f565b82600501546116a49190613740565b9050808411156116e9576040517f08c379a00000000000000000000000000000000000000000000000000000000081526004016116e090613d15565b60405180910390fd5b8382600501819055504282600901819055503373ffffffffffffffffffffffffffffffffffffffff167f5d269508dd2331f686991c0451aa12ac85618322cc4af4ed81afe62313e548f48686604051611743929190613af0565b60405180910390a26117c1856040518060400160405280601581526020017f4469726563742056616c7565204d6f6469666965640000000000000000000000815250336040518060400160405280601081526020017f57697468696e20313025206c696d697400000000000000000000000000000000815250612692565b5050505050565b60006060806060600080606060008060008a6000811180156117ec57506001548111155b61182b576040517f08c379a000000000000000000000000000000000000000000000000000000000815260040161182290613612565b60405180910390fd5b6000600360008e8152602001908152602001600020905080600001548160010182600201836003018460040160009054906101000a900473ffffffffffffffffffffffffffffffffffffffff1685600501548660060187600701548860080160009054906101000a900460ff1689600901548880546118a990613429565b80601f01602080910402602001604051908101604052809291908181526020018280546118d590613429565b80156119225780601f106118f757610100808354040283529160200191611922565b820191906000526020600020905b81548152906001019060200180831161190557829003601f168201915b5050505050985087805461193590613429565b80601f016020809104026020016040519081016040528092919081815260200182805461196190613429565b80156119ae5780601f10611983576101008083540402835291602001916119ae565b820191906000526020600020905b81548152906001019060200180831161199157829003601f168201915b505050505097508680546119c190613429565b80601f01602080910402602001604051908101604052809291908181526020018280546119ed90613429565b8015611a3a5780601f10611a0f57610100808354040283529160200191611a3a565b820191906000526020600020905b815481529060010190602001808311611a1d57829003601f168201915b50505050509650838054611a4d90613429565b80601f0160208091040260200160405190810160405280929190818152602001828054611a7990613429565b8015611ac65780601f10611a9b57610100808354040283529160200191611ac6565b820191906000526020600020905b815481529060010190602001808311611aa957829003601f168201915b505050505093509b509b509b509b509b509b509b509b509b509b5050509193959799509193959799565b60006007600084815260200190815260200160002060008373ffffffffffffffffffffffffffffffffffffffff1673ffffffffffffffffffffffffffffffffffffffff16815260200190815260200160002060009054906101000a900460ff16905092915050565b60006005600083815260200190815260200160002060009054906101000a900460ff169050919050565b60066020528160005260406000206020528060005260406000206000915091509054906101000a900460ff1681565b7f000000000000000000000000000000000000000000000000000000000000000081565b60006005600083815260200190815260200160002060009054906101000a900460ff169050919050565b600060016003811115611c1557611c14612e6f565b5b6000803373ffffffffffffffffffffffffffffffffffffffff1673ffffffffffffffffffffffffffffffffffffffff16815260200190815260200160002060009054906101000a900460ff166003811115611c7357611c72612e6f565b5b14611cb3576040517f08c379a0000000000000000000000000000000000000000000000000000000008152600401611caa906135a6565b60405180910390fd5b6000875111611cf7576040517f08c379a0000000000000000000000000000000000000000000000000000000008152600401611cee90613d81565b60405180910390fd5b6000865111611d3b576040517f08c379a0000000000000000000000000000000000000000000000000000000008152600401611d3290613ded565b60405180910390fd5b6000855111611d7f576040517f08c379a0000000000000000000000000000000000000000000000000000000008152600401611d7690613e59565b60405180910390fd5b60008411611dc2576040517f08c379a0000000000000000000000000000000000000000000000000000000008152600401611db990613ec5565b60405180910390fd5b6000835111611e06576040517f08c379a0000000000000000000000000000000000000000000000000000000008152600401611dfd90613f31565b60405180910390fd5b428211611e48576040517f08c379a0000000000000000000000000000000000000000000000000000000008152600401611e3f90613f9d565b60405180910390fd5b60016000815480929190611e5b906134ec565b919050555060006003600060015481526020019081526020016000209050600154816000018190555087816001019081611e959190613a1e565b5086816002019081611ea79190613a1e565b5085816003019081611eb99190613a1e565b50338160040160006101000a81548173ffffffffffffffffffffffffffffffffffffffff021916908373ffffffffffffffffffffffffffffffffffffffff16021790555084816005018190555083816006019081611f179190613a1e565b504281600901819055508281600a01819055503373ffffffffffffffffffffffffffffffffffffffff167fdc2d392c6b95a9fbdfb129fe615d86a06fa7054018b2e633a2aad3cc47c381de6001548a604051611f74929190613fbd565b60405180910390a2611fbf6001546040518060400160405280601081526020017f436f6e7472616374204372656174656400000000000000000000000000000000815250338b612692565b6001549150509695505050505050565b60006020528060005260406000206000915054906101000a900460ff1681565b6002600381111561200357612002612e6f565b5b6000803373ffffffffffffffffffffffffffffffffffffffff1673ffffffffffffffffffffffffffffffffffffffff16815260200190815260200160002060009054906101000a900460ff16600381111561206157612060612e6f565b5b146120a1576040517f08c379a000000000000000000000000000000000000000000000000000000000815260040161209890613b65565b60405180910390fd5b816000811180156120b457506001548111155b6120f3576040517f08c379a00000000000000000000000000000000000000000000000000000000081526004016120ea90613612565b60405180910390fd5b6005600084815260200190815260200160002060009054906101000a900460ff16612153576040517f08c379a000000000000000000000000000000000000000000000000000000000815260040161214a90614039565b60405180910390fd5b6007600084815260200190815260200160002060003373ffffffffffffffffffffffffffffffffffffffff1673ffffffffffffffffffffffffffffffffffffffff16815260200190815260200160002060009054906101000a900460ff16156121f1576040517f08c379a00000000000000000000000000000000000000000000000000000000081526004016121e8906140a5565b60405180910390fd5b60016007600085815260200190815260200160002060003373ffffffffffffffffffffffffffffffffffffffff1673ffffffffffffffffffffffffffffffffffffffff16815260200190815260200160002060006101000a81548160ff021916908315150217905550600060046000858152602001908152602001600020905082156122925780600501600081548092919061228c906134ec565b91905055505b3373ffffffffffffffffffffffffffffffffffffffff167f61f5cc44874187ca08ac991bd5f77753975740aea2737aa7a31fe5722f1249c585856040516122da9291906140c5565b60405180910390a2612399846040518060400160405280601581526020017f4d6f64696669636174696f6e2052657669657765640000000000000000000000815250338661235d576040518060400160405280600881526020017f52656a6563746564000000000000000000000000000000000000000000000000815250612394565b6040518060400160405280600881526020017f417070726f7665640000000000000000000000000000000000000000000000008152505b612692565b600280549050816005015410612508576000600360008681526020019081526020016000209050816001018160020190816123d49190614119565b5081600201548160050181905550816003015481600a018190555042816009018190555060018260040160146101000a81548160ff02191690831515021790555060018260040160156101000a81548160ff02191690831515021790555060006005600087815260200190815260200160002060006101000a81548160ff0219169083151502179055503373ffffffffffffffffffffffffffffffffffffffff167f1c9baca28300ec4686b3977a37589e5e8b3a21ccbe7416f8cab8c213a91eb8088684600201546040516124aa929190613af0565b60405180910390a2612502856040518060400160405280601481526020017f4d6f64696669636174696f6e204170706c6965640000000000000000000000008152503360405180602001604052806000815250612692565b50612643565b60028080549050612519919061370f565b81600501541115801561253857506002805490506125368561278a565b145b156126425760018160040160146101000a81548160ff02191690831515021790555060008160040160156101000a81548160ff02191690831515021790555060006005600086815260200190815260200160002060006101000a81548160ff0219169083151502179055503373ffffffffffffffffffffffffffffffffffffffff167f2d8ffb7051deb57e6343abeb392fdfc2c403c703c718dd23ceedf87a1a18936f856040516125e99190612c30565b60405180910390a2612641846040518060400160405280601581526020017f4d6f64696669636174696f6e2052656a656374656400000000000000000000008152503360405180602001604052806000815250612692565b5b5b50505050565b6002818154811061265957600080fd5b906000526020600020016000915054906101000a900473ffffffffffffffffffffffffffffffffffffffff1681565b601e81565b600a81565b6008600085815260200190815260200160002060405180608001604052804281526020018581526020018473ffffffffffffffffffffffffffffffffffffffff1681526020018381525090806001815401808255809150506001900390600052602060002090600402016000909190919091506000820151816000015560208201518160010190816127249190613a1e565b5060408201518160020160006101000a81548173ffffffffffffffffffffffffffffffffffffffff021916908373ffffffffffffffffffffffffffffffffffffffff16021790555060608201518160030190816127819190613a1e565b50505050505050565b600080600090505b60028054905081101561286257600760008481526020019081526020016000206000600283815481106127c8576127c76134bd565b5b9060005260206000200160009054906101000a900473ffffffffffffffffffffffffffffffffffffffff1673ffffffffffffffffffffffffffffffffffffffff1673ffffffffffffffffffffffffffffffffffffffff16815260200190815260200160002060009054906101000a900460ff161561284f57818061284b906134ec565b9250505b808061285a906134ec565b915050612792565b50919050565b60405180610160016040528060008152602001606081526020016060815260200160608152602001600073ffffffffffffffffffffffffffffffffffffffff16815260200160008152602001606081526020016000815260200160001515815260200160008152602001600081525090565b6000604051905090565b600080fd5b600080fd5b6000819050919050565b612901816128ee565b811461290c57600080fd5b50565b60008135905061291e816128f8565b92915050565b60006020828403121561293a576129396128e4565b5b60006129488482850161290f565b91505092915050565b600081519050919050565b600082825260208201905092915050565b6000819050602082019050919050565b612986816128ee565b82525050565b600081519050919050565b600082825260208201905092915050565b60005b838110156129c65780820151818401526020810190506129ab565b60008484015250505050565b6000601f19601f8301169050919050565b60006129ee8261298c565b6129f88185612997565b9350612a088185602086016129a8565b612a11816129d2565b840191505092915050565b600073ffffffffffffffffffffffffffffffffffffffff82169050919050565b6000612a4782612a1c565b9050919050565b612a5781612a3c565b82525050565b6000608083016000830151612a75600086018261297d565b5060208301518482036020860152612a8d82826129e3565b9150506040830151612aa26040860182612a4e565b5060608301518482036060860152612aba82826129e3565b9150508091505092915050565b6000612ad38383612a5d565b905092915050565b6000602082019050919050565b6000612af382612951565b612afd818561295c565b935083602082028501612b0f8561296d565b8060005b85811015612b4b5784840389528151612b2c8582612ac7565b9450612b3783612adb565b925060208a01995050600181019050612b13565b50829750879550505050505092915050565b60006020820190508181036000830152612b778184612ae8565b905092915050565b612b8881612a3c565b8114612b9357600080fd5b50565b600081359050612ba581612b7f565b92915050565b60008060408385031215612bc257612bc16128e4565b5b6000612bd08582860161290f565b9250506020612be185828601612b96565b9150509250929050565b60008115159050919050565b612c0081612beb565b82525050565b6000602082019050612c1b6000830184612bf7565b92915050565b612c2a816128ee565b82525050565b6000602082019050612c456000830184612c21565b92915050565b600081519050919050565b600082825260208201905092915050565b6000819050602082019050919050565b612c8081612beb565b82525050565b600061016083016000830151612c9f600086018261297d565b5060208301518482036020860152612cb782826129e3565b91505060408301518482036040860152612cd182826129e3565b91505060608301518482036060860152612ceb82826129e3565b9150506080830151612d006080860182612a4e565b5060a0830151612d1360a086018261297d565b5060c083015184820360c0860152612d2b82826129e3565b91505060e0830151612d4060e086018261297d565b50610100830151612d55610100860182612c77565b50610120830151612d6a61012086018261297d565b50610140830151612d7f61014086018261297d565b508091505092915050565b6000612d968383612c86565b905092915050565b6000602082019050919050565b6000612db682612c4b565b612dc08185612c56565b935083602082028501612dd285612c67565b8060005b85811015612e0e5784840389528151612def8582612d8a565b9450612dfa83612d9e565b925060208a01995050600181019050612dd6565b50829750879550505050505092915050565b60006020820190508181036000830152612e3a8184612dab565b905092915050565b600060208284031215612e5857612e576128e4565b5b6000612e6684828501612b96565b91505092915050565b7f4e487b7100000000000000000000000000000000000000000000000000000000600052602160045260246000fd5b60048110612eaf57612eae612e6f565b5b50565b6000819050612ec082612e9e565b919050565b6000612ed082612eb2565b9050919050565b612ee081612ec5565b82525050565b6000602082019050612efb6000830184612ed7565b92915050565b600080fd5b600080fd5b7f4e487b7100000000000000000000000000000000000000000000000000000000600052604160045260246000fd5b612f43826129d2565b810181811067ffffffffffffffff82111715612f6257612f61612f0b565b5b80604052505050565b6000612f756128da565b9050612f818282612f3a565b919050565b600067ffffffffffffffff821115612fa157612fa0612f0b565b5b612faa826129d2565b9050602081019050919050565b82818337600083830152505050565b6000612fd9612fd484612f86565b612f6b565b905082815260208101848484011115612ff557612ff4612f06565b5b613000848285612fb7565b509392505050565b600082601f83011261301d5761301c612f01565b5b813561302d848260208601612fc6565b91505092915050565b600080600080608085870312156130505761304f6128e4565b5b600061305e8782880161290f565b945050602085013567ffffffffffffffff81111561307f5761307e6128e9565b5b61308b87828801613008565b935050604061309c8782880161290f565b92505060606130ad8782880161290f565b91505092959194509250565b600080604083850312156130d0576130cf6128e4565b5b60006130de8582860161290f565b92505060206130ef8582860161290f565b9150509250929050565b600082825260208201905092915050565b60006131158261298c565b61311f81856130f9565b935061312f8185602086016129a8565b613138816129d2565b840191505092915050565b61314c81612a3c565b82525050565b600061014082019050613168600083018d612c21565b818103602083015261317a818c61310a565b9050818103604083015261318e818b61310a565b905081810360608301526131a2818a61310a565b90506131b16080830189613143565b6131be60a0830188612c21565b81810360c08301526131d0818761310a565b90506131df60e0830186612c21565b6131ed610100830185612bf7565b6131fb610120830184612c21565b9b9a5050505050505050505050565b600060208201905061321f6000830184613143565b92915050565b60008060008060008060c08789031215613242576132416128e4565b5b600087013567ffffffffffffffff8111156132605761325f6128e9565b5b61326c89828a01613008565b965050602087013567ffffffffffffffff81111561328d5761328c6128e9565b5b61329989828a01613008565b955050604087013567ffffffffffffffff8111156132ba576132b96128e9565b5b6132c689828a01613008565b94505060606132d789828a0161290f565b935050608087013567ffffffffffffffff8111156132f8576132f76128e9565b5b61330489828a01613008565b92505060a061331589828a0161290f565b9150509295509295509295565b61332b81612beb565b811461333657600080fd5b50565b60008135905061334881613322565b92915050565b60008060408385031215613365576133646128e4565b5b60006133738582860161290f565b925050602061338485828601613339565b9150509250929050565b7f4f6e6c792061756469746f727320616c6c6f7765640000000000000000000000600082015250565b60006133c46015836130f9565b91506133cf8261338e565b602082019050919050565b600060208201905081810360008301526133f3816133b7565b9050919050565b7f4e487b7100000000000000000000000000000000000000000000000000000000600052602260045260246000fd5b6000600282049050600182168061344157607f821691505b602082108103613454576134536133fa565b5b50919050565b7f4e487b7100000000000000000000000000000000000000000000000000000000600052601160045260246000fd5b6000613494826128ee565b915061349f836128ee565b92508282039050818111156134b7576134b661345a565b5b92915050565b7f4e487b7100000000000000000000000000000000000000000000000000000000600052603260045260246000fd5b60006134f7826128ee565b91507fffffffffffffffffffffffffffffffffffffffffffffffffffffffffffffffff82036135295761352861345a565b5b600182019050919050565b7f4f6e6c792070726f637572656d656e74206f6666696365727320616c6c6f776560008201527f6400000000000000000000000000000000000000000000000000000000000000602082015250565b60006135906021836130f9565b915061359b82613534565b604082019050919050565b600060208201905081810360008301526135bf81613583565b9050919050565b7f436f6e747261637420646f6573206e6f74206578697374000000000000000000600082015250565b60006135fc6017836130f9565b9150613607826135c6565b602082019050919050565b6000602082019050818103600083015261362b816135ef565b9050919050565b7f50656e64696e67206d6f64696669636174696f6e206578697374730000000000600082015250565b6000613668601b836130f9565b915061367382613632565b602082019050919050565b600060208201905081810360008301526136978161365b565b9050919050565b60006136a9826128ee565b91506136b4836128ee565b92508282026136c2816128ee565b915082820484148315176136d9576136d861345a565b5b5092915050565b7f4e487b7100000000000000000000000000000000000000000000000000000000600052601260045260246000fd5b600061371a826128ee565b9150613725836128ee565b925082613735576137346136e0565b5b828204905092915050565b600061374b826128ee565b9150613756836128ee565b925082820190508082111561376e5761376d61345a565b5b92915050565b7f56616c756520696e637265617365206578636565647320323525206c696d6974600082015250565b60006137aa6020836130f9565b91506137b582613774565b602082019050919050565b600060208201905081810360008301526137d98161379d565b9050919050565b7f44656c697665727920657874656e73696f6e206578636565647320333020646160008201527f7973000000000000000000000000000000000000000000000000000000000000602082015250565b600061383c6022836130f9565b9150613847826137e0565b604082019050919050565b6000602082019050818103600083015261386b8161382f565b9050919050565b60008190508160005260206000209050919050565b60006020601f8301049050919050565b600082821b905092915050565b6000600883026138d47fffffffffffffffffffffffffffffffffffffffffffffffffffffffffffffffff82613897565b6138de8683613897565b95508019841693508086168417925050509392505050565b6000819050919050565b600061391b613916613911846128ee565b6138f6565b6128ee565b9050919050565b6000819050919050565b61393583613900565b61394961394182613922565b8484546138a4565b825550505050565b600090565b61395e613951565b61396981848461392c565b505050565b5b8181101561398d57613982600082613956565b60018101905061396f565b5050565b601f8211156139d2576139a381613872565b6139ac84613887565b810160208510156139bb578190505b6139cf6139c785613887565b83018261396e565b50505b505050565b600082821c905092915050565b60006139f5600019846008026139d7565b1980831691505092915050565b6000613a0e83836139e4565b9150826002028217905092915050565b613a278261298c565b67ffffffffffffffff811115613a4057613a3f612f0b565b5b613a4a8254613429565b613a55828285613991565b600060209050601f831160018114613a885760008415613a76578287015190505b613a808582613a02565b865550613ae8565b601f198416613a9686613872565b60005b82811015613abe57848901518255600182019150602085019450602081019050613a99565b86831015613adb5784890151613ad7601f8916826139e4565b8355505b6001600288020188555050505b505050505050565b6000604082019050613b056000830185612c21565b613b126020830184612c21565b9392505050565b7f4f6e6c7920617070726f7665727320616c6c6f77656400000000000000000000600082015250565b6000613b4f6016836130f9565b9150613b5a82613b19565b602082019050919050565b60006020820190508181036000830152613b7e81613b42565b9050919050565b7f416c72656164792066756c6c7920617070726f76656400000000000000000000600082015250565b6000613bbb6016836130f9565b9150613bc682613b85565b602082019050919050565b60006020820190508181036000830152613bea81613bae565b9050919050565b7f416c726561647920617070726f76656400000000000000000000000000000000600082015250565b6000613c276010836130f9565b9150613c3282613bf1565b602082019050919050565b60006020820190508181036000830152613c5681613c1a565b9050919050565b7f43616e6e6f74206d6f6469667920617070726f76656420636f6e747261637400600082015250565b6000613c93601f836130f9565b9150613c9e82613c5d565b602082019050919050565b60006020820190508181036000830152613cc281613c86565b9050919050565b7f56616c756520696e637265617365206578636565647320313025206c696d6974600082015250565b6000613cff6020836130f9565b9150613d0a82613cc9565b602082019050919050565b60006020820190508181036000830152613d2e81613cf2565b9050919050565b7f5469746c65207265717569726564000000000000000000000000000000000000600082015250565b6000613d6b600e836130f9565b9150613d7682613d35565b602082019050919050565b60006020820190508181036000830152613d9a81613d5e565b9050919050565b7f4465736372697074696f6e207265717569726564000000000000000000000000600082015250565b6000613dd76014836130f9565b9150613de282613da1565b602082019050919050565b60006020820190508181036000830152613e0681613dca565b9050919050565b7f537570706c696572206e616d6520726571756972656400000000000000000000600082015250565b6000613e436016836130f9565b9150613e4e82613e0d565b602082019050919050565b60006020820190508181036000830152613e7281613e36565b9050919050565b7f56616c7565206d757374206265203e2030000000000000000000000000000000600082015250565b6000613eaf6011836130f9565b9150613eba82613e79565b602082019050919050565b60006020820190508181036000830152613ede81613ea2565b9050919050565b7f46696c6520686173682072657175697265640000000000000000000000000000600082015250565b6000613f1b6012836130f9565b9150613f2682613ee5565b602082019050919050565b60006020820190508181036000830152613f4a81613f0e565b9050919050565b7f44656c6976657279206d75737420626520696e20667574757265000000000000600082015250565b6000613f87601a836130f9565b9150613f9282613f51565b602082019050919050565b60006020820190508181036000830152613fb681613f7a565b9050919050565b6000604082019050613fd26000830185612c21565b8181036020830152613fe4818461310a565b90509392505050565b7f4e6f2070656e64696e67206d6f64696669636174696f6e000000000000000000600082015250565b60006140236017836130f9565b915061402e82613fed565b602082019050919050565b6000602082019050818103600083015261405281614016565b9050919050565b7f416c726561647920726576696577656400000000000000000000000000000000600082015250565b600061408f6010836130f9565b915061409a82614059565b602082019050919050565b600060208201905081810360008301526140be81614082565b9050919050565b60006040820190506140da6000830185612c21565b6140e76020830184612bf7565b9392505050565b6000815490506140fd81613429565b9050919050565b60008190508160005260206000209050919050565b8181036141275750506141ff565b614130826140ee565b67ffffffffffffffff81111561414957614148612f0b565b5b6141538254613429565b61415e828285613991565b6000601f83116001811461418d576000841561417b578287015490505b6141858582613a02565b8655506141f8565b601f19841661419b87614104565b96506141a686613872565b60005b828110156141ce578489015482556001820191506001850194506020810190506141a9565b868310156141eb57848901546141e7601f8916826139e4565b8355505b6001600288020188555050505b5050505050505b56fea264697066735822122001e90770ab6cff2be3533c6e15d10967851534e181e3a6cc14c5cb733b5afa2464736f6c63430008140033",
  "linkReferences": {},
  "deployedLinkReferences": {}
}