{
  "_format": "hh-sol-artifact-1",
  "contractName": "ProcurementApproval",
  "sourceName": "contracts/ProcurementApproval.sol",
  "abi": [
    {
      "inputs": [
        {
          "internalType": "address[]",
          "name": "_approvers",
          "type": "address[]"
        },
        {
          "internalType": "address[]",
          "name": "_auditors",
          "type": "address[]"
        }
      ],
      "stateMutability": "nonpayable",
      "type": "constructor"
    },
    {
      "anonymous": false,
      "inputs": [
        {
          "indexed": false,
          "internalType": "uint256",
          "name": "id",
          "type": "uint256"
        },
        {
          "indexed": true,
          "internalType": "address",
          "name": "approver",
          "type": "address"
        }
      ],
      "name": "ContractApproved",
      "type": "event"
    },
    {
      "anonymous": false,
      "inputs": [
        {
          "indexed": false,
          "internalType": "uint256",
          "name": "id",
          "type": "uint256"
        },
        {
          "indexed": false,
          "internalType": "string",
          "name": "title",
          "type": "string"
        },
        {
          "indexed": true,
          "internalType": "address",
          "name": "creator",
          "type": "address"
        }
      ],
      "name": "ContractCreated",
      "type": "event"
    },
    {
      "anonymous": false,
      "inputs": [
        {
          "indexed": false,
          "internalType": "uint256",
          "name": "id",
          "type": "uint256"
        }
      ],
      "name": "ContractFullyApproved",
      "type": "event"
    },
    {
      "anonymous": false,
      "inputs": [
        {
          "indexed": false,
          "internalType": "uint256",
          "name": "id",
          "type": "uint256"
        },
        {
          "indexed": false,
          "internalType": "uint256",
          "name": "newValue",
          "type": "uint256"
        },
        {
          "indexed": true,
          "internalType": "address",
          "name": "modifiedBy",
          "type": "address"
        }
      ],
      "name": "ContractModified",
      "type": "event"
    },
    {
      "anonymous": false,
      "inputs": [
        {
          "indexed": false,
          "internalType": "uint256",
          "name": "contractId",
          "type": "uint256"
        },
        {
          "indexed": false,
          "internalType": "uint256",
          "name": "newValue",
          "type": "uint256"
        },
        {
          "indexed": true,
          "internalType": "address",
          "name": "appliedBy",
          "type": "address"
        }
      ],
      "name": "ModificationApplied",
      "type": "event"
    },
    {
      "anonymous": false,
      "inputs": [
        {
          "indexed": false,
          "internalType": "uint256",
          "name": "contractId",
          "type": "uint256"
        },
        {
          "indexed": true,
          "internalType": "address",
          "name": "rejectedBy",
          "type": "address"
        }
      ],
      "name": "ModificationRejected",
      "type": "event"
    },
    {
      "anonymous": false,
      "inputs": [
        {
          "indexed": false,
          "internalType": "uint256",
          "name": "contractId",
          "type": "uint256"
        },
        {
          "indexed": false,
          "internalType": "uint256",
          "name": "newValue",
          "type": "uint256"
        },
        {
          "indexed": true,
          "internalType": "address",
          "name": "requestedBy",
          "type": "address"
        }
      ],
      "name": "ModificationRequested",
      "type": "event"
    },
    {
      "anonymous": false,
      "inputs": [
        {
          "indexed": false,
          "internalType": "uint256",
          "name": "contractId",
          "type": "uint256"
        },
        {
          "indexed": true,
          "internalType": "address",
          "name": "reviewer",
          "type": "address"
        },
        {
          "indexed": false,
          "internalType": "bool",
          "name": "approved",
          "type": "bool"
        }
      ],
      "name": "ModificationReviewed",
      "type": "event"
    },
    {
      "inputs": [],
      "name": "MAX_MODIFICATION_VALUE_INCREASE_PERCENT",
      "outputs": [
        {
          "internalType": "uint256",
          "name": "",
          "type": "uint256"
        }
      ],
      "stateMutability": "view",
      "type": "function"
    },
    {
      "inputs": [],
      "name": "MAX_TIME_EXTENSION_DAYS",
      "outputs": [
        {
          "internalType": "uint256",
          "name": "",
          "type": "uint256"
        }
      ],
      "stateMutability": "view",
      "type": "function"
    },
    {
      "inputs": [],
      "name": "MAX_VALUE_INCREASE_PERCENT",
      "outputs": [
        {
          "internalType": "uint256",
          "name": "",
          "type": "uint256"
        }
      ],
      "stateMutability": "view",
      "type": "function"
    },
    {
      "inputs": [
        {
          "internalType": "uint256",
          "name": "_id",
          "type": "uint256"
        }
      ],
      "name": "approveContract",
      "outputs": [],
      "stateMutability": "nonpayable",
      "type": "function"
    },
    {
      "inputs": [
        {
          "internalType": "uint256",
          "name": "",
          "type": "uint256"
        },
        {
          "internalType": "address",
          "name": "",
          "type": "address"
        }
      ],
      "name": "approvedBy",
      "outputs": [
        {
          "internalType": "bool",
          "name": "",
          "type": "bool"
        }
      ],
      "stateMutability": "view",
      "type": "function"
    },
    {
      "inputs": [
        {
          "internalType": "uint256",
          "name": "",
          "type": "uint256"
        }
      ],
      "name": "approvers",
      "outputs": [
        {
          "internalType": "address",
          "name": "",
          "type": "address"
        }
      ],
      "stateMutability": "view",
      "type": "function"
    },
    {
      "inputs": [],
      "name": "contractCounter",
      "outputs": [
        {
          "internalType": "uint256",
          "name": "",
          "type": "uint256"
        }
      ],
      "stateMutability": "view",
      "type": "function"
    },
    {
      "inputs": [
        {
          "internalType": "uint256",
          "name": "id",
          "type": "uint256"
        }
      ],
      "name": "contractExists",
      "outputs": [
        {
          "internalType": "bool",
          "name": "",
          "type": "bool"
        }
      ],
      "stateMutability": "view",
      "type": "function"
    },
    {
      "inputs": [
        {
          "internalType": "string",
          "name": "_title",
          "type": "string"
        },
        {
          "internalType": "string",
          "name": "_description",
          "type": "string"
        },
        {
          "internalType": "string",
          "name": "_supplierName",
          "type": "string"
        },
        {
          "internalType": "uint256",
          "name": "_value",
          "type": "uint256"
        },
        {
          "internalType": "string",
          "name": "_fileHash",
          "type": "string"
        },
        {
          "internalType": "uint256",
          "name": "_startDate",
          "type": "uint256"
        },
        {
          "internalType": "uint256",
          "name": "_deliveryDate",
          "type": "uint256"
        }
      ],
      "name": "createContract",
      "outputs": [
        {
          "internalType": "uint256",
          "name": "",
          "type": "uint256"
        }
      ],
      "stateMutability": "nonpayable",
      "type": "function"
    },
    {
      "inputs": [
        {
          "internalType": "uint256",
          "name": "_contractId",
          "type": "uint256"
        }
      ],
      "name": "getAuditLogs",
      "outputs": [
        {
          "components": [
            {
              "internalType": "uint256",
              "name": "timestamp",
              "type": "uint256"
            },
            {
              "internalType": "string",
              "name": "action",
              "type": "string"
            },
            {
              "internalType": "address",
              "name": "actor",
              "type": "address"
            },
            {
              "internalType": "string",
              "name": "notes",
              "type": "string"
            }
          ],
          "internalType": "struct ProcurementApproval.AuditLog[]",
          "name": "",
          "type": "tuple[]"
        }
      ],
      "stateMutability": "view",
      "type": "function"
    },
    {
      "inputs": [
        {
          "internalType": "uint256",
          "name": "_id",
          "type": "uint256"
        }
      ],
      "name": "getContract",
      "outputs": [
        {
          "internalType": "uint256",
          "name": "",
          "type": "uint256"
        },
        {
          "internalType": "string",
          "name": "",
          "type": "string"
        },
        {
          "internalType": "string",
          "name": "",
          "type": "string"
        },
        {
          "internalType": "string",
          "name": "",
          "type": "string"
        },
        {
          "internalType": "address",
          "name": "",
          "type": "address"
        },
        {
          "internalType": "uint256",
          "name": "",
          "type": "uint256"
        },
        {
          "internalType": "string",
          "name": "",
          "type": "string"
        },
        {
          "internalType": "uint256",
          "name": "",
          "type": "uint256"
        },
        {
          "internalType": "bool",
          "name": "",
          "type": "bool"
        },
        {
          "internalType": "uint256",
          "name": "",
          "type": "uint256"
        },
        {
          "internalType": "uint256",
          "name": "",
          "type": "uint256"
        },
        {
          "internalType": "uint256",
          "name": "",
          "type": "uint256"
        }
      ],
      "stateMutability": "view",
      "type": "function"
    },
    {
      "inputs": [
        {
          "internalType": "uint256",
          "name": "id",
          "type": "uint256"
        }
      ],
      "name": "getContractByIndex",
      "outputs": [
        {
          "internalType": "uint256",
          "name": "",
          "type": "uint256"
        },
        {
          "internalType": "string",
          "name": "",
          "type": "string"
        },
        {
          "internalType": "string",
          "name": "",
          "type": "string"
        },
        {
          "internalType": "string",
          "name": "",
          "type": "string"
        },
        {
          "internalType": "address",
          "name": "",
          "type": "address"
        },
        {
          "internalType": "uint256",
          "name": "",
          "type": "uint256"
        },
        {
          "internalType": "string",
          "name": "",
          "type": "string"
        },
        {
          "internalType": "uint256",
          "name": "",
          "type": "uint256"
        },
        {
          "internalType": "bool",
          "name": "",
          "type": "bool"
        },
        {
          "internalType": "uint256",
          "name": "",
          "type": "uint256"
        },
        {
          "internalType": "uint256",
          "name": "",
          "type": "uint256"
        },
        {
          "internalType": "uint256",
          "name": "",
          "type": "uint256"
        }
      ],
      "stateMutability": "view",
      "type": "function"
    },
    {
      "inputs": [
        {
          "internalType": "uint256",
          "name": "contractId",
          "type": "uint256"
        }
      ],
      "name": "getModificationRequest",
      "outputs": [
        {
          "internalType": "uint256",
          "name": "contractId_",
          "type": "uint256"
        },
        {
          "internalType": "string",
          "name": "newTitle",
          "type": "string"
        },
        {
          "internalType": "string",
          "name": "newDescription",
          "type": "string"
        },
        {
          "internalType": "uint256",
          "name": "newValue",
          "type": "uint256"
        },
        {
          "internalType": "uint256",
          "name": "newDeliveryDate",
          "type": "uint256"
        },
        {
          "internalType": "string",
          "name": "newFileHash",
          "type": "string"
        },
        {
          "internalType": "address",
          "name": "submittedBy",
          "type": "address"
        },
        {
          "internalType": "bool",
          "name": "isReviewed",
          "type": "bool"
        },
        {
          "internalType": "bool",
          "name": "isApproved",
          "type": "bool"
        },
        {
          "internalType": "uint256",
          "name": "approvals",
          "type": "uint256"
        }
      ],
      "stateMutability": "view",
      "type": "function"
    },
    {
      "inputs": [],
      "name": "getTotalContracts",
      "outputs": [
        {
          "internalType": "uint256",
          "name": "",
          "type": "uint256"
        }
      ],
      "stateMutability": "view",
      "type": "function"
    },
    {
      "inputs": [
        {
          "internalType": "address",
          "name": "_user",
          "type": "address"
        }
      ],
      "name": "getUserRole",
      "outputs": [
        {
          "internalType": "enum ProcurementApproval.Role",
          "name": "",
          "type": "uint8"
        }
      ],
      "stateMutability": "view",
      "type": "function"
    },
    {
      "inputs": [
        {
          "internalType": "uint256",
          "name": "_contractId",
          "type": "uint256"
        },
        {
          "internalType": "address",
          "name": "_user",
          "type": "address"
        }
      ],
      "name": "hasApproved",
      "outputs": [
        {
          "internalType": "bool",
          "name": "",
          "type": "bool"
        }
      ],
      "stateMutability": "view",
      "type": "function"
    },
    {
      "inputs": [
        {
          "internalType": "uint256",
          "name": "_contractId",
          "type": "uint256"
        }
      ],
      "name": "hasModificationRequest",
      "outputs": [
        {
          "internalType": "bool",
          "name": "",
          "type": "bool"
        }
      ],
      "stateMutability": "view",
      "type": "function"
    },
    {
      "inputs": [
        {
          "internalType": "uint256",
          "name": "_contractId",
          "type": "uint256"
        },
        {
          "internalType": "address",
          "name": "_user",
          "type": "address"
        }
      ],
      "name": "hasReviewed",
      "outputs": [
        {
          "internalType": "bool",
          "name": "",
          "type": "bool"
        }
      ],
      "stateMutability": "view",
      "type": "function"
    },
    {
      "inputs": [
        {
          "internalType": "uint256",
          "name": "_contractId",
          "type": "uint256"
        }
      ],
      "name": "isModificationPending",
      "outputs": [
        {
          "internalType": "bool",
          "name": "",
          "type": "bool"
        }
      ],
      "stateMutability": "view",
      "type": "function"
    },
    {
      "inputs": [
        {
          "internalType": "uint256",
          "name": "_id",
          "type": "uint256"
        },
        {
          "internalType": "string",
          "name": "newTitle",
          "type": "string"
        },
        {
          "internalType": "string",
          "name": "newDescription",
          "type": "string"
        },
        {
          "internalType": "string",
          "name": "newSupplierName",
          "type": "string"
        },
        {
          "internalType": "uint256",
          "name": "newValue",
          "type": "uint256"
        },
        {
          "internalType": "string",
          "name": "newFileHash",
          "type": "string"
        },
        {
          "internalType": "uint256",
          "name": "newDeliveryDate",
          "type": "uint256"
        }
      ],
      "name": "modifyContract",
      "outputs": [],
      "stateMutability": "nonpayable",
      "type": "function"
    },
    {
      "inputs": [
        {
          "internalType": "uint256",
          "name": "_id",
          "type": "uint256"
        },
        {
          "internalType": "uint256",
          "name": "_newValue",
          "type": "uint256"
        }
      ],
      "name": "modifyContractValue",
      "outputs": [],
      "stateMutability": "nonpayable",
      "type": "function"
    },
    {
      "inputs": [],
      "name": "owner",
      "outputs": [
        {
          "internalType": "address",
          "name": "",
          "type": "address"
        }
      ],
      "stateMutability": "view",
      "type": "function"
    },
    {
      "inputs": [
        {
          "internalType": "uint256",
          "name": "_contractId",
          "type": "uint256"
        },
        {
          "internalType": "bool",
          "name": "approve",
          "type": "bool"
        }
      ],
      "name": "reviewModificationRequest",
      "outputs": [],
      "stateMutability": "nonpayable",
      "type": "function"
    },
    {
      "inputs": [
        {
          "internalType": "uint256",
          "name": "",
          "type": "uint256"
        },
        {
          "internalType": "address",
          "name": "",
          "type": "address"
        }
      ],
      "name": "reviewedBy",
      "outputs": [
        {
          "internalType": "bool",
          "name": "",
          "type": "bool"
        }
      ],
      "stateMutability": "view",
      "type": "function"
    },
    {
      "inputs": [
        {
          "internalType": "address",
          "name": "",
          "type": "address"
        }
      ],
      "name": "roles",
      "outputs": [
        {
          "internalType": "enum ProcurementApproval.Role",
          "name": "",
          "type": "uint8"
        }
      ],
      "stateMutability": "view",
      "type": "function"
    },
    {
      "inputs": [
        {
          "internalType": "uint256",
          "name": "_contractId",
          "type": "uint256"
        },
        {
          "internalType": "string",
          "name": "_newTitle",
          "type": "string"
        },
        {
          "internalType": "string",
          "name": "_newDescription",
          "type": "string"
        },
        {
          "internalType": "uint256",
          "name": "_newValue",
          "type": "uint256"
        },
        {
          "internalType": "uint256",
          "name": "_newDeliveryDate",
          "type": "uint256"
        },
        {
          "internalType": "string",
          "name": "_newFileHash",
          "type": "string"
        }
      ],
      "name": "submitModificationRequest",
      "outputs": [],
      "stateMutability": "nonpayable",
      "type": "function"
    }
  ],
  "bytecode": "0x604060a0815234620002ca5762002f62803803806200001e81620002cf565b9283398101908281830312620002ca5780516001600160401b039190828111620002ca5783620000509183016200030b565b9260209283830151908111620002ca576200006c92016200030b565b913360805260009133835282815260ff8086852054169560049687811015620002855715620002b0575b845b8451811015620001ce576001600160a01b0380620000b78388620003aa565b5116875286855283838820541689811015620001bb57620001785780620000df8388620003aa565b51168752868552828720906002918260ff19825416179055620001038388620003aa565b51169080549068010000000000000000821015620001655760018201808255821015620001525788528588200180546001600160a01b03191690911790556200014c9062000384565b62000098565b634e487b7160e01b895260328b52602489fd5b634e487b7160e01b895260418b52602489fd5b825162461bcd60e51b8152808a01869052601960248201527f417070726f76657220616c72656164792061737369676e6564000000000000006044820152606490fd5b634e487b7160e01b885260218a52602488fd5b5084879287825b815181101562000298576001600160a01b0380620001f48385620003aa565b511685528488528386862054168781101562000285576200024257906200023c91620002218285620003aa565b51168552848852858520805460ff1916600317905562000384565b620001d5565b855162461bcd60e51b8152808801899052601860248201527f41756469746f7220616c72656164792061737369676e656400000000000000006044820152606490fd5b634e487b7160e01b865260218852602486fd5b8451612b8c9081620003d68239608051816108520152f35b338552848352808520805460ff1916600117905562000096565b600080fd5b6040519190601f01601f191682016001600160401b03811183821017620002f557604052565b634e487b7160e01b600052604160045260246000fd5b81601f82011215620002ca578051916001600160401b038311620002f5578260051b60209283806200033f818501620002cf565b809781520192820101928311620002ca578301905b82821062000363575050505090565b81516001600160a01b0381168103620002ca57815290830190830162000354565b6000198114620003945760010190565b634e487b7160e01b600052601160045260246000fd5b8051821015620003bf5760209160051b010190565b634e487b7160e01b600052603260045260246000fdfe608080604052600436101561001357600080fd5b60003560e01c90816301b1d32414612154575080630264a1011461213457806303992ee7146108ff578063067bd3b414610dda5780630a23e2791461196e57806319a4c8f6146113205780632358d5a814610881578063238e5b851461130457806327820851146107b45780634b39b2fe14610df8578063534860cc14610dda57806362c35c0114610b9f578063650ed9b514610a025780636ebc8c861461094c5780637c7198cc146108ff57806384abd9c3146108ce57806385667f1c146108815780638da5cb5b1461083c5780639724eee5146107fa57806399374642146107b45780639e3c725214610364578063c7d2229e146101e4578063d3650fb8146101a2578063d4650e2b1461017a578063f73604c71461015e5763f9d52bed1461013d57600080fd5b34610159576000366003190112610159576020604051600a8152f35b600080fd5b34610159576000366003190112610159576020604051601e8152f35b34610159576020366003190112610159576020610198600435612524565b6040519015158152f35b3461015957602036600319011261015957600435600254811015610159576101cb6020916124d7565b905460405160039290921b1c6001600160a01b03168152f35b346101595760208060031936011261015957336000526000815260ff60406000205416600481101561034e57600214801561032b575b156102ee57600435600052600481526040600020805490600381015460ff6102b86004840154926006850154946007810154946102a061025c6001840161280e565b9261029261027860056102716002850161280e565b930161280e565b946040519c8d9c8d528c61014091829101528c0190612302565b908a820360408c0152612302565b926060890152608088015286820360a0880152612302565b6001600160a01b03841660c086015260a084901c8216151560e086015260a89390931c1615156101008401526101208301520390f35b6064906040519062461bcd60e51b82526004820152601660248201527513db9b1e481c995d9a595dd95c9cc8185b1b1bddd95960521b6044820152fd5b50336000526000815260ff60406000205416600481101561034e5760031461021a565b634e487b7160e01b600052602160045260246000fd5b346101595760403660031901126101595760243580151560043581830361015957336000526020916000835260ff8060406000205416600481101561034e5760026103af911461264a565b821515806107a8575b6103c19061268f565b826000526005845280604060002054161561076357826000526007908185526040600020336000528552806040600020541661072b578360005281855260406000203360005285528560406000209360ff19946001868254161790558560005260048752604060002097610717575b60405190868252878201527f61f5cc44874187ca08ac991bd5f77753975740aea2737aa7a31fe5722f1249c560403392a2156106ef576104bf60405161047581612417565b6008815267105c1c1c9bdd995960c21b878201525b60405161049681612417565b6015815274135bd91a599a58d85d1a5bdb8814995d9a595dd959605a1b888201523390876128f6565b8582015460025491908281106105d25750505050926105d093826000526003845260066040600020926104f86001820160018601612736565b6105086002820160028601612736565b6003810193845460058201556004820154600b82015561052d60058301848301612736565b6009429101550161010160a01b61ffff60a01b19825416179055826000526005845260406000209081541690555460405190828252838201527f1c9baca28300ec4686b3977a37589e5e8b3a21ccbe7416f8cab8c213a91eb80860403392a273135bd91a599a58d85d1a5bdb88105c1c1b1a595960621b604051926105b184612417565b60148452830152604051916105c583612432565b6000835233916128f6565b005b8260011c10159283610679575b5050506105e857005b60066105d09401600160a01b61ffff60a01b19825416179055816000526005835260406000209081541690556040518181527f2d8ffb7051deb57e6343abeb392fdfc2c403c703c718dd23ceedf87a1a18936f833392a274135bd91a599a58d85d1a5bdb8814995a9958dd1959605a1b6040519261066584612417565b60158452830152604051916105c583612432565b9091925060009160005b84811061069657505050148580806105df565b8660005282885260406000206106ab826124d7565b60018060a01b0391549060031b1c16600052885281604060002054166106da575b6106d5906126db565b610683565b926106e76106d5916126db565b9390506106cc565b6104bf6040516106fe81612417565b600881526714995a9958dd195960c21b8782015261048a565b83880161072481546126db565b9055610430565b60405162461bcd60e51b815260048101869052601060248201526f105b1c9958591e481c995d9a595dd95960821b6044820152606490fd5b60405162461bcd60e51b815260048101859052601760248201527f4e6f2070656e64696e67206d6f64696669636174696f6e0000000000000000006044820152606490fd5b506001548311156103b8565b34610159576020366003190112610159576001600160a01b036107d56123e6565b1660005260006020526107f660ff60406000205416604051918291826124c4565b0390f35b346101595760203660031901126101595760043561081f61081a82612524565b6128b4565b6000526005602052602060ff604060002054166040519015158152f35b34610159576000366003190112610159576040517f00000000000000000000000000000000000000000000000000000000000000006001600160a01b03168152602090f35b346101595760403660031901126101595761089a6123d0565b600435600052600660205260406000209060018060a01b0316600052602052602060ff604060002054166040519015158152f35b34610159576020366003190112610159576004356000526005602052602060ff604060002054166040519015158152f35b34610159576040366003190112610159576109186123d0565b600435600052600760205260406000209060018060a01b0316600052602052602060ff604060002054166040519015158152f35b3461015957602036600319011261015957600435801515806109f6575b6109729061268f565b6000526003602052604060002080546107f660018060a01b0360048401541692600581015490600781015460ff600883015416600983015491600a84015493600b810154956109c36001830161280e565b996109d06002840161280e565b926109e960066109e26003840161280e565b920161280e565b936040519c8d9c8d612342565b50600154811115610969565b346101595760403660031901126101595760043560243590336000526020906000825260ff60406000205416600481101561034e576001610a439114612559565b80151580610b93575b610a559061268f565b8060005260038252604060002092610a7460ff600886015416156126ea565b60058401938454600a810290808204600a1481151715610b7d576064610a9b9204906125af565b8211610b3a57816105d0955560094291015560405190828252838201527f5d269508dd2331f686991c0451aa12ac85618322cc4af4ed81afe62313e548f460403392a2604051610aea81612417565b6015815274111a5c9958dd0815985b1d5948135bd91a599a5959605a1b838201526f15da5d1a1a5b880c4c09481b1a5b5a5d60821b60405193610b2c85612417565b6010855284015233916128f6565b6064846040519062461bcd60e51b825280600483015260248201527f56616c756520696e637265617365206578636565647320313025206c696d69746044820152fd5b634e487b7160e01b600052601160045260246000fd5b50600154811115610a4c565b34610159576020806003193601126101595760043590336000526000815260ff60406000205416600481101561034e576002610bdb911461264a565b81151580610dce575b610bed9061268f565b81600052600381526040600020916008830160ff815416610d90578160005260068352604060002033600052835260ff60406000205416610d58578160005260068352604060002033600052835260406000209360ff19946001868254161790556007810190610c5d82546126db565b82556009429101556040518381527f9a2dd59e3f91eee224a4cde5bedb4195d0a6efef40e136fd4f945d91b45a69e0853392a2610cd5604051610c9f81612417565b601181527010dbdb9d1c9858dd08105c1c1c9bdd9959607a1b8682015260405190610cc982612432565b600082523390866128f6565b546002541115610ce157005b60016105d0948254161790557fd5557efea53b6a3fcd0a5cc0c1c846f8dd7c5c45b86fef3086802ece46a9bec782604051838152a17f436f6e74726163742046756c6c7920417070726f76656400000000000000000060405192610d4484612417565b60178452830152604051916105c583612432565b60405162461bcd60e51b815260048101849052601060248201526f105b1c9958591e48185c1c1c9bdd995960821b6044820152606490fd5b60405162461bcd60e51b8152600481018490526016602482015275105b1c9958591e48199d5b1b1e48185c1c1c9bdd995960521b6044820152606490fd5b50600154821115610be4565b34610159576000366003190112610159576020600154604051908152f35b346101595760e0366003190112610159576024356001600160401b03811161015957610e2890369060040161246e565b6044356001600160401b03811161015957610e4790369060040161246e565b906064356001600160401b03811161015957610e6790369060040161246e565b9060a4356001600160401b03811161015957610e8790369060040161246e565b9033600052600060205260ff60406000205416600481101561034e576001610eaf9114612559565b6004351515806112f6575b610ec39061268f565b6004356000526003602052604060002090610ee560ff600884015416156126ea565b8051906001600160401b038211611170578190610f1282610f0960018701546125bc565b600187016125f6565b602090601f831160011461128457600092611279575b50508160011b916000199060031b1c19161760018201555b83516001600160401b03811161117057610f6a81610f6160028501546125bc565b600285016125f6565b6020601f821160011461120a5781929394956000926111ff575b50508160011b916000199060031b1c19161760028201555b82516001600160401b03811161117057610fc681610fbd60038501546125bc565b600385016125f6565b6020601f82116001146111915781929394600092611186575b50508160011b916000199060031b1c19161760038201555b608435908160058201556006810183516001600160401b038111611170576110298161102384546125bc565b846125f6565b602094601f821160011461110a579481929394956000926110ff575b50508160011b916000199060031b1c19161790555b60c435600b82015560094291015560405190600435825260208201527f5d269508dd2331f686991c0451aa12ac85618322cc4af4ed81afe62313e548f460403392a26105d06040516110ab81612417565b601181527010dbdb9d1c9858dd08135bd91a599a5959607a1b6020820152604051906110d682612417565b601282527146756c6c206469726563742075706461746560701b602083015233906004356128f6565b015190508580611045565b601f198216958360005260206000209160005b8881106111585750836001959697981061113f575b505050811b01905561105a565b015160001960f88460031b161c19169055858080611132565b9192602060018192868501518155019401920161111d565b634e487b7160e01b600052604160045260246000fd5b015190508480610fdf565b6003830160005260206000209060005b601f19841681106111e75750600193949583601f198116106111ce575b505050811b016003820155610ff7565b015160001960f88460031b161c191690558480806111be565b9091602060018192858a0151815501930191016111a1565b015190508580610f84565b6002830160005260206000209060005b601f1984168110611261575060019394959683601f19811610611248575b505050811b016002820155610f9c565b015160001960f88460031b161c19169055858080611238565b9091602060018192858b01518155019301910161121a565b015190508680610f28565b9250600184016000526020600020906000935b601f19841685106112db576001945083601f198116106112c2575b505050811b016001820155610f40565b015160001960f88460031b161c191690558680806112b2565b81810151835560209485019460019093019290910190611297565b506001546004351115610eba565b3461015957600036600319011261015957602060405160198152f35b346101595760c0366003190112610159576024356001600160401b0381116101595761135090369060040161246e565b6044356001600160401b0381116101595761136f90369060040161246e565b9060a4356001600160401b0381116101595761138f90369060040161246e565b9033600052600060205260ff60406000205416600481101561034e5760016113b79114612559565b600435151580611960575b6113cb9061268f565b600435600052600560205260ff6040600020541661191b57600435600052600360205260406000206005810154601981029080820460191481151715610b7d5760646114189204906125af565b606435116118d757600b015462278d008101809111610b7d57608435116118875760005b60025481101561148f5761148a9060043560005260076020526040600020611463826124d7565b60018060a01b0391549060031b1c16600052602052604060002060ff1981541690556126db565b61143c565b50906040519161014083018381106001600160401b0382111761117057604052600435835260208301528260408301526064356060830152608435608083015260a08201523360c0820152600060e08201526000610100820152600061012082015260043560005260046020526040600020908051825560208101519283516001600160401b0381116111705761152d81610f0960018701546125bc565b6020601f821160011461181857819293949560009261180d575b50508160011b916000199060031b1c19161760018401555b60408201519283516001600160401b0381116111705761158681610f6160028501546125bc565b6020601f821160011461179e578192939495600092611793575b50508160011b916000199060031b1c19161760028201555b606083015160038201556080830151600482015560a08301519283516001600160401b038111611170576115fc816115f360058601546125bc565b600586016125f6565b6020601f821160011461171b579181610120926007946105d098600092611710575b50508160011b916000199060031b1c19161760058501555b6006840160018060a01b0360c08301511681549060ff60a01b60e0850151151560a01b169060ff60a81b610100860151151560a81b169269ffffffffffffffffffff60b01b161717179055015191015560043560005260056020526040600020600160ff19825416179055604051600435815260643560208201527f717e0db543c76152346fcc3ab6910a281d12bcd0e9b0957223580e81be029ffe60403392a26040516116e381612417565b6016815275135bd91a599a58d85d1a5bdb8814995c5d595cdd195960521b602082015233906004356128f6565b01519050888061161e565b6005840160005260206000209560005b601f198416811061177b5750826105d0976007959360019361012096601f19811610611762575b505050811b016005850155611636565b015160001960f88460031b161c19169055888080611752565b8282015188556001909701966020928301920161172b565b0151905085806115a0565b6002830160005260206000209060005b601f19841681106117f5575060019394959683601f198116106117dc575b505050811b0160028201556115b8565b015160001960f88460031b161c191690558580806117cc565b9091602060018192858b0151815501930191016117ae565b015190508580611547565b6001850160005260206000209060005b601f198416811061186f575060019394959683601f19811610611856575b505050811b01600184015561155f565b015160001960f88460031b161c19169055858080611846565b9091602060018192858b015181550193019101611828565b60405162461bcd60e51b815260206004820152602260248201527f44656c697665727920657874656e73696f6e2065786365656473203330206461604482015261797360f01b6064820152608490fd5b606460405162461bcd60e51b815260206004820152602060248201527f56616c756520696e637265617365206578636565647320323525206c696d69746044820152fd5b60405162461bcd60e51b815260206004820152601b60248201527f50656e64696e67206d6f64696669636174696f6e2065786973747300000000006044820152606490fd5b5060015460043511156113c2565b346101595760e0366003190112610159576004356001600160401b0381116101595761199e90369060040161246e565b6024356001600160401b038111610159576119bd90369060040161246e565b604480356001600160401b038111610159576119dd90369060040161246e565b906084356001600160401b038111610159576119fd90369060040161246e565b9033600052600060205260ff60406000205416600481101561034e576001611a259114612559565b8451156120ff578351156120c457825115612087576064908135156120525782511561201c574260c4351115611fdb574260a43510611f9a5760a43560c4351115611f4e575060015492600184018411610b7d576001840160015560405194856101808101106001600160401b0361018088011117611170576101808601604052600185018652866020870152604086015260608501523360808501523560a084015260c0830152600060e083015260006101008301524261012083015260a43561014083015260c43561016083015260018101600052600360205260406000209282518455602083015180516001600160401b03811161117057806001870192611b3a82611b3486546125bc565b866125f6565b602090601f8311600114611ee857600092611edd575b50508160011b916000199060031b1c19161790555b604083015180516001600160401b03811161117057806002870192611b8e82611b3486546125bc565b602090601f8311600114611e7757600092611e6c575b50508160011b916000199060031b1c19161790555b60608301518051906001600160401b038211611170578190611beb82611be260038a01546125bc565b60038a016125f6565b602090601f8311600114611dfa57600092611def575b50508160011b916000199060031b1c19161760038501555b6004840160018060a01b036080850151166bffffffffffffffffffffffff60a01b82541617905560a08301516005850155600684019360c08401519485516001600160401b03811161117057602096611c7c82611c7685546125bc565b856125f6565b8790601f8311600114611d7e57928261016093611d68989993600b96600092611d73575b50508160011b916000199060031b1c19161790555b60e0810151600785015560088401610100820151151560ff801983541691161790556101208101516009850155610140810151600a85015501519101556040516001840181526040858201527fdc2d392c6b95a9fbdfb129fe615d86a06fa7054018b2e633a2aad3cc47c381de339180611d326040820186612302565b0390a2604051611d4181612417565b601081526f10dbdb9d1c9858dd0810dc99585d195960821b858201523390600185016128f6565b600160405191018152f35b015190508b80611ca0565b90601f1983169184600052896000209260005b818110611dd8575093611d68989993600b9693600193836101609810611dbf575b505050811b019055611cb5565b015160001960f88460031b161c191690558b8080611db2565b92938b600181928786015181550195019301611d91565b015190508680611c01565b9250600387016000526020600020906000935b601f1984168510611e51576001945083601f19811610611e38575b505050811b016003850155611c19565b015160001960f88460031b161c19169055868080611e28565b81810151835560209485019460019093019290910190611e0d565b015190508780611ba4565b6000858152602081209350601f198516905b818110611ec55750908460019594939210611eac575b505050811b019055611bb9565b015160001960f88460031b161c19169055878080611e9f565b92936020600181928786015181550195019301611e89565b015190508780611b50565b6000858152602081209350601f198516905b818110611f365750908460019594939210611f1d575b505050811b019055611b65565b015160001960f88460031b161c19169055878080611f10565b92936020600181928786015181550195019301611efa565b606560f81b6084927f456e642064617465206d757374206265206166746572207374617274206461746040519362461bcd60e51b85526020600486015260216024860152840152820152fd5b7f53746172742064617465206d757374206265206e6f77206f72206675747572656040519162461bcd60e51b83526020600484015260206024840152820152fd5b7f44656c6976657279206d75737420626520696e206675747572650000000000006040519162461bcd60e51b835260206004840152601a6024840152820152fd5b71119a5b19481a185cda081c995c5d5a5c995960721b6040519162461bcd60e51b83526020600484015260126024840152820152fd5b70056616c7565206d757374206265203e203607c1b6040519162461bcd60e51b83526020600484015260116024840152820152fd5b6064907514dd5c1c1b1a595c881b985b59481c995c5d5a5c995960521b6040519162461bcd60e51b83526020600484015260166024840152820152fd5b6064907311195cd8dc9a5c1d1a5bdb881c995c5d5a5c995960621b6040519162461bcd60e51b83526020600484015260146024840152820152fd5b6064906d151a5d1b19481c995c5d5a5c995960921b6040519162461bcd60e51b835260206004840152600e6024840152820152fd5b346101595760203660031901126101595760043561097261081a82612524565b34610159576020908160031936011261015957336000526000825260ff6040600020541690600482101561034e5760038092036122c8575060043560005260088252604060002080546001600160401b0381116111705760405193926121c0600583901b85018661244d565b81855260009283528383208486019391845b84841061226e57604080518881528951818a01819052600092600582901b83018101918a918c9085015b8287106122095785850386f35b90919293828061225e600193603f198a820301865288518051825261223a8482015160808087860152840190612302565b91868060a01b03604083015116604082015260608092015191818403910152612302565b96019201960195929190926121fc565b60048760019260409a999a51612283816123fc565b8654815261229285880161280e565b83820152848060a01b0360028801541660408201526122b286880161280e565b60608201528152019301930192919695966121d2565b62461bcd60e51b815260048101839052601560248201527413db9b1e48185d591a5d1bdc9cc8185b1b1bddd959605a1b6044820152606490fd5b919082519283825260005b84811061232e575050826000602080949584010152601f8019910116010190565b60208183018101518483018201520161230d565b989591936123826101609b9894999e9d9c996123746123b29897612390958e528d610180908160208201520190612302565b8c810360408e015290612302565b908a820360608c0152612302565b6001600160a01b03909316608089015260a088015286820360c0880152612302565b9760e085015215156101008401526101208301526101408201520152565b602435906001600160a01b038216820361015957565b600435906001600160a01b038216820361015957565b608081019081106001600160401b0382111761117057604052565b604081019081106001600160401b0382111761117057604052565b602081019081106001600160401b0382111761117057604052565b90601f801991011681019081106001600160401b0382111761117057604052565b81601f82011215610159578035906001600160401b03821161117057604051926124a2601f8401601f19166020018561244d565b8284526020838301011161015957816000926020809301838601378301015290565b91906020830192600482101561034e5752565b60025481101561250e5760026000527f405787fa12a823e0f2b7631cc41b3ba8828b3321ca811111fa75cd3aa3bb5ace0190600090565b634e487b7160e01b600052603260045260246000fd5b801515908161254c575b81612537575090565b90506000526003602052604060002054151590565b600154811115915061252e565b1561256057565b60405162461bcd60e51b815260206004820152602160248201527f4f6e6c792070726f637572656d656e74206f6666696365727320616c6c6f77656044820152601960fa1b6064820152608490fd5b91908201809211610b7d57565b90600182811c921680156125ec575b60208310146125d657565b634e487b7160e01b600052602260045260246000fd5b91607f16916125cb565b90601f811161260457505050565b600091825260208220906020601f850160051c83019410612640575b601f0160051c01915b82811061263557505050565b818155600101612629565b9092508290612620565b1561265157565b60405162461bcd60e51b815260206004820152601660248201527513db9b1e48185c1c1c9bdd995c9cc8185b1b1bddd95960521b6044820152606490fd5b1561269657565b60405162461bcd60e51b815260206004820152601760248201527f436f6e747261637420646f6573206e6f742065786973740000000000000000006044820152606490fd5b6000198114610b7d5760010190565b156126f157565b60405162461bcd60e51b815260206004820152601f60248201527f43616e6e6f74206d6f6469667920617070726f76656420636f6e7472616374006044820152606490fd5b9080821461280a5761274881546125bc565b906001600160401b03821161117057819061276782611b3486546125bc565b600090601f831160011461279e57600092612793575b50508160011b916000199060031b1c1916179055565b01549050388061277d565b81526020808220858352818320935090601f1985169083905b8282106127f15750509084600195949392106127d8575b505050811b019055565b015460001960f88460031b161c191690553880806127ce565b84958192958501548155600180910196019401906127b7565b5050565b9060405191826000825492612822846125bc565b908184526001948581169081600014612891575060011461284e575b505061284c9250038361244d565b565b9093915060005260209081600020936000915b81831061287957505061284c9350820101388061283e565b85548884018501529485019487945091830191612861565b91505061284c94506020925060ff191682840152151560051b820101388061283e565b156128bb57565b60405162461bcd60e51b8152602060048201526013602482015272125b9d985b1a590818dbdb9d1c9858dd081251606a1b6044820152606490fd5b91600092835260209260088452604081209160405190612915826123fc565b4282528582019485526001600160a01b039081166040830190815260608301978852845490919068010000000000000000811015612b4257600195868201808255821015612b2e5785528785209060021b019251835584830195519586516001600160401b0397888211612b1a5761299182611c7685546125bc565b8990601f8311600114612ab2576003969594939291889183612aa7575b505060001982881b1c191690881b1790555b600283019151166bffffffffffffffffffffffff60a01b8254161790550194518051938411612a93576129fd846129f788546125bc565b886125f6565b8491601f8511600114612a35579394508492919083612a2a575b50501b916000199060031b1c1916179055565b015192503880612a17565b86815285812093958591601f198316915b88838310612a795750505010612a6057505050811b019055565b015160001960f88460031b161c191690553880806127ce565b858701518855909601959485019487935090810190612a46565b634e487b7160e01b82526041600452602482fd5b0151905038806129ae565b95949392918891601f19821690848a528c8a20918d8b905b828210612b03575050988360039a10612aeb575b505050811b0190556129c0565b0151600019838a1b60f8161c19169055388080612ade565b838c015185558d969094019392830192018e612aca565b634e487b7160e01b87526041600452602487fd5b634e487b7160e01b86526032600452602486fd5b634e487b7160e01b85526041600452602485fdfea2646970667358221220f208601e5a1127db25c8c132ae6ab970f94c23325d0af50e14084f62863d9c2b64736f6c63430008140033",
  "linkReferences": {},
  "deployedLinkReferences": {}
}