{
  "_format": "hh-sol-artifact-1",
  "contractName": "ProcurementApproval",
  "sourceName": "contracts/ProcurementApproval.sol",
  "abi": [
    {
      "inputs": [
        {
          "internalType": "address[]",
          "name": "_approvers",
          "type": "address[]"
        }
      ],
      "stateMutability": "nonpayable",
      "type": "constructor"
    },
    {
      "anonymous": false,
      "inputs": [
        {
          "indexed": false,
          "internalType": "uint256",
          "name": "contractId",
          "type": "uint256"
        },
        {
          "indexed": false,
          "internalType": "string",
          "name": "title",
          "type": "string"
        },
        {
          "indexed": false,
          "internalType": "address",
          "name": "creator",
          "type": "address"
        }
      ],
      "name": "ContractCreated",
      "type": "event"
    },
    {
      "anonymous": false,
      "inputs": [
        {
          "indexed": false,
          "internalType": "uint256",
          "name": "contractId",
          "type": "uint256"
        },
        {
          "indexed": false,
          "internalType": "uint256",
          "name": "newValue",
          "type": "uint256"
        },
        {
          "indexed": false,
          "internalType": "address",
          "name": "modifiedBy",
          "type": "address"
        }
      ],
      "name": "ContractModified",
      "type": "event"
    },
    {
      "inputs": [
        {
          "internalType": "uint256",
          "name": "_id",
          "type": "uint256"
        }
      ],
      "name": "approveContract",
      "outputs": [],
      "stateMutability": "nonpayable",
      "type": "function"
    },
    {
      "inputs": [
        {
          "internalType": "uint256",
          "name": "",
          "type": "uint256"
        }
      ],
      "name": "approvers",
      "outputs": [
        {
          "internalType": "address",
          "name": "",
          "type": "address"
        }
      ],
      "stateMutability": "view",
      "type": "function"
    },
    {
      "inputs": [],
      "name": "contractCounter",
      "outputs": [
        {
          "internalType": "uint256",
          "name": "",
          "type": "uint256"
        }
      ],
      "stateMutability": "view",
      "type": "function"
    },
    {
      "inputs": [
        {
          "internalType": "string",
          "name": "_title",
          "type": "string"
        },
        {
          "internalType": "string",
          "name": "_description",
          "type": "string"
        },
        {
          "internalType": "uint256",
          "name": "_value",
          "type": "uint256"
        },
        {
          "internalType": "string",
          "name": "_fileHash",
          "type": "string"
        }
      ],
      "name": "createContract",
      "outputs": [
        {
          "internalType": "uint256",
          "name": "",
          "type": "uint256"
        }
      ],
      "stateMutability": "nonpayable",
      "type": "function"
    },
    {
      "inputs": [],
      "name": "getApprovers",
      "outputs": [
        {
          "internalType": "address[]",
          "name": "",
          "type": "address[]"
        }
      ],
      "stateMutability": "view",
      "type": "function"
    },
    {
      "inputs": [
        {
          "internalType": "uint256",
          "name": "_id",
          "type": "uint256"
        }
      ],
      "name": "getContract",
      "outputs": [
        {
          "internalType": "uint256",
          "name": "id",
          "type": "uint256"
        },
        {
          "internalType": "string",
          "name": "title",
          "type": "string"
        },
        {
          "internalType": "string",
          "name": "description",
          "type": "string"
        },
        {
          "internalType": "address",
          "name": "creator",
          "type": "address"
        },
        {
          "internalType": "uint256",
          "name": "value",
          "type": "uint256"
        },
        {
          "internalType": "string",
          "name": "fileHash",
          "type": "string"
        },
        {
          "internalType": "uint256",
          "name": "approvals",
          "type": "uint256"
        },
        {
          "internalType": "bool",
          "name": "isApproved",
          "type": "bool"
        },
        {
          "internalType": "uint256",
          "name": "lastModified",
          "type": "uint256"
        }
      ],
      "stateMutability": "view",
      "type": "function"
    },
    {
      "inputs": [
        {
          "internalType": "address",
          "name": "user",
          "type": "address"
        }
      ],
      "name": "getUserRole",
      "outputs": [
        {
          "internalType": "string",
          "name": "",
          "type": "string"
        }
      ],
      "stateMutability": "view",
      "type": "function"
    },
    {
      "inputs": [
        {
          "internalType": "uint256",
          "name": "_id",
          "type": "uint256"
        },
        {
          "internalType": "uint256",
          "name": "_newValue",
          "type": "uint256"
        }
      ],
      "name": "modifyContractValue",
      "outputs": [],
      "stateMutability": "nonpayable",
      "type": "function"
    },
    {
      "inputs": [],
      "name": "owner",
      "outputs": [
        {
          "internalType": "address",
          "name": "",
          "type": "address"
        }
      ],
      "stateMutability": "view",
      "type": "function"
    },
    {
      "inputs": [
        {
          "internalType": "address",
          "name": "",
          "type": "address"
        }
      ],
      "name": "roles",
      "outputs": [
        {
          "internalType": "enum ProcurementApproval.Role",
          "name": "",
          "type": "uint8"
        }
      ],
      "stateMutability": "view",
      "type": "function"
    },
    {
      "inputs": [
        {
          "internalType": "address",
          "name": "user",
          "type": "address"
        },
        {
          "internalType": "string",
          "name": "role",
          "type": "string"
        }
      ],
      "name": "setUserRole",
      "outputs": [],
      "stateMutability": "nonpayable",
      "type": "function"
    }
  ],
  "bytecode": "0x60806040523480156200001157600080fd5b506040516200261638038062002616833981810160405281019062000037919062000449565b336000806101000a81548173ffffffffffffffffffffffffffffffffffffffff021916908373ffffffffffffffffffffffffffffffffffffffff16021790555060018060003373ffffffffffffffffffffffffffffffffffffffff1673ffffffffffffffffffffffffffffffffffffffff16815260200190815260200160002060006101000a81548160ff02191690836003811115620000dc57620000db6200049a565b5b02179055508060049080519060200190620000f9929190620001ad565b5060005b8151811015620001a557600260016000848481518110620001235762000122620004c9565b5b602002602001015173ffffffffffffffffffffffffffffffffffffffff1673ffffffffffffffffffffffffffffffffffffffff16815260200190815260200160002060006101000a81548160ff021916908360038111156200018a57620001896200049a565b5b021790555080806200019c9062000531565b915050620000fd565b50506200057e565b82805482825590600052602060002090810192821562000229579160200282015b82811115620002285782518260006101000a81548173ffffffffffffffffffffffffffffffffffffffff021916908373ffffffffffffffffffffffffffffffffffffffff16021790555091602001919060010190620001ce565b5b5090506200023891906200023c565b5090565b5b80821115620002575760008160009055506001016200023d565b5090565b6000604051905090565b600080fd5b600080fd5b600080fd5b6000601f19601f8301169050919050565b7f4e487b7100000000000000000000000000000000000000000000000000000000600052604160045260246000fd5b620002bf8262000274565b810181811067ffffffffffffffff82111715620002e157620002e062000285565b5b80604052505050565b6000620002f66200025b565b9050620003048282620002b4565b919050565b600067ffffffffffffffff82111562000327576200032662000285565b5b602082029050602081019050919050565b600080fd5b600073ffffffffffffffffffffffffffffffffffffffff82169050919050565b60006200036a826200033d565b9050919050565b6200037c816200035d565b81146200038857600080fd5b50565b6000815190506200039c8162000371565b92915050565b6000620003b9620003b38462000309565b620002ea565b90508083825260208201905060208402830185811115620003df57620003de62000338565b5b835b818110156200040c5780620003f788826200038b565b845260208401935050602081019050620003e1565b5050509392505050565b600082601f8301126200042e576200042d6200026f565b5b815162000440848260208601620003a2565b91505092915050565b60006020828403121562000462576200046162000265565b5b600082015167ffffffffffffffff8111156200048357620004826200026a565b5b620004918482850162000416565b91505092915050565b7f4e487b7100000000000000000000000000000000000000000000000000000000600052602160045260246000fd5b7f4e487b7100000000000000000000000000000000000000000000000000000000600052603260045260246000fd5b7f4e487b7100000000000000000000000000000000000000000000000000000000600052601160045260246000fd5b6000819050919050565b60006200053e8262000527565b91507fffffffffffffffffffffffffffffffffffffffffffffffffffffffffffffffff8203620005735762000572620004f8565b5b600182019050919050565b612088806200058e6000396000f3fe608060405234801561001057600080fd5b50600436106100a95760003560e01c80636cb3e8ef116100715780636cb3e8ef146101645780636ebc8c8614610182578063724de979146101ba5780638da5cb5b146101d657806399374642146101f4578063d3650fb814610224576100a9565b8063067bd3b4146100ae578063254e5e22146100cc57806327820851146100fc57806362c35c011461012c578063650ed9b514610148575b600080fd5b6100b6610254565b6040516100c39190611111565b60405180910390f35b6100e660048036038101906100e191906112b2565b61025a565b6040516100f39190611111565b60405180910390f35b610116600480360381019061011191906113cb565b61043e565b6040516101239190611477565b60405180910390f35b61014660048036038101906101419190611499565b61069c565b005b610162600480360381019061015d91906114c6565b6108f6565b005b61016c610ac3565b60405161017991906115c4565b60405180910390f35b61019c60048036038101906101979190611499565b610b51565b6040516101b199989796959493929190611610565b60405180910390f35b6101d460048036038101906101cf91906116b2565b610d91565b005b6101de611075565b6040516101eb919061170e565b60405180910390f35b61020e600480360381019061020991906113cb565b611099565b60405161021b91906117a0565b60405180910390f35b61023e60048036038101906102399190611499565b6110b9565b60405161024b919061170e565b60405180910390f35b60025481565b6000600160038111156102705761026f611729565b5b600160003373ffffffffffffffffffffffffffffffffffffffff1673ffffffffffffffffffffffffffffffffffffffff16815260200190815260200160002060009054906101000a900460ff1660038111156102cf576102ce611729565b5b1461030f576040517f08c379a00000000000000000000000000000000000000000000000000000000081526004016103069061182d565b60405180910390fd5b600260008154809291906103229061187c565b91905055506000600360006002548152602001908152602001600020905060025481600001819055508581600101908161035c9190611ad0565b508481600201908161036e9190611ad0565b50338160030160006101000a81548173ffffffffffffffffffffffffffffffffffffffff021916908373ffffffffffffffffffffffffffffffffffffffff160217905550838160040181905550828160050190816103cc9190611ad0565b5060008160070160006101000a81548160ff0219169083151502179055504281600801819055507fdc2d392c6b95a9fbdfb129fe615d86a06fa7054018b2e633a2aad3cc47c381de600254873360405161042893929190611ba2565b60405180910390a1600254915050949350505050565b60606001600381111561045457610453611729565b5b600160008473ffffffffffffffffffffffffffffffffffffffff1673ffffffffffffffffffffffffffffffffffffffff16815260200190815260200160002060009054906101000a900460ff1660038111156104b3576104b2611729565b5b036104f5576040518060400160405280600b81526020017f50524f435552454d454e540000000000000000000000000000000000000000008152509050610697565b6002600381111561050957610508611729565b5b600160008473ffffffffffffffffffffffffffffffffffffffff1673ffffffffffffffffffffffffffffffffffffffff16815260200190815260200160002060009054906101000a900460ff16600381111561056857610567611729565b5b036105aa576040518060400160405280600881526020017f415050524f5645520000000000000000000000000000000000000000000000008152509050610697565b6003808111156105bd576105bc611729565b5b600160008473ffffffffffffffffffffffffffffffffffffffff1673ffffffffffffffffffffffffffffffffffffffff16815260200190815260200160002060009054906101000a900460ff16600381111561061c5761061b611729565b5b0361065e576040518060400160405280600781526020017f41554449544f52000000000000000000000000000000000000000000000000008152509050610697565b6040518060400160405280600481526020017f4e4f4e450000000000000000000000000000000000000000000000000000000081525090505b919050565b600260038111156106b0576106af611729565b5b600160003373ffffffffffffffffffffffffffffffffffffffff1673ffffffffffffffffffffffffffffffffffffffff16815260200190815260200160002060009054906101000a900460ff16600381111561070f5761070e611729565b5b1461074f576040517f08c379a000000000000000000000000000000000000000000000000000000000815260040161074690611c52565b60405180910390fd5b60006003600083815260200190815260200160002090508060070160009054906101000a900460ff16156107b8576040517f08c379a00000000000000000000000000000000000000000000000000000000081526004016107af90611cbe565b60405180910390fd5b8060090160003373ffffffffffffffffffffffffffffffffffffffff1673ffffffffffffffffffffffffffffffffffffffff16815260200190815260200160002060009054906101000a900460ff1615610847576040517f08c379a000000000000000000000000000000000000000000000000000000000815260040161083e90611d50565b60405180910390fd5b60018160090160003373ffffffffffffffffffffffffffffffffffffffff1673ffffffffffffffffffffffffffffffffffffffff16815260200190815260200160002060006101000a81548160ff0219169083151502179055508060060160008154809291906108b69061187c565b91905055504281600801819055506004805490508160060154106108f25760018160070160006101000a81548160ff0219169083151502179055505b5050565b6001600381111561090a57610909611729565b5b600160003373ffffffffffffffffffffffffffffffffffffffff1673ffffffffffffffffffffffffffffffffffffffff16815260200190815260200160002060009054906101000a900460ff16600381111561096957610968611729565b5b146109a9576040517f08c379a00000000000000000000000000000000000000000000000000000000081526004016109a09061182d565b60405180910390fd5b60006003600084815260200190815260200160002090508060070160009054906101000a900460ff1615610a12576040517f08c379a0000000000000000000000000000000000000000000000000000000008152600401610a0990611de2565b60405180910390fd5b6064606e8260040154610a259190611e02565b610a2f9190611e73565b821115610a71576040517f08c379a0000000000000000000000000000000000000000000000000000000008152600401610a6890611f16565b60405180910390fd5b8181600401819055504281600801819055507f5d269508dd2331f686991c0451aa12ac85618322cc4af4ed81afe62313e548f4838333604051610ab693929190611f36565b60405180910390a1505050565b60606004805480602002602001604051908101604052809291908181526020018280548015610b4757602002820191906000526020600020905b8160009054906101000a900473ffffffffffffffffffffffffffffffffffffffff1673ffffffffffffffffffffffffffffffffffffffff1681526020019060010190808311610afd575b5050505050905090565b60006060806000806060600080600080600360008c81526020019081526020016000209050806000015481600101826002018360030160009054906101000a900473ffffffffffffffffffffffffffffffffffffffff1684600401548560050186600601548760070160009054906101000a900460ff168860080154878054610bd9906118f3565b80601f0160208091040260200160405190810160405280929190818152602001828054610c05906118f3565b8015610c525780601f10610c2757610100808354040283529160200191610c52565b820191906000526020600020905b815481529060010190602001808311610c3557829003601f168201915b50505050509750868054610c65906118f3565b80601f0160208091040260200160405190810160405280929190818152602001828054610c91906118f3565b8015610cde5780601f10610cb357610100808354040283529160200191610cde565b820191906000526020600020905b815481529060010190602001808311610cc157829003601f168201915b50505050509650838054610cf1906118f3565b80601f0160208091040260200160405190810160405280929190818152602001828054610d1d906118f3565b8015610d6a5780601f10610d3f57610100808354040283529160200191610d6a565b820191906000526020600020905b815481529060010190602001808311610d4d57829003601f168201915b50505050509350995099509950995099509950995099509950509193959799909294969850565b60008054906101000a900473ffffffffffffffffffffffffffffffffffffffff1673ffffffffffffffffffffffffffffffffffffffff163373ffffffffffffffffffffffffffffffffffffffff1614610e1f576040517f08c379a0000000000000000000000000000000000000000000000000000000008152600401610e1690611fdf565b60405180910390fd5b600081604051602001610e32919061203b565b6040516020818303038152906040528051906020012090507fefbe400860bb353135b2bd4b0bcac4e794c215c4ac9aa97695e206ca2de918fa8103610edd5760018060008573ffffffffffffffffffffffffffffffffffffffff1673ffffffffffffffffffffffffffffffffffffffff16815260200190815260200160002060006101000a81548160ff02191690836003811115610ed357610ed2611729565b5b0217905550611070565b7f5ff1fb0ce9089603e6e193667ed17164e0360a6148f4a39fc194055588948a318103610f71576002600160008573ffffffffffffffffffffffffffffffffffffffff1673ffffffffffffffffffffffffffffffffffffffff16815260200190815260200160002060006101000a81548160ff02191690836003811115610f6757610f66611729565b5b021790555061106f565b7fd8994f6d76f930dc5ea8c60e38e6334a87bb8539cc3082ac6828681c33316e3d8103611005576003600160008573ffffffffffffffffffffffffffffffffffffffff1673ffffffffffffffffffffffffffffffffffffffff16815260200190815260200160002060006101000a81548160ff02191690836003811115610ffb57610ffa611729565b5b021790555061106e565b6000600160008573ffffffffffffffffffffffffffffffffffffffff1673ffffffffffffffffffffffffffffffffffffffff16815260200190815260200160002060006101000a81548160ff0219169083600381111561106857611067611729565b5b02179055505b5b5b505050565b60008054906101000a900473ffffffffffffffffffffffffffffffffffffffff1681565b60016020528060005260406000206000915054906101000a900460ff1681565b600481815481106110c957600080fd5b906000526020600020016000915054906101000a900473ffffffffffffffffffffffffffffffffffffffff1681565b6000819050919050565b61110b816110f8565b82525050565b60006020820190506111266000830184611102565b92915050565b6000604051905090565b600080fd5b600080fd5b600080fd5b600080fd5b6000601f19601f8301169050919050565b7f4e487b7100000000000000000000000000000000000000000000000000000000600052604160045260246000fd5b6111938261114a565b810181811067ffffffffffffffff821117156111b2576111b161115b565b5b80604052505050565b60006111c561112c565b90506111d1828261118a565b919050565b600067ffffffffffffffff8211156111f1576111f061115b565b5b6111fa8261114a565b9050602081019050919050565b82818337600083830152505050565b6000611229611224846111d6565b6111bb565b90508281526020810184848401111561124557611244611145565b5b611250848285611207565b509392505050565b600082601f83011261126d5761126c611140565b5b813561127d848260208601611216565b91505092915050565b61128f816110f8565b811461129a57600080fd5b50565b6000813590506112ac81611286565b92915050565b600080600080608085870312156112cc576112cb611136565b5b600085013567ffffffffffffffff8111156112ea576112e961113b565b5b6112f687828801611258565b945050602085013567ffffffffffffffff8111156113175761131661113b565b5b61132387828801611258565b93505060406113348782880161129d565b925050606085013567ffffffffffffffff8111156113555761135461113b565b5b61136187828801611258565b91505092959194509250565b600073ffffffffffffffffffffffffffffffffffffffff82169050919050565b60006113988261136d565b9050919050565b6113a88161138d565b81146113b357600080fd5b50565b6000813590506113c58161139f565b92915050565b6000602082840312156113e1576113e0611136565b5b60006113ef848285016113b6565b91505092915050565b600081519050919050565b600082825260208201905092915050565b60005b83811015611432578082015181840152602081019050611417565b60008484015250505050565b6000611449826113f8565b6114538185611403565b9350611463818560208601611414565b61146c8161114a565b840191505092915050565b60006020820190508181036000830152611491818461143e565b905092915050565b6000602082840312156114af576114ae611136565b5b60006114bd8482850161129d565b91505092915050565b600080604083850312156114dd576114dc611136565b5b60006114eb8582860161129d565b92505060206114fc8582860161129d565b9150509250929050565b600081519050919050565b600082825260208201905092915050565b6000819050602082019050919050565b61153b8161138d565b82525050565b600061154d8383611532565b60208301905092915050565b6000602082019050919050565b600061157182611506565b61157b8185611511565b935061158683611522565b8060005b838110156115b757815161159e8882611541565b97506115a983611559565b92505060018101905061158a565b5085935050505092915050565b600060208201905081810360008301526115de8184611566565b905092915050565b6115ef8161138d565b82525050565b60008115159050919050565b61160a816115f5565b82525050565b600061012082019050611626600083018c611102565b8181036020830152611638818b61143e565b9050818103604083015261164c818a61143e565b905061165b60608301896115e6565b6116686080830188611102565b81810360a083015261167a818761143e565b905061168960c0830186611102565b61169660e0830185611601565b6116a4610100830184611102565b9a9950505050505050505050565b600080604083850312156116c9576116c8611136565b5b60006116d7858286016113b6565b925050602083013567ffffffffffffffff8111156116f8576116f761113b565b5b61170485828601611258565b9150509250929050565b600060208201905061172360008301846115e6565b92915050565b7f4e487b7100000000000000000000000000000000000000000000000000000000600052602160045260246000fd5b6004811061176957611768611729565b5b50565b600081905061177a82611758565b919050565b600061178a8261176c565b9050919050565b61179a8161177f565b82525050565b60006020820190506117b56000830184611791565b92915050565b7f4f6e6c792070726f637572656d656e74206f666669636572732063616e20706560008201527f72666f726d207468697320616374696f6e2e0000000000000000000000000000602082015250565b6000611817603283611403565b9150611822826117bb565b604082019050919050565b600060208201905081810360008301526118468161180a565b9050919050565b7f4e487b7100000000000000000000000000000000000000000000000000000000600052601160045260246000fd5b6000611887826110f8565b91507fffffffffffffffffffffffffffffffffffffffffffffffffffffffffffffffff82036118b9576118b861184d565b5b600182019050919050565b7f4e487b7100000000000000000000000000000000000000000000000000000000600052602260045260246000fd5b6000600282049050600182168061190b57607f821691505b60208210810361191e5761191d6118c4565b5b50919050565b60008190508160005260206000209050919050565b60006020601f8301049050919050565b600082821b905092915050565b6000600883026119867fffffffffffffffffffffffffffffffffffffffffffffffffffffffffffffffff82611949565b6119908683611949565b95508019841693508086168417925050509392505050565b6000819050919050565b60006119cd6119c86119c3846110f8565b6119a8565b6110f8565b9050919050565b6000819050919050565b6119e7836119b2565b6119fb6119f3826119d4565b848454611956565b825550505050565b600090565b611a10611a03565b611a1b8184846119de565b505050565b5b81811015611a3f57611a34600082611a08565b600181019050611a21565b5050565b601f821115611a8457611a5581611924565b611a5e84611939565b81016020851015611a6d578190505b611a81611a7985611939565b830182611a20565b50505b505050565b600082821c905092915050565b6000611aa760001984600802611a89565b1980831691505092915050565b6000611ac08383611a96565b9150826002028217905092915050565b611ad9826113f8565b67ffffffffffffffff811115611af257611af161115b565b5b611afc82546118f3565b611b07828285611a43565b600060209050601f831160018114611b3a5760008415611b28578287015190505b611b328582611ab4565b865550611b9a565b601f198416611b4886611924565b60005b82811015611b7057848901518255600182019150602085019450602081019050611b4b565b86831015611b8d5784890151611b89601f891682611a96565b8355505b6001600288020188555050505b505050505050565b6000606082019050611bb76000830186611102565b8181036020830152611bc9818561143e565b9050611bd860408301846115e6565b949350505050565b7f4f6e6c7920617070726f766572732063616e20706572666f726d20746869732060008201527f616374696f6e2e00000000000000000000000000000000000000000000000000602082015250565b6000611c3c602783611403565b9150611c4782611be0565b604082019050919050565b60006020820190508181036000830152611c6b81611c2f565b9050919050565b7f436f6e747261637420616c72656164792066756c6c7920617070726f7665642e600082015250565b6000611ca8602083611403565b9150611cb382611c72565b602082019050919050565b60006020820190508181036000830152611cd781611c9b565b9050919050565b7f596f75206861766520616c726561647920617070726f7665642074686973206360008201527f6f6e74726163742e000000000000000000000000000000000000000000000000602082015250565b6000611d3a602883611403565b9150611d4582611cde565b604082019050919050565b60006020820190508181036000830152611d6981611d2d565b9050919050565b7f417070726f76656420636f6e7472616374732063616e6e6f74206265206d6f6460008201527f69666965642e0000000000000000000000000000000000000000000000000000602082015250565b6000611dcc602683611403565b9150611dd782611d70565b604082019050919050565b60006020820190508181036000830152611dfb81611dbf565b9050919050565b6000611e0d826110f8565b9150611e18836110f8565b9250828202611e26816110f8565b91508282048414831517611e3d57611e3c61184d565b5b5092915050565b7f4e487b7100000000000000000000000000000000000000000000000000000000600052601260045260246000fd5b6000611e7e826110f8565b9150611e89836110f8565b925082611e9957611e98611e44565b5b828204905092915050565b7f56616c756520696e637265617365206578636565647320616c6c6f776564207460008201527f68726573686f6c642028313025292e0000000000000000000000000000000000602082015250565b6000611f00602f83611403565b9150611f0b82611ea4565b604082019050919050565b60006020820190508181036000830152611f2f81611ef3565b9050919050565b6000606082019050611f4b6000830186611102565b611f586020830185611102565b611f6560408301846115e6565b949350505050565b7f4f6e6c79206f776e65722063616e20706572666f726d2074686973206163746960008201527f6f6e2e0000000000000000000000000000000000000000000000000000000000602082015250565b6000611fc9602383611403565b9150611fd482611f6d565b604082019050919050565b60006020820190508181036000830152611ff881611fbc565b9050919050565b600081905092915050565b6000612015826113f8565b61201f8185611fff565b935061202f818560208601611414565b80840191505092915050565b6000612047828461200a565b91508190509291505056fea2646970667358221220761939a96aea5b01b723369c9bb2243ef747866eb53b439af1988b624e5d0dd264736f6c63430008140033",
  "linkReferences": {},
  "deployedLinkReferences": {}
}