{
  "_format": "hh-sol-artifact-1",
  "contractName": "ProcurementApproval",
  "sourceName": "contracts/ProcurementApproval.sol",
  "abi": [
    {
      "inputs": [
        {
          "internalType": "address[]",
          "name": "_approvers",
          "type": "address[]"
        }
      ],
      "stateMutability": "nonpayable",
      "type": "constructor"
    },
    {
      "inputs": [
        {
          "internalType": "uint256",
          "name": "_id",
          "type": "uint256"
        }
      ],
      "name": "approveContract",
      "outputs": [],
      "stateMutability": "nonpayable",
      "type": "function"
    },
    {
      "inputs": [
        {
          "internalType": "uint256",
          "name": "",
          "type": "uint256"
        }
      ],
      "name": "approvers",
      "outputs": [
        {
          "internalType": "address",
          "name": "",
          "type": "address"
        }
      ],
      "stateMutability": "view",
      "type": "function"
    },
    {
      "inputs": [],
      "name": "contractCounter",
      "outputs": [
        {
          "internalType": "uint256",
          "name": "",
          "type": "uint256"
        }
      ],
      "stateMutability": "view",
      "type": "function"
    },
    {
      "inputs": [
        {
          "internalType": "string",
          "name": "_title",
          "type": "string"
        },
        {
          "internalType": "string",
          "name": "_description",
          "type": "string"
        }
      ],
      "name": "createContract",
      "outputs": [
        {
          "internalType": "uint256",
          "name": "",
          "type": "uint256"
        }
      ],
      "stateMutability": "nonpayable",
      "type": "function"
    },
    {
      "inputs": [],
      "name": "getApprovers",
      "outputs": [
        {
          "internalType": "address[]",
          "name": "",
          "type": "address[]"
        }
      ],
      "stateMutability": "view",
      "type": "function"
    },
    {
      "inputs": [
        {
          "internalType": "uint256",
          "name": "_id",
          "type": "uint256"
        }
      ],
      "name": "getContract",
      "outputs": [
        {
          "internalType": "uint256",
          "name": "id",
          "type": "uint256"
        },
        {
          "internalType": "string",
          "name": "title",
          "type": "string"
        },
        {
          "internalType": "string",
          "name": "description",
          "type": "string"
        },
        {
          "internalType": "address",
          "name": "creator",
          "type": "address"
        },
        {
          "internalType": "uint256",
          "name": "approvals",
          "type": "uint256"
        },
        {
          "internalType": "bool",
          "name": "isApproved",
          "type": "bool"
        }
      ],
      "stateMutability": "view",
      "type": "function"
    },
    {
      "inputs": [
        {
          "internalType": "address",
          "name": "user",
          "type": "address"
        }
      ],
      "name": "getUserRole",
      "outputs": [
        {
          "internalType": "string",
          "name": "",
          "type": "string"
        }
      ],
      "stateMutability": "view",
      "type": "function"
    },
    {
      "inputs": [],
      "name": "owner",
      "outputs": [
        {
          "internalType": "address",
          "name": "",
          "type": "address"
        }
      ],
      "stateMutability": "view",
      "type": "function"
    },
    {
      "inputs": [
        {
          "internalType": "address",
          "name": "",
          "type": "address"
        }
      ],
      "name": "roles",
      "outputs": [
        {
          "internalType": "enum ProcurementApproval.Role",
          "name": "",
          "type": "uint8"
        }
      ],
      "stateMutability": "view",
      "type": "function"
    },
    {
      "inputs": [
        {
          "internalType": "address",
          "name": "user",
          "type": "address"
        },
        {
          "internalType": "string",
          "name": "role",
          "type": "string"
        }
      ],
      "name": "setUserRole",
      "outputs": [],
      "stateMutability": "nonpayable",
      "type": "function"
    }
  ],
  "bytecode": "0x60806040523480156200001157600080fd5b506040516200201938038062002019833981810160405281019062000037919062000449565b336000806101000a81548173ffffffffffffffffffffffffffffffffffffffff021916908373ffffffffffffffffffffffffffffffffffffffff16021790555060018060003373ffffffffffffffffffffffffffffffffffffffff1673ffffffffffffffffffffffffffffffffffffffff16815260200190815260200160002060006101000a81548160ff02191690836003811115620000dc57620000db6200049a565b5b02179055508060049080519060200190620000f9929190620001ad565b5060005b8151811015620001a557600260016000848481518110620001235762000122620004c9565b5b602002602001015173ffffffffffffffffffffffffffffffffffffffff1673ffffffffffffffffffffffffffffffffffffffff16815260200190815260200160002060006101000a81548160ff021916908360038111156200018a57620001896200049a565b5b021790555080806200019c9062000531565b915050620000fd565b50506200057e565b82805482825590600052602060002090810192821562000229579160200282015b82811115620002285782518260006101000a81548173ffffffffffffffffffffffffffffffffffffffff021916908373ffffffffffffffffffffffffffffffffffffffff16021790555091602001919060010190620001ce565b5b5090506200023891906200023c565b5090565b5b80821115620002575760008160009055506001016200023d565b5090565b6000604051905090565b600080fd5b600080fd5b600080fd5b6000601f19601f8301169050919050565b7f4e487b7100000000000000000000000000000000000000000000000000000000600052604160045260246000fd5b620002bf8262000274565b810181811067ffffffffffffffff82111715620002e157620002e062000285565b5b80604052505050565b6000620002f66200025b565b9050620003048282620002b4565b919050565b600067ffffffffffffffff82111562000327576200032662000285565b5b602082029050602081019050919050565b600080fd5b600073ffffffffffffffffffffffffffffffffffffffff82169050919050565b60006200036a826200033d565b9050919050565b6200037c816200035d565b81146200038857600080fd5b50565b6000815190506200039c8162000371565b92915050565b6000620003b9620003b38462000309565b620002ea565b90508083825260208201905060208402830185811115620003df57620003de62000338565b5b835b818110156200040c5780620003f788826200038b565b845260208401935050602081019050620003e1565b5050509392505050565b600082601f8301126200042e576200042d6200026f565b5b815162000440848260208601620003a2565b91505092915050565b60006020828403121562000462576200046162000265565b5b600082015167ffffffffffffffff8111156200048357620004826200026a565b5b620004918482850162000416565b91505092915050565b7f4e487b7100000000000000000000000000000000000000000000000000000000600052602160045260246000fd5b7f4e487b7100000000000000000000000000000000000000000000000000000000600052603260045260246000fd5b7f4e487b7100000000000000000000000000000000000000000000000000000000600052601160045260246000fd5b6000819050919050565b60006200053e8262000527565b91507fffffffffffffffffffffffffffffffffffffffffffffffffffffffffffffffff8203620005735762000572620004f8565b5b600182019050919050565b611a8b806200058e6000396000f3fe608060405234801561001057600080fd5b506004361061009e5760003560e01c80636ebc8c86116100665780636ebc8c861461015b578063724de979146101905780638da5cb5b146101ac57806399374642146101ca578063d3650fb8146101fa5761009e565b8063067bd3b4146100a357806327820851146100c157806362c35c01146100f1578063631a42311461010d5780636cb3e8ef1461013d575b600080fd5b6100ab61022a565b6040516100b89190610e05565b60405180910390f35b6100db60048036038101906100d69190610e92565b610230565b6040516100e89190610f4f565b60405180910390f35b61010b60048036038101906101069190610f9d565b61048e565b005b610127600480360381019061012291906110ff565b6106df565b6040516101349190610e05565b60405180910390f35b610145610860565b6040516101529190611235565b60405180910390f35b61017560048036038101906101709190610f9d565b6108ee565b60405161018796959493929190611281565b60405180910390f35b6101aa60048036038101906101a591906112f0565b610a85565b005b6101b4610d69565b6040516101c1919061134c565b60405180910390f35b6101e460048036038101906101df9190610e92565b610d8d565b6040516101f191906113de565b60405180910390f35b610214600480360381019061020f9190610f9d565b610dad565b604051610221919061134c565b60405180910390f35b60025481565b60606001600381111561024657610245611367565b5b600160008473ffffffffffffffffffffffffffffffffffffffff1673ffffffffffffffffffffffffffffffffffffffff16815260200190815260200160002060009054906101000a900460ff1660038111156102a5576102a4611367565b5b036102e7576040518060400160405280600b81526020017f50524f435552454d454e540000000000000000000000000000000000000000008152509050610489565b600260038111156102fb576102fa611367565b5b600160008473ffffffffffffffffffffffffffffffffffffffff1673ffffffffffffffffffffffffffffffffffffffff16815260200190815260200160002060009054906101000a900460ff16600381111561035a57610359611367565b5b0361039c576040518060400160405280600881526020017f415050524f5645520000000000000000000000000000000000000000000000008152509050610489565b6003808111156103af576103ae611367565b5b600160008473ffffffffffffffffffffffffffffffffffffffff1673ffffffffffffffffffffffffffffffffffffffff16815260200190815260200160002060009054906101000a900460ff16600381111561040e5761040d611367565b5b03610450576040518060400160405280600781526020017f41554449544f52000000000000000000000000000000000000000000000000008152509050610489565b6040518060400160405280600481526020017f4e4f4e450000000000000000000000000000000000000000000000000000000081525090505b919050565b600260038111156104a2576104a1611367565b5b600160003373ffffffffffffffffffffffffffffffffffffffff1673ffffffffffffffffffffffffffffffffffffffff16815260200190815260200160002060009054906101000a900460ff16600381111561050157610500611367565b5b14610541576040517f08c379a00000000000000000000000000000000000000000000000000000000081526004016105389061146b565b60405180910390fd5b60006003600083815260200190815260200160002090508060050160009054906101000a900460ff16156105aa576040517f08c379a00000000000000000000000000000000000000000000000000000000081526004016105a1906114d7565b60405180910390fd5b8060060160003373ffffffffffffffffffffffffffffffffffffffff1673ffffffffffffffffffffffffffffffffffffffff16815260200190815260200160002060009054906101000a900460ff1615610639576040517f08c379a000000000000000000000000000000000000000000000000000000000815260040161063090611569565b60405180910390fd5b60018160060160003373ffffffffffffffffffffffffffffffffffffffff1673ffffffffffffffffffffffffffffffffffffffff16815260200190815260200160002060006101000a81548160ff0219169083151502179055508060040160008154809291906106a8906115b8565b91905055506004805490508160040154106106db5760018160050160006101000a81548160ff0219169083151502179055505b5050565b6000600160038111156106f5576106f4611367565b5b600160003373ffffffffffffffffffffffffffffffffffffffff1673ffffffffffffffffffffffffffffffffffffffff16815260200190815260200160002060009054906101000a900460ff16600381111561075457610753611367565b5b14610794576040517f08c379a000000000000000000000000000000000000000000000000000000000815260040161078b90611672565b60405180910390fd5b600260008154809291906107a7906115b8565b9190505550600060036000600254815260200190815260200160002090506002548160000181905550838160010190816107e1919061189e565b50828160020190816107f3919061189e565b50338160030160006101000a81548173ffffffffffffffffffffffffffffffffffffffff021916908373ffffffffffffffffffffffffffffffffffffffff16021790555060008160050160006101000a81548160ff02191690831515021790555060025491505092915050565b606060048054806020026020016040519081016040528092919081815260200182805480156108e457602002820191906000526020600020905b8160009054906101000a900473ffffffffffffffffffffffffffffffffffffffff1673ffffffffffffffffffffffffffffffffffffffff168152602001906001019080831161089a575b5050505050905090565b6000606080600080600080600360008981526020019081526020016000209050806000015481600101826002018360030160009054906101000a900473ffffffffffffffffffffffffffffffffffffffff1684600401548560050160009054906101000a900460ff16848054610963906116c1565b80601f016020809104026020016040519081016040528092919081815260200182805461098f906116c1565b80156109dc5780601f106109b1576101008083540402835291602001916109dc565b820191906000526020600020905b8154815290600101906020018083116109bf57829003601f168201915b505050505094508380546109ef906116c1565b80601f0160208091040260200160405190810160405280929190818152602001828054610a1b906116c1565b8015610a685780601f10610a3d57610100808354040283529160200191610a68565b820191906000526020600020905b815481529060010190602001808311610a4b57829003601f168201915b505050505093509650965096509650965096505091939550919395565b60008054906101000a900473ffffffffffffffffffffffffffffffffffffffff1673ffffffffffffffffffffffffffffffffffffffff163373ffffffffffffffffffffffffffffffffffffffff1614610b13576040517f08c379a0000000000000000000000000000000000000000000000000000000008152600401610b0a906119e2565b60405180910390fd5b600081604051602001610b269190611a3e565b6040516020818303038152906040528051906020012090507fefbe400860bb353135b2bd4b0bcac4e794c215c4ac9aa97695e206ca2de918fa8103610bd15760018060008573ffffffffffffffffffffffffffffffffffffffff1673ffffffffffffffffffffffffffffffffffffffff16815260200190815260200160002060006101000a81548160ff02191690836003811115610bc757610bc6611367565b5b0217905550610d64565b7f5ff1fb0ce9089603e6e193667ed17164e0360a6148f4a39fc194055588948a318103610c65576002600160008573ffffffffffffffffffffffffffffffffffffffff1673ffffffffffffffffffffffffffffffffffffffff16815260200190815260200160002060006101000a81548160ff02191690836003811115610c5b57610c5a611367565b5b0217905550610d63565b7fd8994f6d76f930dc5ea8c60e38e6334a87bb8539cc3082ac6828681c33316e3d8103610cf9576003600160008573ffffffffffffffffffffffffffffffffffffffff1673ffffffffffffffffffffffffffffffffffffffff16815260200190815260200160002060006101000a81548160ff02191690836003811115610cef57610cee611367565b5b0217905550610d62565b6000600160008573ffffffffffffffffffffffffffffffffffffffff1673ffffffffffffffffffffffffffffffffffffffff16815260200190815260200160002060006101000a81548160ff02191690836003811115610d5c57610d5b611367565b5b02179055505b5b5b505050565b60008054906101000a900473ffffffffffffffffffffffffffffffffffffffff1681565b60016020528060005260406000206000915054906101000a900460ff1681565b60048181548110610dbd57600080fd5b906000526020600020016000915054906101000a900473ffffffffffffffffffffffffffffffffffffffff1681565b6000819050919050565b610dff81610dec565b82525050565b6000602082019050610e1a6000830184610df6565b92915050565b6000604051905090565b600080fd5b600080fd5b600073ffffffffffffffffffffffffffffffffffffffff82169050919050565b6000610e5f82610e34565b9050919050565b610e6f81610e54565b8114610e7a57600080fd5b50565b600081359050610e8c81610e66565b92915050565b600060208284031215610ea857610ea7610e2a565b5b6000610eb684828501610e7d565b91505092915050565b600081519050919050565b600082825260208201905092915050565b60005b83811015610ef9578082015181840152602081019050610ede565b60008484015250505050565b6000601f19601f8301169050919050565b6000610f2182610ebf565b610f2b8185610eca565b9350610f3b818560208601610edb565b610f4481610f05565b840191505092915050565b60006020820190508181036000830152610f698184610f16565b905092915050565b610f7a81610dec565b8114610f8557600080fd5b50565b600081359050610f9781610f71565b92915050565b600060208284031215610fb357610fb2610e2a565b5b6000610fc184828501610f88565b91505092915050565b600080fd5b600080fd5b7f4e487b7100000000000000000000000000000000000000000000000000000000600052604160045260246000fd5b61100c82610f05565b810181811067ffffffffffffffff8211171561102b5761102a610fd4565b5b80604052505050565b600061103e610e20565b905061104a8282611003565b919050565b600067ffffffffffffffff82111561106a57611069610fd4565b5b61107382610f05565b9050602081019050919050565b82818337600083830152505050565b60006110a261109d8461104f565b611034565b9050828152602081018484840111156110be576110bd610fcf565b5b6110c9848285611080565b509392505050565b600082601f8301126110e6576110e5610fca565b5b81356110f684826020860161108f565b91505092915050565b6000806040838503121561111657611115610e2a565b5b600083013567ffffffffffffffff81111561113457611133610e2f565b5b611140858286016110d1565b925050602083013567ffffffffffffffff81111561116157611160610e2f565b5b61116d858286016110d1565b9150509250929050565b600081519050919050565b600082825260208201905092915050565b6000819050602082019050919050565b6111ac81610e54565b82525050565b60006111be83836111a3565b60208301905092915050565b6000602082019050919050565b60006111e282611177565b6111ec8185611182565b93506111f783611193565b8060005b8381101561122857815161120f88826111b2565b975061121a836111ca565b9250506001810190506111fb565b5085935050505092915050565b6000602082019050818103600083015261124f81846111d7565b905092915050565b61126081610e54565b82525050565b60008115159050919050565b61127b81611266565b82525050565b600060c0820190506112966000830189610df6565b81810360208301526112a88188610f16565b905081810360408301526112bc8187610f16565b90506112cb6060830186611257565b6112d86080830185610df6565b6112e560a0830184611272565b979650505050505050565b6000806040838503121561130757611306610e2a565b5b600061131585828601610e7d565b925050602083013567ffffffffffffffff81111561133657611335610e2f565b5b611342858286016110d1565b9150509250929050565b60006020820190506113616000830184611257565b92915050565b7f4e487b7100000000000000000000000000000000000000000000000000000000600052602160045260246000fd5b600481106113a7576113a6611367565b5b50565b60008190506113b882611396565b919050565b60006113c8826113aa565b9050919050565b6113d8816113bd565b82525050565b60006020820190506113f360008301846113cf565b92915050565b7f4f6e6c7920617070726f766572732063616e20706572666f726d20746869732060008201527f616374696f6e2e00000000000000000000000000000000000000000000000000602082015250565b6000611455602783610eca565b9150611460826113f9565b604082019050919050565b6000602082019050818103600083015261148481611448565b9050919050565b7f436f6e747261637420616c72656164792066756c6c7920617070726f7665642e600082015250565b60006114c1602083610eca565b91506114cc8261148b565b602082019050919050565b600060208201905081810360008301526114f0816114b4565b9050919050565b7f596f75206861766520616c726561647920617070726f7665642074686973206360008201527f6f6e74726163742e000000000000000000000000000000000000000000000000602082015250565b6000611553602883610eca565b915061155e826114f7565b604082019050919050565b6000602082019050818103600083015261158281611546565b9050919050565b7f4e487b7100000000000000000000000000000000000000000000000000000000600052601160045260246000fd5b60006115c382610dec565b91507fffffffffffffffffffffffffffffffffffffffffffffffffffffffffffffffff82036115f5576115f4611589565b5b600182019050919050565b7f4f6e6c792070726f637572656d656e74206f666669636572732063616e20706560008201527f72666f726d207468697320616374696f6e2e0000000000000000000000000000602082015250565b600061165c603283610eca565b915061166782611600565b604082019050919050565b6000602082019050818103600083015261168b8161164f565b9050919050565b7f4e487b7100000000000000000000000000000000000000000000000000000000600052602260045260246000fd5b600060028204905060018216806116d957607f821691505b6020821081036116ec576116eb611692565b5b50919050565b60008190508160005260206000209050919050565b60006020601f8301049050919050565b600082821b905092915050565b6000600883026117547fffffffffffffffffffffffffffffffffffffffffffffffffffffffffffffffff82611717565b61175e8683611717565b95508019841693508086168417925050509392505050565b6000819050919050565b600061179b61179661179184610dec565b611776565b610dec565b9050919050565b6000819050919050565b6117b583611780565b6117c96117c1826117a2565b848454611724565b825550505050565b600090565b6117de6117d1565b6117e98184846117ac565b505050565b5b8181101561180d576118026000826117d6565b6001810190506117ef565b5050565b601f82111561185257611823816116f2565b61182c84611707565b8101602085101561183b578190505b61184f61184785611707565b8301826117ee565b50505b505050565b600082821c905092915050565b600061187560001984600802611857565b1980831691505092915050565b600061188e8383611864565b9150826002028217905092915050565b6118a782610ebf565b67ffffffffffffffff8111156118c0576118bf610fd4565b5b6118ca82546116c1565b6118d5828285611811565b600060209050601f83116001811461190857600084156118f6578287015190505b6119008582611882565b865550611968565b601f198416611916866116f2565b60005b8281101561193e57848901518255600182019150602085019450602081019050611919565b8683101561195b5784890151611957601f891682611864565b8355505b6001600288020188555050505b505050505050565b7f4f6e6c79206f776e65722063616e20706572666f726d2074686973206163746960008201527f6f6e2e0000000000000000000000000000000000000000000000000000000000602082015250565b60006119cc602383610eca565b91506119d782611970565b604082019050919050565b600060208201905081810360008301526119fb816119bf565b9050919050565b600081905092915050565b6000611a1882610ebf565b611a228185611a02565b9350611a32818560208601610edb565b80840191505092915050565b6000611a4a8284611a0d565b91508190509291505056fea2646970667358221220bda8042a735a595390f509bee525cfd0e157408c7f29994d5af17f40c4273ecd64736f6c63430008140033",
  "linkReferences": {},
  "deployedLinkReferences": {}
}