{
  "_format": "hh-sol-artifact-1",
  "contractName": "ProcurementApproval",
  "sourceName": "contracts/ProcurementApproval.sol",
  "abi": [
    {
      "inputs": [
        {
          "internalType": "address[]",
          "name": "_approvers",
          "type": "address[]"
        },
        {
          "internalType": "address[]",
          "name": "_auditors",
          "type": "address[]"
        }
      ],
      "stateMutability": "nonpayable",
      "type": "constructor"
    },
    {
      "anonymous": false,
      "inputs": [
        {
          "indexed": false,
          "internalType": "uint256",
          "name": "id",
          "type": "uint256"
        },
        {
          "indexed": true,
          "internalType": "address",
          "name": "approver",
          "type": "address"
        }
      ],
      "name": "ContractApproved",
      "type": "event"
    },
    {
      "anonymous": false,
      "inputs": [
        {
          "indexed": false,
          "internalType": "uint256",
          "name": "id",
          "type": "uint256"
        },
        {
          "indexed": false,
          "internalType": "string",
          "name": "title",
          "type": "string"
        },
        {
          "indexed": true,
          "internalType": "address",
          "name": "creator",
          "type": "address"
        }
      ],
      "name": "ContractCreated",
      "type": "event"
    },
    {
      "anonymous": false,
      "inputs": [
        {
          "indexed": false,
          "internalType": "uint256",
          "name": "id",
          "type": "uint256"
        }
      ],
      "name": "ContractFullyApproved",
      "type": "event"
    },
    {
      "anonymous": false,
      "inputs": [
        {
          "indexed": false,
          "internalType": "uint256",
          "name": "id",
          "type": "uint256"
        },
        {
          "indexed": false,
          "internalType": "uint256",
          "name": "newValue",
          "type": "uint256"
        },
        {
          "indexed": true,
          "internalType": "address",
          "name": "modifiedBy",
          "type": "address"
        }
      ],
      "name": "ContractModified",
      "type": "event"
    },
    {
      "anonymous": false,
      "inputs": [
        {
          "indexed": false,
          "internalType": "uint256",
          "name": "contractId",
          "type": "uint256"
        },
        {
          "indexed": false,
          "internalType": "uint256",
          "name": "newValue",
          "type": "uint256"
        },
        {
          "indexed": true,
          "internalType": "address",
          "name": "appliedBy",
          "type": "address"
        }
      ],
      "name": "ModificationApplied",
      "type": "event"
    },
    {
      "anonymous": false,
      "inputs": [
        {
          "indexed": false,
          "internalType": "uint256",
          "name": "contractId",
          "type": "uint256"
        },
        {
          "indexed": true,
          "internalType": "address",
          "name": "rejectedBy",
          "type": "address"
        }
      ],
      "name": "ModificationRejected",
      "type": "event"
    },
    {
      "anonymous": false,
      "inputs": [
        {
          "indexed": false,
          "internalType": "uint256",
          "name": "contractId",
          "type": "uint256"
        },
        {
          "indexed": false,
          "internalType": "uint256",
          "name": "newValue",
          "type": "uint256"
        },
        {
          "indexed": true,
          "internalType": "address",
          "name": "requestedBy",
          "type": "address"
        }
      ],
      "name": "ModificationRequested",
      "type": "event"
    },
    {
      "anonymous": false,
      "inputs": [
        {
          "indexed": false,
          "internalType": "uint256",
          "name": "contractId",
          "type": "uint256"
        },
        {
          "indexed": true,
          "internalType": "address",
          "name": "reviewer",
          "type": "address"
        },
        {
          "indexed": false,
          "internalType": "bool",
          "name": "approved",
          "type": "bool"
        }
      ],
      "name": "ModificationReviewed",
      "type": "event"
    },
    {
      "anonymous": false,
      "inputs": [
        {
          "indexed": true,
          "internalType": "address",
          "name": "user",
          "type": "address"
        },
        {
          "indexed": false,
          "internalType": "uint256",
          "name": "contractId",
          "type": "uint256"
        },
        {
          "indexed": false,
          "internalType": "string",
          "name": "reason",
          "type": "string"
        }
      ],
      "name": "UnauthorizedModificationAttempt",
      "type": "event"
    },
    {
      "inputs": [],
      "name": "MAX_MODIFICATION_VALUE_INCREASE_PERCENT",
      "outputs": [
        {
          "internalType": "uint256",
          "name": "",
          "type": "uint256"
        }
      ],
      "stateMutability": "view",
      "type": "function"
    },
    {
      "inputs": [],
      "name": "MAX_TIME_EXTENSION_DAYS",
      "outputs": [
        {
          "internalType": "uint256",
          "name": "",
          "type": "uint256"
        }
      ],
      "stateMutability": "view",
      "type": "function"
    },
    {
      "inputs": [],
      "name": "MAX_VALUE_INCREASE_PERCENT",
      "outputs": [
        {
          "internalType": "uint256",
          "name": "",
          "type": "uint256"
        }
      ],
      "stateMutability": "view",
      "type": "function"
    },
    {
      "inputs": [
        {
          "internalType": "uint256",
          "name": "_id",
          "type": "uint256"
        }
      ],
      "name": "approveContract",
      "outputs": [],
      "stateMutability": "nonpayable",
      "type": "function"
    },
    {
      "inputs": [
        {
          "internalType": "uint256",
          "name": "",
          "type": "uint256"
        },
        {
          "internalType": "address",
          "name": "",
          "type": "address"
        }
      ],
      "name": "approvedBy",
      "outputs": [
        {
          "internalType": "bool",
          "name": "",
          "type": "bool"
        }
      ],
      "stateMutability": "view",
      "type": "function"
    },
    {
      "inputs": [
        {
          "internalType": "uint256",
          "name": "",
          "type": "uint256"
        }
      ],
      "name": "approvers",
      "outputs": [
        {
          "internalType": "address",
          "name": "",
          "type": "address"
        }
      ],
      "stateMutability": "view",
      "type": "function"
    },
    {
      "inputs": [],
      "name": "contractCounter",
      "outputs": [
        {
          "internalType": "uint256",
          "name": "",
          "type": "uint256"
        }
      ],
      "stateMutability": "view",
      "type": "function"
    },
    {
      "inputs": [
        {
          "internalType": "string",
          "name": "_title",
          "type": "string"
        },
        {
          "internalType": "string",
          "name": "_description",
          "type": "string"
        },
        {
          "internalType": "string",
          "name": "_supplierName",
          "type": "string"
        },
        {
          "internalType": "uint256",
          "name": "_value",
          "type": "uint256"
        },
        {
          "internalType": "string",
          "name": "_fileHash",
          "type": "string"
        },
        {
          "internalType": "uint256",
          "name": "_deliveryDate",
          "type": "uint256"
        }
      ],
      "name": "createContract",
      "outputs": [
        {
          "internalType": "uint256",
          "name": "",
          "type": "uint256"
        }
      ],
      "stateMutability": "nonpayable",
      "type": "function"
    },
    {
      "inputs": [],
      "name": "getAllContracts",
      "outputs": [
        {
          "components": [
            {
              "internalType": "uint256",
              "name": "id",
              "type": "uint256"
            },
            {
              "internalType": "string",
              "name": "title",
              "type": "string"
            },
            {
              "internalType": "string",
              "name": "description",
              "type": "string"
            },
            {
              "internalType": "string",
              "name": "supplierName",
              "type": "string"
            },
            {
              "internalType": "address",
              "name": "creator",
              "type": "address"
            },
            {
              "internalType": "uint256",
              "name": "value",
              "type": "uint256"
            },
            {
              "internalType": "string",
              "name": "fileHash",
              "type": "string"
            },
            {
              "internalType": "uint256",
              "name": "approvals",
              "type": "uint256"
            },
            {
              "internalType": "bool",
              "name": "isApproved",
              "type": "bool"
            },
            {
              "internalType": "uint256",
              "name": "lastModified",
              "type": "uint256"
            },
            {
              "internalType": "uint256",
              "name": "deliveryDate",
              "type": "uint256"
            }
          ],
          "internalType": "struct ProcurementApproval.ProcurementContract[]",
          "name": "",
          "type": "tuple[]"
        }
      ],
      "stateMutability": "view",
      "type": "function"
    },
    {
      "inputs": [
        {
          "internalType": "uint256",
          "name": "_contractId",
          "type": "uint256"
        }
      ],
      "name": "getAuditLogs",
      "outputs": [
        {
          "components": [
            {
              "internalType": "uint256",
              "name": "timestamp",
              "type": "uint256"
            },
            {
              "internalType": "string",
              "name": "action",
              "type": "string"
            },
            {
              "internalType": "address",
              "name": "actor",
              "type": "address"
            },
            {
              "internalType": "string",
              "name": "notes",
              "type": "string"
            }
          ],
          "internalType": "struct ProcurementApproval.AuditLog[]",
          "name": "",
          "type": "tuple[]"
        }
      ],
      "stateMutability": "view",
      "type": "function"
    },
    {
      "inputs": [
        {
          "internalType": "uint256",
          "name": "_id",
          "type": "uint256"
        }
      ],
      "name": "getContract",
      "outputs": [
        {
          "internalType": "uint256",
          "name": "id",
          "type": "uint256"
        },
        {
          "internalType": "string",
          "name": "title",
          "type": "string"
        },
        {
          "internalType": "string",
          "name": "description",
          "type": "string"
        },
        {
          "internalType": "string",
          "name": "supplierName",
          "type": "string"
        },
        {
          "internalType": "address",
          "name": "creator",
          "type": "address"
        },
        {
          "internalType": "uint256",
          "name": "value",
          "type": "uint256"
        },
        {
          "internalType": "string",
          "name": "fileHash",
          "type": "string"
        },
        {
          "internalType": "uint256",
          "name": "approvals",
          "type": "uint256"
        },
        {
          "internalType": "bool",
          "name": "isApproved",
          "type": "bool"
        },
        {
          "internalType": "uint256",
          "name": "lastModified",
          "type": "uint256"
        }
      ],
      "stateMutability": "view",
      "type": "function"
    },
    {
      "inputs": [
        {
          "internalType": "uint256",
          "name": "_id",
          "type": "uint256"
        }
      ],
      "name": "getDeliveryDate",
      "outputs": [
        {
          "internalType": "uint256",
          "name": "",
          "type": "uint256"
        }
      ],
      "stateMutability": "view",
      "type": "function"
    },
    {
      "inputs": [
        {
          "internalType": "address",
          "name": "_user",
          "type": "address"
        }
      ],
      "name": "getUserRole",
      "outputs": [
        {
          "internalType": "enum ProcurementApproval.Role",
          "name": "",
          "type": "uint8"
        }
      ],
      "stateMutability": "view",
      "type": "function"
    },
    {
      "inputs": [
        {
          "internalType": "uint256",
          "name": "_contractId",
          "type": "uint256"
        },
        {
          "internalType": "address",
          "name": "_user",
          "type": "address"
        }
      ],
      "name": "hasApproved",
      "outputs": [
        {
          "internalType": "bool",
          "name": "",
          "type": "bool"
        }
      ],
      "stateMutability": "view",
      "type": "function"
    },
    {
      "inputs": [
        {
          "internalType": "uint256",
          "name": "_contractId",
          "type": "uint256"
        },
        {
          "internalType": "address",
          "name": "_user",
          "type": "address"
        }
      ],
      "name": "hasReviewed",
      "outputs": [
        {
          "internalType": "bool",
          "name": "",
          "type": "bool"
        }
      ],
      "stateMutability": "view",
      "type": "function"
    },
    {
      "inputs": [
        {
          "internalType": "uint256",
          "name": "_contractId",
          "type": "uint256"
        }
      ],
      "name": "isModificationPending",
      "outputs": [
        {
          "internalType": "bool",
          "name": "",
          "type": "bool"
        }
      ],
      "stateMutability": "view",
      "type": "function"
    },
    {
      "inputs": [
        {
          "internalType": "uint256",
          "name": "_id",
          "type": "uint256"
        },
        {
          "internalType": "uint256",
          "name": "_newValue",
          "type": "uint256"
        }
      ],
      "name": "modifyContractValue",
      "outputs": [],
      "stateMutability": "nonpayable",
      "type": "function"
    },
    {
      "inputs": [],
      "name": "owner",
      "outputs": [
        {
          "internalType": "address",
          "name": "",
          "type": "address"
        }
      ],
      "stateMutability": "view",
      "type": "function"
    },
    {
      "inputs": [
        {
          "internalType": "uint256",
          "name": "_contractId",
          "type": "uint256"
        }
      ],
      "name": "rejectModificationRequest",
      "outputs": [],
      "stateMutability": "nonpayable",
      "type": "function"
    },
    {
      "inputs": [
        {
          "internalType": "uint256",
          "name": "_contractId",
          "type": "uint256"
        },
        {
          "internalType": "bool",
          "name": "approve",
          "type": "bool"
        }
      ],
      "name": "reviewModificationRequest",
      "outputs": [],
      "stateMutability": "nonpayable",
      "type": "function"
    },
    {
      "inputs": [
        {
          "internalType": "uint256",
          "name": "",
          "type": "uint256"
        },
        {
          "internalType": "address",
          "name": "",
          "type": "address"
        }
      ],
      "name": "reviewedBy",
      "outputs": [
        {
          "internalType": "bool",
          "name": "",
          "type": "bool"
        }
      ],
      "stateMutability": "view",
      "type": "function"
    },
    {
      "inputs": [
        {
          "internalType": "address",
          "name": "",
          "type": "address"
        }
      ],
      "name": "roles",
      "outputs": [
        {
          "internalType": "enum ProcurementApproval.Role",
          "name": "",
          "type": "uint8"
        }
      ],
      "stateMutability": "view",
      "type": "function"
    },
    {
      "inputs": [
        {
          "internalType": "uint256",
          "name": "_contractId",
          "type": "uint256"
        },
        {
          "internalType": "string",
          "name": "_newDescription",
          "type": "string"
        },
        {
          "internalType": "uint256",
          "name": "_newValue",
          "type": "uint256"
        },
        {
          "internalType": "uint256",
          "name": "_newDeliveryDate",
          "type": "uint256"
        }
      ],
      "name": "submitModificationRequest",
      "outputs": [],
      "stateMutability": "nonpayable",
      "type": "function"
    }
  ],
  "bytecode": "0x60806040523480156200001157600080fd5b5060405162004b2e38038062004b2e8339818101604052810190620000379190620004f6565b336000806101000a81548173ffffffffffffffffffffffffffffffffffffffff021916908373ffffffffffffffffffffffffffffffffffffffff16021790555060018060003373ffffffffffffffffffffffffffffffffffffffff1673ffffffffffffffffffffffffffffffffffffffff16815260200190815260200160002060006101000a81548160ff02191690836003811115620000dc57620000db6200057b565b5b02179055508160099080519060200190620000f99291906200025a565b5060005b8251811015620001a557600260016000858481518110620001235762000122620005aa565b5b602002602001015173ffffffffffffffffffffffffffffffffffffffff1673ffffffffffffffffffffffffffffffffffffffff16815260200190815260200160002060006101000a81548160ff021916908360038111156200018a57620001896200057b565b5b021790555080806200019c9062000612565b915050620000fd565b5060005b81518110156200025157600360016000848481518110620001cf57620001ce620005aa565b5b602002602001015173ffffffffffffffffffffffffffffffffffffffff1673ffffffffffffffffffffffffffffffffffffffff16815260200190815260200160002060006101000a81548160ff021916908360038111156200023657620002356200057b565b5b02179055508080620002489062000612565b915050620001a9565b5050506200065f565b828054828255906000526020600020908101928215620002d6579160200282015b82811115620002d55782518260006101000a81548173ffffffffffffffffffffffffffffffffffffffff021916908373ffffffffffffffffffffffffffffffffffffffff160217905550916020019190600101906200027b565b5b509050620002e59190620002e9565b5090565b5b8082111562000304576000816000905550600101620002ea565b5090565b6000604051905090565b600080fd5b600080fd5b600080fd5b6000601f19601f8301169050919050565b7f4e487b7100000000000000000000000000000000000000000000000000000000600052604160045260246000fd5b6200036c8262000321565b810181811067ffffffffffffffff821117156200038e576200038d62000332565b5b80604052505050565b6000620003a362000308565b9050620003b1828262000361565b919050565b600067ffffffffffffffff821115620003d457620003d362000332565b5b602082029050602081019050919050565b600080fd5b600073ffffffffffffffffffffffffffffffffffffffff82169050919050565b60006200041782620003ea565b9050919050565b62000429816200040a565b81146200043557600080fd5b50565b60008151905062000449816200041e565b92915050565b6000620004666200046084620003b6565b62000397565b905080838252602082019050602084028301858111156200048c576200048b620003e5565b5b835b81811015620004b95780620004a4888262000438565b8452602084019350506020810190506200048e565b5050509392505050565b600082601f830112620004db57620004da6200031c565b5b8151620004ed8482602086016200044f565b91505092915050565b6000806040838503121562000510576200050f62000312565b5b600083015167ffffffffffffffff81111562000531576200053062000317565b5b6200053f85828601620004c3565b925050602083015167ffffffffffffffff81111562000563576200056262000317565b5b6200057185828601620004c3565b9150509250929050565b7f4e487b7100000000000000000000000000000000000000000000000000000000600052602160045260246000fd5b7f4e487b7100000000000000000000000000000000000000000000000000000000600052603260045260246000fd5b7f4e487b7100000000000000000000000000000000000000000000000000000000600052601160045260246000fd5b6000819050919050565b60006200061f8262000608565b91507fffffffffffffffffffffffffffffffffffffffffffffffffffffffffffffffff8203620006545762000653620005d9565b5b600182019050919050565b6144bf806200066f6000396000f3fe608060405234801561001057600080fd5b506004361061014d5760003560e01c80636783dff9116100c357806398a6dedb1161007c57806398a6dedb146103f357806399374642146104235780639e3c725214610453578063d3650fb81461046f578063f73604c71461049f578063f9d52bed146104bd5761014d565b80636783dff9146102f05780636ebc8c861461030c5780637c7198cc1461034557806385667f1c146103755780638da5cb5b146103a55780639724eee5146103c35761014d565b8063238e5b8511610115578063238e5b851461021e578063278208511461023c5780633cedaa201461026c578063530ea55a1461028857806362c35c01146102b8578063650ed9b5146102d45761014d565b806301b1d3241461015257806303992ee714610182578063067bd3b4146101b257806318d3ce96146101d05780632358d5a8146101ee575b600080fd5b61016c60048036038101906101679190612afc565b6104db565b6040516101799190612d35565b60405180910390f35b61019c60048036038101906101979190612d83565b610783565b6040516101a99190612dde565b60405180910390f35b6101ba6107b2565b6040516101c79190612e08565b60405180910390f35b6101d86107b8565b6040516101e59190612ff8565b60405180910390f35b61020860048036038101906102039190612d83565b610b73565b6040516102159190612dde565b60405180910390f35b610226610bdb565b6040516102339190612e08565b60405180910390f35b6102566004803603810190610251919061301a565b610be0565b60405161026391906130be565b60405180910390f35b6102866004803603810190610281919061320e565b610c36565b005b6102a2600480360381019061029d9190612afc565b61117e565b6040516102af9190612e08565b60405180910390f35b6102d260048036038101906102cd9190612afc565b6111ee565b005b6102ee60048036038101906102e99190613291565b6115dc565b005b61030a60048036038101906103059190612afc565b6118e8565b005b61032660048036038101906103219190612afc565b6119a9565b60405161033c9a9998979695949392919061332a565b60405180910390f35b61035f600480360381019061035a9190612d83565b611cce565b60405161036c9190612dde565b60405180910390f35b61038f600480360381019061038a9190612d83565b611d36565b60405161039c9190612dde565b60405180910390f35b6103ad611d65565b6040516103ba91906133e2565b60405180910390f35b6103dd60048036038101906103d89190612afc565b611d89565b6040516103ea9190612dde565b60405180910390f35b61040d600480360381019061040891906133fd565b611db3565b60405161041a9190612e08565b60405180910390f35b61043d6004803603810190610438919061301a565b6121a1565b60405161044a91906130be565b60405180910390f35b61046d60048036038101906104689190613526565b6121c1565b005b61048960048036038101906104849190612afc565b612821565b60405161049691906133e2565b60405180910390f35b6104a7612860565b6040516104b49190612e08565b60405180910390f35b6104c5612865565b6040516104d29190612e08565b60405180910390f35b60606003808111156104f0576104ef613047565b5b600160003373ffffffffffffffffffffffffffffffffffffffff1673ffffffffffffffffffffffffffffffffffffffff16815260200190815260200160002060009054906101000a900460ff16600381111561054f5761054e613047565b5b1461058f576040517f08c379a0000000000000000000000000000000000000000000000000000000008152600401610586906135b2565b60405180910390fd5b60086000838152602001908152602001600020805480602002602001604051908101604052809291908181526020016000905b828210156107785783829060005260206000209060040201604051806080016040529081600082015481526020016001820180546105ff90613601565b80601f016020809104026020016040519081016040528092919081815260200182805461062b90613601565b80156106785780601f1061064d57610100808354040283529160200191610678565b820191906000526020600020905b81548152906001019060200180831161065b57829003601f168201915b505050505081526020016002820160009054906101000a900473ffffffffffffffffffffffffffffffffffffffff1673ffffffffffffffffffffffffffffffffffffffff1673ffffffffffffffffffffffffffffffffffffffff1681526020016003820180546106e790613601565b80601f016020809104026020016040519081016040528092919081815260200182805461071390613601565b80156107605780601f1061073557610100808354040283529160200191610760565b820191906000526020600020905b81548152906001019060200180831161074357829003601f168201915b505050505081525050815260200190600101906105c2565b505050509050919050565b60076020528160005260406000206020528060005260406000206000915091509054906101000a900460ff1681565b60025481565b6060600060025467ffffffffffffffff8111156107d8576107d76130e3565b5b60405190808252806020026020018201604052801561081157816020015b6107fe612a40565b8152602001906001900390816107f65790505b5090506000600190505b6002548111610b6b5760036000828152602001908152602001600020604051806101600160405290816000820154815260200160018201805461085d90613601565b80601f016020809104026020016040519081016040528092919081815260200182805461088990613601565b80156108d65780601f106108ab576101008083540402835291602001916108d6565b820191906000526020600020905b8154815290600101906020018083116108b957829003601f168201915b505050505081526020016002820180546108ef90613601565b80601f016020809104026020016040519081016040528092919081815260200182805461091b90613601565b80156109685780601f1061093d57610100808354040283529160200191610968565b820191906000526020600020905b81548152906001019060200180831161094b57829003601f168201915b5050505050815260200160038201805461098190613601565b80601f01602080910402602001604051908101604052809291908181526020018280546109ad90613601565b80156109fa5780601f106109cf576101008083540402835291602001916109fa565b820191906000526020600020905b8154815290600101906020018083116109dd57829003601f168201915b505050505081526020016004820160009054906101000a900473ffffffffffffffffffffffffffffffffffffffff1673ffffffffffffffffffffffffffffffffffffffff1673ffffffffffffffffffffffffffffffffffffffff16815260200160058201548152602001600682018054610a7390613601565b80601f0160208091040260200160405190810160405280929190818152602001828054610a9f90613601565b8015610aec5780601f10610ac157610100808354040283529160200191610aec565b820191906000526020600020905b815481529060010190602001808311610acf57829003601f168201915b50505050508152602001600782015481526020016008820160009054906101000a900460ff1615151515815260200160098201548152602001600a8201548152505082600183610b3c9190613661565b81518110610b4d57610b4c613695565b5b60200260200101819052508080610b63906136c4565b91505061081b565b508091505090565b60006006600084815260200190815260200160002060008373ffffffffffffffffffffffffffffffffffffffff1673ffffffffffffffffffffffffffffffffffffffff16815260200190815260200160002060009054906101000a900460ff16905092915050565b601981565b6000600160008373ffffffffffffffffffffffffffffffffffffffff1673ffffffffffffffffffffffffffffffffffffffff16815260200190815260200160002060009054906101000a900460ff169050919050565b60016003811115610c4a57610c49613047565b5b600160003373ffffffffffffffffffffffffffffffffffffffff1673ffffffffffffffffffffffffffffffffffffffff16815260200190815260200160002060009054906101000a900460ff166003811115610ca957610ca8613047565b5b14610ce9576040517f08c379a0000000000000000000000000000000000000000000000000000000008152600401610ce09061377e565b60405180910390fd5b600084118015610cfb57506002548411155b610d3a576040517f08c379a0000000000000000000000000000000000000000000000000000000008152600401610d31906137ea565b60405180910390fd5b6005600085815260200190815260200160002060009054906101000a900460ff1615610d9b576040517f08c379a0000000000000000000000000000000000000000000000000000000008152600401610d9290613856565b60405180910390fd5b60006003600086815260200190815260200160002090506000606460198360050154610dc79190613876565b610dd191906138e7565b8260050154610de09190613918565b905080841115610e73573373ffffffffffffffffffffffffffffffffffffffff167f576067e83f0214a6d12f8b14509bf9a711a4b5e8a0b4d131e20d034146c5d94087604051610e309190613998565b60405180910390a26040517f08c379a0000000000000000000000000000000000000000000000000000000008152600401610e6a906139c6565b60405180910390fd5b62015180601e610e839190613876565b82600a0154610e929190613918565b831115610f22573373ffffffffffffffffffffffffffffffffffffffff167f576067e83f0214a6d12f8b14509bf9a711a4b5e8a0b4d131e20d034146c5d94087604051610edf9190613a58565b60405180910390a26040517f08c379a0000000000000000000000000000000000000000000000000000000008152600401610f1990613a86565b60405180910390fd5b60005b600980549050811015610fec57600060076000898152602001908152602001600020600060098481548110610f5d57610f5c613695565b5b9060005260206000200160009054906101000a900473ffffffffffffffffffffffffffffffffffffffff1673ffffffffffffffffffffffffffffffffffffffff1673ffffffffffffffffffffffffffffffffffffffff16815260200190815260200160002060006101000a81548160ff0219169083151502179055508080610fe4906136c4565b915050610f25565b5060006004600088815260200190815260200160002090508681600001819055508581600101908161101e9190613c52565b50848160020181905550838160030181905550338160040160006101000a81548173ffffffffffffffffffffffffffffffffffffffff021916908373ffffffffffffffffffffffffffffffffffffffff16021790555060008160040160146101000a81548160ff02191690831515021790555060008160040160156101000a81548160ff0219169083151502179055506000816005018190555060016005600089815260200190815260200160002060006101000a81548160ff0219169083151502179055503373ffffffffffffffffffffffffffffffffffffffff167f717e0db543c76152346fcc3ab6910a281d12bcd0e9b0957223580e81be029ffe888760405161112c929190613d24565b60405180910390a2611175876040518060400160405280601681526020017f4d6f64696669636174696f6e2052657175657374656400000000000000000000815250338961286a565b50505050505050565b6000808211801561119157506002548211155b6111d0576040517f08c379a00000000000000000000000000000000000000000000000000000000081526004016111c7906137ea565b60405180910390fd5b60036000838152602001908152602001600020600a01549050919050565b6002600381111561120257611201613047565b5b600160003373ffffffffffffffffffffffffffffffffffffffff1673ffffffffffffffffffffffffffffffffffffffff16815260200190815260200160002060009054906101000a900460ff16600381111561126157611260613047565b5b146112a1576040517f08c379a000000000000000000000000000000000000000000000000000000000815260040161129890613d99565b60405180910390fd5b6000811180156112b357506002548111155b6112f2576040517f08c379a00000000000000000000000000000000000000000000000000000000081526004016112e9906137ea565b60405180910390fd5b60006003600083815260200190815260200160002090508060080160009054906101000a900460ff161561135b576040517f08c379a000000000000000000000000000000000000000000000000000000000815260040161135290613e05565b60405180910390fd5b6006600083815260200190815260200160002060003373ffffffffffffffffffffffffffffffffffffffff1673ffffffffffffffffffffffffffffffffffffffff16815260200190815260200160002060009054906101000a900460ff16156113f9576040517f08c379a00000000000000000000000000000000000000000000000000000000081526004016113f090613e71565b60405180910390fd5b60016006600084815260200190815260200160002060003373ffffffffffffffffffffffffffffffffffffffff1673ffffffffffffffffffffffffffffffffffffffff16815260200190815260200160002060006101000a81548160ff021916908315150217905550806007016000815480929190611477906136c4565b91905055504281600901819055503373ffffffffffffffffffffffffffffffffffffffff167f9a2dd59e3f91eee224a4cde5bedb4195d0a6efef40e136fd4f945d91b45a69e0836040516114cb9190612e08565b60405180910390a2611523826040518060400160405280601181526020017f436f6e747261637420417070726f766564000000000000000000000000000000815250336040518060200160405280600081525061286a565b6009805490508160070154106115d85760018160080160006101000a81548160ff0219169083151502179055507fd5557efea53b6a3fcd0a5cc0c1c846f8dd7c5c45b86fef3086802ece46a9bec78260405161157f9190612e08565b60405180910390a16115d7826040518060400160405280601781526020017f436f6e74726163742046756c6c7920417070726f766564000000000000000000815250336040518060200160405280600081525061286a565b5b5050565b600160038111156115f0576115ef613047565b5b600160003373ffffffffffffffffffffffffffffffffffffffff1673ffffffffffffffffffffffffffffffffffffffff16815260200190815260200160002060009054906101000a900460ff16600381111561164f5761164e613047565b5b1461168f576040517f08c379a00000000000000000000000000000000000000000000000000000000081526004016116869061377e565b60405180910390fd5b6000821180156116a157506002548211155b6116e0576040517f08c379a00000000000000000000000000000000000000000000000000000000081526004016116d7906137ea565b60405180910390fd5b60006003600084815260200190815260200160002090508060080160009054906101000a900460ff1615611749576040517f08c379a000000000000000000000000000000000000000000000000000000000815260040161174090613edd565b60405180910390fd5b60006064600a836005015461175e9190613876565b61176891906138e7565b82600501546117779190613918565b90508083111561180a573373ffffffffffffffffffffffffffffffffffffffff167f576067e83f0214a6d12f8b14509bf9a711a4b5e8a0b4d131e20d034146c5d940856040516117c79190613f49565b60405180910390a26040517f08c379a000000000000000000000000000000000000000000000000000000000815260040161180190613f77565b60405180910390fd5b8282600501819055504282600901819055503373ffffffffffffffffffffffffffffffffffffffff167f5d269508dd2331f686991c0451aa12ac85618322cc4af4ed81afe62313e548f48585604051611864929190613d24565b60405180910390a26118e2846040518060400160405280601581526020017f4469726563742056616c7565204d6f6469666965640000000000000000000000815250336040518060400160405280601081526020017f57697468696e20313025206c696d69740000000000000000000000000000000081525061286a565b50505050565b600260038111156118fc576118fb613047565b5b600160003373ffffffffffffffffffffffffffffffffffffffff1673ffffffffffffffffffffffffffffffffffffffff16815260200190815260200160002060009054906101000a900460ff16600381111561195b5761195a613047565b5b1461199b576040517f08c379a000000000000000000000000000000000000000000000000000000000815260040161199290613d99565b60405180910390fd5b6119a68160006121c1565b50565b6000606080606060008060606000806000808b1180156119cb57506002548b11155b611a0a576040517f08c379a0000000000000000000000000000000000000000000000000000000008152600401611a01906137ea565b60405180910390fd5b6000600360008d8152602001908152602001600020905080600001548160010182600201836003018460040160009054906101000a900473ffffffffffffffffffffffffffffffffffffffff1685600501548660060187600701548860080160009054906101000a900460ff168960090154888054611a8890613601565b80601f0160208091040260200160405190810160405280929190818152602001828054611ab490613601565b8015611b015780601f10611ad657610100808354040283529160200191611b01565b820191906000526020600020905b815481529060010190602001808311611ae457829003601f168201915b50505050509850878054611b1490613601565b80601f0160208091040260200160405190810160405280929190818152602001828054611b4090613601565b8015611b8d5780601f10611b6257610100808354040283529160200191611b8d565b820191906000526020600020905b815481529060010190602001808311611b7057829003601f168201915b50505050509750868054611ba090613601565b80601f0160208091040260200160405190810160405280929190818152602001828054611bcc90613601565b8015611c195780601f10611bee57610100808354040283529160200191611c19565b820191906000526020600020905b815481529060010190602001808311611bfc57829003601f168201915b50505050509650838054611c2c90613601565b80601f0160208091040260200160405190810160405280929190818152602001828054611c5890613601565b8015611ca55780601f10611c7a57610100808354040283529160200191611ca5565b820191906000526020600020905b815481529060010190602001808311611c8857829003601f168201915b505050505093509a509a509a509a509a509a509a509a509a509a50509193959799509193959799565b60006007600084815260200190815260200160002060008373ffffffffffffffffffffffffffffffffffffffff1673ffffffffffffffffffffffffffffffffffffffff16815260200190815260200160002060009054906101000a900460ff16905092915050565b60066020528160005260406000206020528060005260406000206000915091509054906101000a900460ff1681565b60008054906101000a900473ffffffffffffffffffffffffffffffffffffffff1681565b60006005600083815260200190815260200160002060009054906101000a900460ff169050919050565b600060016003811115611dc957611dc8613047565b5b600160003373ffffffffffffffffffffffffffffffffffffffff1673ffffffffffffffffffffffffffffffffffffffff16815260200190815260200160002060009054906101000a900460ff166003811115611e2857611e27613047565b5b14611e68576040517f08c379a0000000000000000000000000000000000000000000000000000000008152600401611e5f9061377e565b60405180910390fd5b6000875111611eac576040517f08c379a0000000000000000000000000000000000000000000000000000000008152600401611ea390613fe3565b60405180910390fd5b6000865111611ef0576040517f08c379a0000000000000000000000000000000000000000000000000000000008152600401611ee79061404f565b60405180910390fd5b6000855111611f34576040517f08c379a0000000000000000000000000000000000000000000000000000000008152600401611f2b906140bb565b60405180910390fd5b60008411611f77576040517f08c379a0000000000000000000000000000000000000000000000000000000008152600401611f6e90614127565b60405180910390fd5b6000835111611fbb576040517f08c379a0000000000000000000000000000000000000000000000000000000008152600401611fb290614193565b60405180910390fd5b428211611ffd576040517f08c379a0000000000000000000000000000000000000000000000000000000008152600401611ff490614225565b60405180910390fd5b60026000815480929190612010906136c4565b91905055506000600360006002548152602001908152602001600020905060025481600001819055508781600101908161204a9190613c52565b508681600201908161205c9190613c52565b508581600301908161206e9190613c52565b50338160040160006101000a81548173ffffffffffffffffffffffffffffffffffffffff021916908373ffffffffffffffffffffffffffffffffffffffff160217905550848160050181905550838160060190816120cc9190613c52565b5060008160080160006101000a81548160ff0219169083151502179055504281600901819055508281600a01819055503373ffffffffffffffffffffffffffffffffffffffff167fdc2d392c6b95a9fbdfb129fe615d86a06fa7054018b2e633a2aad3cc47c381de6002548a604051612146929190614245565b60405180910390a26121916002546040518060400160405280601081526020017f436f6e7472616374204372656174656400000000000000000000000000000000815250338b61286a565b6002549150509695505050505050565b60016020528060005260406000206000915054906101000a900460ff1681565b600260038111156121d5576121d4613047565b5b600160003373ffffffffffffffffffffffffffffffffffffffff1673ffffffffffffffffffffffffffffffffffffffff16815260200190815260200160002060009054906101000a900460ff16600381111561223457612233613047565b5b14612274576040517f08c379a000000000000000000000000000000000000000000000000000000000815260040161226b90613d99565b60405180910390fd5b60008211801561228657506002548211155b6122c5576040517f08c379a00000000000000000000000000000000000000000000000000000000081526004016122bc906137ea565b60405180910390fd5b6005600083815260200190815260200160002060009054906101000a900460ff16612325576040517f08c379a000000000000000000000000000000000000000000000000000000000815260040161231c906142c1565b60405180910390fd5b6007600083815260200190815260200160002060003373ffffffffffffffffffffffffffffffffffffffff1673ffffffffffffffffffffffffffffffffffffffff16815260200190815260200160002060009054906101000a900460ff16156123c3576040517f08c379a00000000000000000000000000000000000000000000000000000000081526004016123ba9061432d565b60405180910390fd5b60016007600084815260200190815260200160002060003373ffffffffffffffffffffffffffffffffffffffff1673ffffffffffffffffffffffffffffffffffffffff16815260200190815260200160002060006101000a81548160ff021916908315150217905550600060046000848152602001908152602001600020905081156124645780600501600081548092919061245e906136c4565b91905055505b3373ffffffffffffffffffffffffffffffffffffffff167f61f5cc44874187ca08ac991bd5f77753975740aea2737aa7a31fe5722f1249c584846040516124ac92919061434d565b60405180910390a261256b836040518060400160405280601581526020017f4d6f64696669636174696f6e2052657669657765640000000000000000000000815250338561252f576040518060400160405280600881526020017f52656a6563746564000000000000000000000000000000000000000000000000815250612566565b6040518060400160405280600881526020017f417070726f7665640000000000000000000000000000000000000000000000008152505b61286a565b6009805490508160050154106126da5760018160040160146101000a81548160ff02191690831515021790555060018160040160156101000a81548160ff0219169083151502179055506000600360008581526020019081526020016000209050816001018160020190816125e091906143a1565b5081600201548160050181905550816003015481600a018190555042816009018190555060006005600086815260200190815260200160002060006101000a81548160ff0219169083151502179055503373ffffffffffffffffffffffffffffffffffffffff167f1c9baca28300ec4686b3977a37589e5e8b3a21ccbe7416f8cab8c213a91eb80885846002015460405161267c929190613d24565b60405180910390a26126d4846040518060400160405280601481526020017f4d6f64696669636174696f6e204170706c696564000000000000000000000000815250336040518060200160405280600081525061286a565b5061281c565b60006126e584612962565b9050600980549050600283600501546126fe9190613876565b11158015612710575060098054905081145b1561281a5760006005600086815260200190815260200160002060006101000a81548160ff02191690831515021790555060018260040160146101000a81548160ff02191690831515021790555060008260040160156101000a81548160ff0219169083151502179055503373ffffffffffffffffffffffffffffffffffffffff167f2d8ffb7051deb57e6343abeb392fdfc2c403c703c718dd23ceedf87a1a18936f856040516127c19190612e08565b60405180910390a2612819846040518060400160405280601581526020017f4d6f64696669636174696f6e2052656a65637465640000000000000000000000815250336040518060200160405280600081525061286a565b5b505b505050565b6009818154811061283157600080fd5b906000526020600020016000915054906101000a900473ffffffffffffffffffffffffffffffffffffffff1681565b601e81565b600a81565b6008600085815260200190815260200160002060405180608001604052804281526020018581526020018473ffffffffffffffffffffffffffffffffffffffff1681526020018381525090806001815401808255809150506001900390600052602060002090600402016000909190919091506000820151816000015560208201518160010190816128fc9190613c52565b5060408201518160020160006101000a81548173ffffffffffffffffffffffffffffffffffffffff021916908373ffffffffffffffffffffffffffffffffffffffff16021790555060608201518160030190816129599190613c52565b50505050505050565b600080600090505b600980549050811015612a3a57600760008481526020019081526020016000206000600983815481106129a05761299f613695565b5b9060005260206000200160009054906101000a900473ffffffffffffffffffffffffffffffffffffffff1673ffffffffffffffffffffffffffffffffffffffff1673ffffffffffffffffffffffffffffffffffffffff16815260200190815260200160002060009054906101000a900460ff1615612a27578180612a23906136c4565b9250505b8080612a32906136c4565b91505061296a565b50919050565b60405180610160016040528060008152602001606081526020016060815260200160608152602001600073ffffffffffffffffffffffffffffffffffffffff16815260200160008152602001606081526020016000815260200160001515815260200160008152602001600081525090565b6000604051905090565b600080fd5b600080fd5b6000819050919050565b612ad981612ac6565b8114612ae457600080fd5b50565b600081359050612af681612ad0565b92915050565b600060208284031215612b1257612b11612abc565b5b6000612b2084828501612ae7565b91505092915050565b600081519050919050565b600082825260208201905092915050565b6000819050602082019050919050565b612b5e81612ac6565b82525050565b600081519050919050565b600082825260208201905092915050565b60005b83811015612b9e578082015181840152602081019050612b83565b60008484015250505050565b6000601f19601f8301169050919050565b6000612bc682612b64565b612bd08185612b6f565b9350612be0818560208601612b80565b612be981612baa565b840191505092915050565b600073ffffffffffffffffffffffffffffffffffffffff82169050919050565b6000612c1f82612bf4565b9050919050565b612c2f81612c14565b82525050565b6000608083016000830151612c4d6000860182612b55565b5060208301518482036020860152612c658282612bbb565b9150506040830151612c7a6040860182612c26565b5060608301518482036060860152612c928282612bbb565b9150508091505092915050565b6000612cab8383612c35565b905092915050565b6000602082019050919050565b6000612ccb82612b29565b612cd58185612b34565b935083602082028501612ce785612b45565b8060005b85811015612d235784840389528151612d048582612c9f565b9450612d0f83612cb3565b925060208a01995050600181019050612ceb565b50829750879550505050505092915050565b60006020820190508181036000830152612d4f8184612cc0565b905092915050565b612d6081612c14565b8114612d6b57600080fd5b50565b600081359050612d7d81612d57565b92915050565b60008060408385031215612d9a57612d99612abc565b5b6000612da885828601612ae7565b9250506020612db985828601612d6e565b9150509250929050565b60008115159050919050565b612dd881612dc3565b82525050565b6000602082019050612df36000830184612dcf565b92915050565b612e0281612ac6565b82525050565b6000602082019050612e1d6000830184612df9565b92915050565b600081519050919050565b600082825260208201905092915050565b6000819050602082019050919050565b612e5881612dc3565b82525050565b600061016083016000830151612e776000860182612b55565b5060208301518482036020860152612e8f8282612bbb565b91505060408301518482036040860152612ea98282612bbb565b91505060608301518482036060860152612ec38282612bbb565b9150506080830151612ed86080860182612c26565b5060a0830151612eeb60a0860182612b55565b5060c083015184820360c0860152612f038282612bbb565b91505060e0830151612f1860e0860182612b55565b50610100830151612f2d610100860182612e4f565b50610120830151612f42610120860182612b55565b50610140830151612f57610140860182612b55565b508091505092915050565b6000612f6e8383612e5e565b905092915050565b6000602082019050919050565b6000612f8e82612e23565b612f988185612e2e565b935083602082028501612faa85612e3f565b8060005b85811015612fe65784840389528151612fc78582612f62565b9450612fd283612f76565b925060208a01995050600181019050612fae565b50829750879550505050505092915050565b600060208201905081810360008301526130128184612f83565b905092915050565b6000602082840312156130305761302f612abc565b5b600061303e84828501612d6e565b91505092915050565b7f4e487b7100000000000000000000000000000000000000000000000000000000600052602160045260246000fd5b6004811061308757613086613047565b5b50565b600081905061309882613076565b919050565b60006130a88261308a565b9050919050565b6130b88161309d565b82525050565b60006020820190506130d360008301846130af565b92915050565b600080fd5b600080fd5b7f4e487b7100000000000000000000000000000000000000000000000000000000600052604160045260246000fd5b61311b82612baa565b810181811067ffffffffffffffff8211171561313a576131396130e3565b5b80604052505050565b600061314d612ab2565b90506131598282613112565b919050565b600067ffffffffffffffff821115613179576131786130e3565b5b61318282612baa565b9050602081019050919050565b82818337600083830152505050565b60006131b16131ac8461315e565b613143565b9050828152602081018484840111156131cd576131cc6130de565b5b6131d884828561318f565b509392505050565b600082601f8301126131f5576131f46130d9565b5b813561320584826020860161319e565b91505092915050565b6000806000806080858703121561322857613227612abc565b5b600061323687828801612ae7565b945050602085013567ffffffffffffffff81111561325757613256612ac1565b5b613263878288016131e0565b935050604061327487828801612ae7565b925050606061328587828801612ae7565b91505092959194509250565b600080604083850312156132a8576132a7612abc565b5b60006132b685828601612ae7565b92505060206132c785828601612ae7565b9150509250929050565b600082825260208201905092915050565b60006132ed82612b64565b6132f781856132d1565b9350613307818560208601612b80565b61331081612baa565b840191505092915050565b61332481612c14565b82525050565b600061014082019050613340600083018d612df9565b8181036020830152613352818c6132e2565b90508181036040830152613366818b6132e2565b9050818103606083015261337a818a6132e2565b9050613389608083018961331b565b61339660a0830188612df9565b81810360c08301526133a881876132e2565b90506133b760e0830186612df9565b6133c5610100830185612dcf565b6133d3610120830184612df9565b9b9a5050505050505050505050565b60006020820190506133f7600083018461331b565b92915050565b60008060008060008060c0878903121561341a57613419612abc565b5b600087013567ffffffffffffffff81111561343857613437612ac1565b5b61344489828a016131e0565b965050602087013567ffffffffffffffff81111561346557613464612ac1565b5b61347189828a016131e0565b955050604087013567ffffffffffffffff81111561349257613491612ac1565b5b61349e89828a016131e0565b94505060606134af89828a01612ae7565b935050608087013567ffffffffffffffff8111156134d0576134cf612ac1565b5b6134dc89828a016131e0565b92505060a06134ed89828a01612ae7565b9150509295509295509295565b61350381612dc3565b811461350e57600080fd5b50565b600081359050613520816134fa565b92915050565b6000806040838503121561353d5761353c612abc565b5b600061354b85828601612ae7565b925050602061355c85828601613511565b9150509250929050565b7f4f6e6c792061756469746f727320616c6c6f7765640000000000000000000000600082015250565b600061359c6015836132d1565b91506135a782613566565b602082019050919050565b600060208201905081810360008301526135cb8161358f565b9050919050565b7f4e487b7100000000000000000000000000000000000000000000000000000000600052602260045260246000fd5b6000600282049050600182168061361957607f821691505b60208210810361362c5761362b6135d2565b5b50919050565b7f4e487b7100000000000000000000000000000000000000000000000000000000600052601160045260246000fd5b600061366c82612ac6565b915061367783612ac6565b925082820390508181111561368f5761368e613632565b5b92915050565b7f4e487b7100000000000000000000000000000000000000000000000000000000600052603260045260246000fd5b60006136cf82612ac6565b91507fffffffffffffffffffffffffffffffffffffffffffffffffffffffffffffffff820361370157613700613632565b5b600182019050919050565b7f4f6e6c792070726f637572656d656e74206f6666696365727320616c6c6f776560008201527f6400000000000000000000000000000000000000000000000000000000000000602082015250565b60006137686021836132d1565b91506137738261370c565b604082019050919050565b600060208201905081810360008301526137978161375b565b9050919050565b7f436f6e747261637420646f6573206e6f74206578697374000000000000000000600082015250565b60006137d46017836132d1565b91506137df8261379e565b602082019050919050565b60006020820190508181036000830152613803816137c7565b9050919050565b7f50656e64696e67206d6f64696669636174696f6e206578697374730000000000600082015250565b6000613840601b836132d1565b915061384b8261380a565b602082019050919050565b6000602082019050818103600083015261386f81613833565b9050919050565b600061388182612ac6565b915061388c83612ac6565b925082820261389a81612ac6565b915082820484148315176138b1576138b0613632565b5b5092915050565b7f4e487b7100000000000000000000000000000000000000000000000000000000600052601260045260246000fd5b60006138f282612ac6565b91506138fd83612ac6565b92508261390d5761390c6138b8565b5b828204905092915050565b600061392382612ac6565b915061392e83612ac6565b925082820190508082111561394657613945613632565b5b92915050565b7f56616c756520696e637265617365206578636565647320323525206c696d6974600082015250565b60006139826020836132d1565b915061398d8261394c565b602082019050919050565b60006040820190506139ad6000830184612df9565b81810360208301526139be81613975565b905092915050565b600060208201905081810360008301526139df81613975565b9050919050565b7f44656c697665727920657874656e73696f6e206578636565647320333020646160008201527f7973000000000000000000000000000000000000000000000000000000000000602082015250565b6000613a426022836132d1565b9150613a4d826139e6565b604082019050919050565b6000604082019050613a6d6000830184612df9565b8181036020830152613a7e81613a35565b905092915050565b60006020820190508181036000830152613a9f81613a35565b9050919050565b60008190508160005260206000209050919050565b60006020601f8301049050919050565b600082821b905092915050565b600060088302613b087fffffffffffffffffffffffffffffffffffffffffffffffffffffffffffffffff82613acb565b613b128683613acb565b95508019841693508086168417925050509392505050565b6000819050919050565b6000613b4f613b4a613b4584612ac6565b613b2a565b612ac6565b9050919050565b6000819050919050565b613b6983613b34565b613b7d613b7582613b56565b848454613ad8565b825550505050565b600090565b613b92613b85565b613b9d818484613b60565b505050565b5b81811015613bc157613bb6600082613b8a565b600181019050613ba3565b5050565b601f821115613c0657613bd781613aa6565b613be084613abb565b81016020851015613bef578190505b613c03613bfb85613abb565b830182613ba2565b50505b505050565b600082821c905092915050565b6000613c2960001984600802613c0b565b1980831691505092915050565b6000613c428383613c18565b9150826002028217905092915050565b613c5b82612b64565b67ffffffffffffffff811115613c7457613c736130e3565b5b613c7e8254613601565b613c89828285613bc5565b600060209050601f831160018114613cbc5760008415613caa578287015190505b613cb48582613c36565b865550613d1c565b601f198416613cca86613aa6565b60005b82811015613cf257848901518255600182019150602085019450602081019050613ccd565b86831015613d0f5784890151613d0b601f891682613c18565b8355505b6001600288020188555050505b505050505050565b6000604082019050613d396000830185612df9565b613d466020830184612df9565b9392505050565b7f4f6e6c7920617070726f7665727320616c6c6f77656400000000000000000000600082015250565b6000613d836016836132d1565b9150613d8e82613d4d565b602082019050919050565b60006020820190508181036000830152613db281613d76565b9050919050565b7f416c72656164792066756c6c7920617070726f76656400000000000000000000600082015250565b6000613def6016836132d1565b9150613dfa82613db9565b602082019050919050565b60006020820190508181036000830152613e1e81613de2565b9050919050565b7f416c726561647920617070726f76656420627920796f75000000000000000000600082015250565b6000613e5b6017836132d1565b9150613e6682613e25565b602082019050919050565b60006020820190508181036000830152613e8a81613e4e565b9050919050565b7f43616e6e6f74206d6f6469667920617070726f76656420636f6e747261637400600082015250565b6000613ec7601f836132d1565b9150613ed282613e91565b602082019050919050565b60006020820190508181036000830152613ef681613eba565b9050919050565b7f56616c756520696e637265617365206578636565647320313025206c696d6974600082015250565b6000613f336020836132d1565b9150613f3e82613efd565b602082019050919050565b6000604082019050613f5e6000830184612df9565b8181036020830152613f6f81613f26565b905092915050565b60006020820190508181036000830152613f9081613f26565b9050919050565b7f5469746c65207265717569726564000000000000000000000000000000000000600082015250565b6000613fcd600e836132d1565b9150613fd882613f97565b602082019050919050565b60006020820190508181036000830152613ffc81613fc0565b9050919050565b7f4465736372697074696f6e207265717569726564000000000000000000000000600082015250565b60006140396014836132d1565b915061404482614003565b602082019050919050565b600060208201905081810360008301526140688161402c565b9050919050565b7f537570706c696572206e616d6520726571756972656400000000000000000000600082015250565b60006140a56016836132d1565b91506140b08261406f565b602082019050919050565b600060208201905081810360008301526140d481614098565b9050919050565b7f56616c7565206d757374206265203e2030000000000000000000000000000000600082015250565b60006141116011836132d1565b915061411c826140db565b602082019050919050565b6000602082019050818103600083015261414081614104565b9050919050565b7f46696c6520686173682072657175697265640000000000000000000000000000600082015250565b600061417d6012836132d1565b915061418882614147565b602082019050919050565b600060208201905081810360008301526141ac81614170565b9050919050565b7f44656c69766572792064617465206d75737420626520696e207468652066757460008201527f7572650000000000000000000000000000000000000000000000000000000000602082015250565b600061420f6023836132d1565b915061421a826141b3565b604082019050919050565b6000602082019050818103600083015261423e81614202565b9050919050565b600060408201905061425a6000830185612df9565b818103602083015261426c81846132e2565b90509392505050565b7f4e6f2070656e64696e67206d6f64696669636174696f6e000000000000000000600082015250565b60006142ab6017836132d1565b91506142b682614275565b602082019050919050565b600060208201905081810360008301526142da8161429e565b9050919050565b7f416c726561647920726576696577656400000000000000000000000000000000600082015250565b60006143176010836132d1565b9150614322826142e1565b602082019050919050565b600060208201905081810360008301526143468161430a565b9050919050565b60006040820190506143626000830185612df9565b61436f6020830184612dcf565b9392505050565b60008154905061438581613601565b9050919050565b60008190508160005260206000209050919050565b8181036143af575050614487565b6143b882614376565b67ffffffffffffffff8111156143d1576143d06130e3565b5b6143db8254613601565b6143e6828285613bc5565b6000601f8311600181146144155760008415614403578287015490505b61440d8582613c36565b865550614480565b601f1984166144238761438c565b965061442e86613aa6565b60005b8281101561445657848901548255600182019150600185019450602081019050614431565b86831015614473578489015461446f601f891682613c18565b8355505b6001600288020188555050505b5050505050505b56fea264697066735822122072baaa637e87a187a720fe522c829df88f837134e0afa5a689f148d478a5b0e964736f6c63430008140033",
  "linkReferences": {},
  "deployedLinkReferences": {}
}